{
	"contract/Events.sol": {
		"EventsExample": {
			"abi": [
				{
					"inputs": [],
					"stateMutability": "nonpayable",
					"type": "constructor"
				},
				{
					"inputs": [
						{
							"internalType": "address",
							"name": "_to",
							"type": "address"
						},
						{
							"internalType": "uint256",
							"name": "_amount",
							"type": "uint256"
						}
					],
					"name": "sendToken",
					"outputs": [
						{
							"internalType": "bool",
							"name": "",
							"type": "bool"
						}
					],
					"stateMutability": "nonpayable",
					"type": "function"
				},
				{
					"inputs": [
						{
							"internalType": "address",
							"name": "",
							"type": "address"
						}
					],
					"name": "tokenAvailable",
					"outputs": [
						{
							"internalType": "uint256",
							"name": "",
							"type": "uint256"
						}
					],
					"stateMutability": "view",
					"type": "function"
				}
			],
			"devdoc": {
				"kind": "dev",
				"methods": {},
				"version": 1
			},
			"evm": {
				"assembly": "    /* \"contract/Events.sol\":27:509  contract EventsExample {\r... */\n  mstore(0x40, 0x80)\n    /* \"contract/Events.sol\":223:317  constructor() {\r... */\n  callvalue\n  dup1\n  iszero\n  tag_1\n  jumpi\n  0x00\n  dup1\n  revert\ntag_1:\n  pop\n    /* \"contract/Events.sol\":277:280  100 */\n  0x64\n    /* \"contract/Events.sol\":248:262  tokenAvailable */\n  0x00\n    /* \"contract/Events.sol\":248:274  tokenAvailable[msg.sender] */\n  dup1\n    /* \"contract/Events.sol\":263:273  msg.sender */\n  caller\n    /* \"contract/Events.sol\":248:274  tokenAvailable[msg.sender] */\n  0xffffffffffffffffffffffffffffffffffffffff\n  and\n  0xffffffffffffffffffffffffffffffffffffffff\n  and\n  dup2\n  mstore\n  0x20\n  add\n  swap1\n  dup2\n  mstore\n  0x20\n  add\n  0x00\n  keccak256\n    /* \"contract/Events.sol\":248:280  tokenAvailable[msg.sender] = 100 */\n  dup2\n  swap1\n  sstore\n  pop\n    /* \"contract/Events.sol\":299:309  msg.sender */\n  caller\n    /* \"contract/Events.sol\":291:296  owner */\n  0x01\n  0x00\n    /* \"contract/Events.sol\":291:309  owner = msg.sender */\n  0x0100\n  exp\n  dup2\n  sload\n  dup2\n  0xffffffffffffffffffffffffffffffffffffffff\n  mul\n  not\n  and\n  swap1\n  dup4\n  0xffffffffffffffffffffffffffffffffffffffff\n  and\n  mul\n  or\n  swap1\n  sstore\n  pop\n    /* \"contract/Events.sol\":27:509  contract EventsExample {\r... */\n  dataSize(sub_0)\n  dup1\n  dataOffset(sub_0)\n  0x00\n  codecopy\n  0x00\n  return\nstop\n\nsub_0: assembly {\n        /* \"contract/Events.sol\":27:509  contract EventsExample {\r... */\n      mstore(0x40, 0x80)\n      callvalue\n      dup1\n      iszero\n      tag_1\n      jumpi\n      0x00\n      dup1\n      revert\n    tag_1:\n      pop\n      jumpi(tag_2, lt(calldatasize, 0x04))\n      shr(0xe0, calldataload(0x00))\n      dup1\n      0x412664ae\n      eq\n      tag_3\n      jumpi\n      dup1\n      0x97b2544f\n      eq\n      tag_4\n      jumpi\n    tag_2:\n      0x00\n      dup1\n      revert\n        /* \"contract/Events.sol\":325:506  function sendToken(address _to, uint _amount) public onlyOwner returns(bool)  {\r... */\n    tag_3:\n      tag_5\n      0x04\n      dup1\n      calldatasize\n      sub\n      dup2\n      add\n      swap1\n      tag_6\n      swap2\n      swap1\n      tag_7\n      jump\t// in\n    tag_6:\n      tag_8\n      jump\t// in\n    tag_5:\n      mload(0x40)\n      tag_9\n      swap2\n      swap1\n      tag_10\n      jump\t// in\n    tag_9:\n      mload(0x40)\n      dup1\n      swap2\n      sub\n      swap1\n      return\n        /* \"contract/Events.sol\":57:102  mapping(address=> uint) public tokenAvailable */\n    tag_4:\n      tag_11\n      0x04\n      dup1\n      calldatasize\n      sub\n      dup2\n      add\n      swap1\n      tag_12\n      swap2\n      swap1\n      tag_13\n      jump\t// in\n    tag_12:\n      tag_14\n      jump\t// in\n    tag_11:\n      mload(0x40)\n      tag_15\n      swap2\n      swap1\n      tag_16\n      jump\t// in\n    tag_15:\n      mload(0x40)\n      dup1\n      swap2\n      sub\n      swap1\n      return\n        /* \"contract/Events.sol\":325:506  function sendToken(address _to, uint _amount) public onlyOwner returns(bool)  {\r... */\n    tag_8:\n        /* \"contract/Events.sol\":396:400  bool */\n      0x00\n        /* \"contract/Events.sol\":175:180  owner */\n      0x01\n      0x00\n      swap1\n      sload\n      swap1\n      0x0100\n      exp\n      swap1\n      div\n      0xffffffffffffffffffffffffffffffffffffffff\n      and\n        /* \"contract/Events.sol\":161:180  msg.sender == owner */\n      0xffffffffffffffffffffffffffffffffffffffff\n      and\n        /* \"contract/Events.sol\":161:171  msg.sender */\n      caller\n        /* \"contract/Events.sol\":161:180  msg.sender == owner */\n      0xffffffffffffffffffffffffffffffffffffffff\n      and\n      eq\n        /* \"contract/Events.sol\":153:205  require(msg.sender == owner,\"You are not the owner\") */\n      tag_18\n      jumpi\n      mload(0x40)\n      0x08c379a000000000000000000000000000000000000000000000000000000000\n      dup2\n      mstore\n      0x04\n      add\n      tag_19\n      swap1\n      tag_20\n      jump\t// in\n    tag_19:\n      mload(0x40)\n      dup1\n      swap2\n      sub\n      swap1\n      revert\n    tag_18:\n        /* \"contract/Events.sol\":436:443  _amount */\n      dup2\n        /* \"contract/Events.sol\":406:420  tokenAvailable */\n      0x00\n        /* \"contract/Events.sol\":406:432  tokenAvailable[msg.sender] */\n      dup1\n        /* \"contract/Events.sol\":421:431  msg.sender */\n      caller\n        /* \"contract/Events.sol\":406:432  tokenAvailable[msg.sender] */\n      0xffffffffffffffffffffffffffffffffffffffff\n      and\n      0xffffffffffffffffffffffffffffffffffffffff\n      and\n      dup2\n      mstore\n      0x20\n      add\n      swap1\n      dup2\n      mstore\n      0x20\n      add\n      0x00\n      keccak256\n      0x00\n        /* \"contract/Events.sol\":406:443  tokenAvailable[msg.sender] -= _amount */\n      dup3\n      dup3\n      sload\n      tag_22\n      swap2\n      swap1\n      tag_23\n      jump\t// in\n    tag_22:\n      swap3\n      pop\n      pop\n      dup2\n      swap1\n      sstore\n      pop\n        /* \"contract/Events.sol\":469:476  _amount */\n      dup2\n        /* \"contract/Events.sol\":446:460  tokenAvailable */\n      0x00\n        /* \"contract/Events.sol\":446:465  tokenAvailable[_to] */\n      dup1\n        /* \"contract/Events.sol\":461:464  _to */\n      dup6\n        /* \"contract/Events.sol\":446:465  tokenAvailable[_to] */\n      0xffffffffffffffffffffffffffffffffffffffff\n      and\n      0xffffffffffffffffffffffffffffffffffffffff\n      and\n      dup2\n      mstore\n      0x20\n      add\n      swap1\n      dup2\n      mstore\n      0x20\n      add\n      0x00\n      keccak256\n      0x00\n        /* \"contract/Events.sol\":446:476  tokenAvailable[_to] += _amount */\n      dup3\n      dup3\n      sload\n      tag_24\n      swap2\n      swap1\n      tag_25\n      jump\t// in\n    tag_24:\n      swap3\n      pop\n      pop\n      dup2\n      swap1\n      sstore\n      pop\n        /* \"contract/Events.sol\":494:498  true */\n      0x01\n        /* \"contract/Events.sol\":487:498  return true */\n      swap1\n      pop\n        /* \"contract/Events.sol\":325:506  function sendToken(address _to, uint _amount) public onlyOwner returns(bool)  {\r... */\n      swap3\n      swap2\n      pop\n      pop\n      jump\t// out\n        /* \"contract/Events.sol\":57:102  mapping(address=> uint) public tokenAvailable */\n    tag_14:\n      mstore(0x20, 0x00)\n      dup1\n      0x00\n      mstore\n      keccak256(0x00, 0x40)\n      0x00\n      swap2\n      pop\n      swap1\n      pop\n      sload\n      dup2\n      jump\t// out\n        /* \"#utility.yul\":7:146   */\n    tag_27:\n        /* \"#utility.yul\":53:58   */\n      0x00\n        /* \"#utility.yul\":91:97   */\n      dup2\n        /* \"#utility.yul\":78:98   */\n      calldataload\n        /* \"#utility.yul\":69:98   */\n      swap1\n      pop\n        /* \"#utility.yul\":107:140   */\n      tag_29\n        /* \"#utility.yul\":134:139   */\n      dup2\n        /* \"#utility.yul\":107:140   */\n      tag_30\n      jump\t// in\n    tag_29:\n        /* \"#utility.yul\":7:146   */\n      swap3\n      swap2\n      pop\n      pop\n      jump\t// out\n        /* \"#utility.yul\":152:291   */\n    tag_31:\n        /* \"#utility.yul\":198:203   */\n      0x00\n        /* \"#utility.yul\":236:242   */\n      dup2\n        /* \"#utility.yul\":223:243   */\n      calldataload\n        /* \"#utility.yul\":214:243   */\n      swap1\n      pop\n        /* \"#utility.yul\":252:285   */\n      tag_33\n        /* \"#utility.yul\":279:284   */\n      dup2\n        /* \"#utility.yul\":252:285   */\n      tag_34\n      jump\t// in\n    tag_33:\n        /* \"#utility.yul\":152:291   */\n      swap3\n      swap2\n      pop\n      pop\n      jump\t// out\n        /* \"#utility.yul\":297:626   */\n    tag_13:\n        /* \"#utility.yul\":356:362   */\n      0x00\n        /* \"#utility.yul\":405:407   */\n      0x20\n        /* \"#utility.yul\":393:402   */\n      dup3\n        /* \"#utility.yul\":384:391   */\n      dup5\n        /* \"#utility.yul\":380:403   */\n      sub\n        /* \"#utility.yul\":376:408   */\n      slt\n        /* \"#utility.yul\":373:492   */\n      iszero\n      tag_36\n      jumpi\n        /* \"#utility.yul\":411:490   */\n      tag_37\n      tag_38\n      jump\t// in\n    tag_37:\n        /* \"#utility.yul\":373:492   */\n    tag_36:\n        /* \"#utility.yul\":531:532   */\n      0x00\n        /* \"#utility.yul\":556:609   */\n      tag_39\n        /* \"#utility.yul\":601:608   */\n      dup5\n        /* \"#utility.yul\":592:598   */\n      dup3\n        /* \"#utility.yul\":581:590   */\n      dup6\n        /* \"#utility.yul\":577:599   */\n      add\n        /* \"#utility.yul\":556:609   */\n      tag_27\n      jump\t// in\n    tag_39:\n        /* \"#utility.yul\":546:609   */\n      swap2\n      pop\n        /* \"#utility.yul\":502:619   */\n      pop\n        /* \"#utility.yul\":297:626   */\n      swap3\n      swap2\n      pop\n      pop\n      jump\t// out\n        /* \"#utility.yul\":632:1106   */\n    tag_7:\n        /* \"#utility.yul\":700:706   */\n      0x00\n        /* \"#utility.yul\":708:714   */\n      dup1\n        /* \"#utility.yul\":757:759   */\n      0x40\n        /* \"#utility.yul\":745:754   */\n      dup4\n        /* \"#utility.yul\":736:743   */\n      dup6\n        /* \"#utility.yul\":732:755   */\n      sub\n        /* \"#utility.yul\":728:760   */\n      slt\n        /* \"#utility.yul\":725:844   */\n      iszero\n      tag_41\n      jumpi\n        /* \"#utility.yul\":763:842   */\n      tag_42\n      tag_38\n      jump\t// in\n    tag_42:\n        /* \"#utility.yul\":725:844   */\n    tag_41:\n        /* \"#utility.yul\":883:884   */\n      0x00\n        /* \"#utility.yul\":908:961   */\n      tag_43\n        /* \"#utility.yul\":953:960   */\n      dup6\n        /* \"#utility.yul\":944:950   */\n      dup3\n        /* \"#utility.yul\":933:942   */\n      dup7\n        /* \"#utility.yul\":929:951   */\n      add\n        /* \"#utility.yul\":908:961   */\n      tag_27\n      jump\t// in\n    tag_43:\n        /* \"#utility.yul\":898:961   */\n      swap3\n      pop\n        /* \"#utility.yul\":854:971   */\n      pop\n        /* \"#utility.yul\":1010:1012   */\n      0x20\n        /* \"#utility.yul\":1036:1089   */\n      tag_44\n        /* \"#utility.yul\":1081:1088   */\n      dup6\n        /* \"#utility.yul\":1072:1078   */\n      dup3\n        /* \"#utility.yul\":1061:1070   */\n      dup7\n        /* \"#utility.yul\":1057:1079   */\n      add\n        /* \"#utility.yul\":1036:1089   */\n      tag_31\n      jump\t// in\n    tag_44:\n        /* \"#utility.yul\":1026:1089   */\n      swap2\n      pop\n        /* \"#utility.yul\":981:1099   */\n      pop\n        /* \"#utility.yul\":632:1106   */\n      swap3\n      pop\n      swap3\n      swap1\n      pop\n      jump\t// out\n        /* \"#utility.yul\":1112:1221   */\n    tag_45:\n        /* \"#utility.yul\":1193:1214   */\n      tag_47\n        /* \"#utility.yul\":1208:1213   */\n      dup2\n        /* \"#utility.yul\":1193:1214   */\n      tag_48\n      jump\t// in\n    tag_47:\n        /* \"#utility.yul\":1188:1191   */\n      dup3\n        /* \"#utility.yul\":1181:1215   */\n      mstore\n        /* \"#utility.yul\":1112:1221   */\n      pop\n      pop\n      jump\t// out\n        /* \"#utility.yul\":1227:1593   */\n    tag_49:\n        /* \"#utility.yul\":1369:1372   */\n      0x00\n        /* \"#utility.yul\":1390:1457   */\n      tag_51\n        /* \"#utility.yul\":1454:1456   */\n      0x15\n        /* \"#utility.yul\":1449:1452   */\n      dup4\n        /* \"#utility.yul\":1390:1457   */\n      tag_52\n      jump\t// in\n    tag_51:\n        /* \"#utility.yul\":1383:1457   */\n      swap2\n      pop\n        /* \"#utility.yul\":1466:1559   */\n      tag_53\n        /* \"#utility.yul\":1555:1558   */\n      dup3\n        /* \"#utility.yul\":1466:1559   */\n      tag_54\n      jump\t// in\n    tag_53:\n        /* \"#utility.yul\":1584:1586   */\n      0x20\n        /* \"#utility.yul\":1579:1582   */\n      dup3\n        /* \"#utility.yul\":1575:1587   */\n      add\n        /* \"#utility.yul\":1568:1587   */\n      swap1\n      pop\n        /* \"#utility.yul\":1227:1593   */\n      swap2\n      swap1\n      pop\n      jump\t// out\n        /* \"#utility.yul\":1599:1717   */\n    tag_55:\n        /* \"#utility.yul\":1686:1710   */\n      tag_57\n        /* \"#utility.yul\":1704:1709   */\n      dup2\n        /* \"#utility.yul\":1686:1710   */\n      tag_58\n      jump\t// in\n    tag_57:\n        /* \"#utility.yul\":1681:1684   */\n      dup3\n        /* \"#utility.yul\":1674:1711   */\n      mstore\n        /* \"#utility.yul\":1599:1717   */\n      pop\n      pop\n      jump\t// out\n        /* \"#utility.yul\":1723:1933   */\n    tag_10:\n        /* \"#utility.yul\":1810:1814   */\n      0x00\n        /* \"#utility.yul\":1848:1850   */\n      0x20\n        /* \"#utility.yul\":1837:1846   */\n      dup3\n        /* \"#utility.yul\":1833:1851   */\n      add\n        /* \"#utility.yul\":1825:1851   */\n      swap1\n      pop\n        /* \"#utility.yul\":1861:1926   */\n      tag_60\n        /* \"#utility.yul\":1923:1924   */\n      0x00\n        /* \"#utility.yul\":1912:1921   */\n      dup4\n        /* \"#utility.yul\":1908:1925   */\n      add\n        /* \"#utility.yul\":1899:1905   */\n      dup5\n        /* \"#utility.yul\":1861:1926   */\n      tag_45\n      jump\t// in\n    tag_60:\n        /* \"#utility.yul\":1723:1933   */\n      swap3\n      swap2\n      pop\n      pop\n      jump\t// out\n        /* \"#utility.yul\":1939:2358   */\n    tag_20:\n        /* \"#utility.yul\":2105:2109   */\n      0x00\n        /* \"#utility.yul\":2143:2145   */\n      0x20\n        /* \"#utility.yul\":2132:2141   */\n      dup3\n        /* \"#utility.yul\":2128:2146   */\n      add\n        /* \"#utility.yul\":2120:2146   */\n      swap1\n      pop\n        /* \"#utility.yul\":2192:2201   */\n      dup2\n        /* \"#utility.yul\":2186:2190   */\n      dup2\n        /* \"#utility.yul\":2182:2202   */\n      sub\n        /* \"#utility.yul\":2178:2179   */\n      0x00\n        /* \"#utility.yul\":2167:2176   */\n      dup4\n        /* \"#utility.yul\":2163:2180   */\n      add\n        /* \"#utility.yul\":2156:2203   */\n      mstore\n        /* \"#utility.yul\":2220:2351   */\n      tag_62\n        /* \"#utility.yul\":2346:2350   */\n      dup2\n        /* \"#utility.yul\":2220:2351   */\n      tag_49\n      jump\t// in\n    tag_62:\n        /* \"#utility.yul\":2212:2351   */\n      swap1\n      pop\n        /* \"#utility.yul\":1939:2358   */\n      swap2\n      swap1\n      pop\n      jump\t// out\n        /* \"#utility.yul\":2364:2586   */\n    tag_16:\n        /* \"#utility.yul\":2457:2461   */\n      0x00\n        /* \"#utility.yul\":2495:2497   */\n      0x20\n        /* \"#utility.yul\":2484:2493   */\n      dup3\n        /* \"#utility.yul\":2480:2498   */\n      add\n        /* \"#utility.yul\":2472:2498   */\n      swap1\n      pop\n        /* \"#utility.yul\":2508:2579   */\n      tag_64\n        /* \"#utility.yul\":2576:2577   */\n      0x00\n        /* \"#utility.yul\":2565:2574   */\n      dup4\n        /* \"#utility.yul\":2561:2578   */\n      add\n        /* \"#utility.yul\":2552:2558   */\n      dup5\n        /* \"#utility.yul\":2508:2579   */\n      tag_55\n      jump\t// in\n    tag_64:\n        /* \"#utility.yul\":2364:2586   */\n      swap3\n      swap2\n      pop\n      pop\n      jump\t// out\n        /* \"#utility.yul\":2673:2842   */\n    tag_52:\n        /* \"#utility.yul\":2757:2768   */\n      0x00\n        /* \"#utility.yul\":2791:2797   */\n      dup3\n        /* \"#utility.yul\":2786:2789   */\n      dup3\n        /* \"#utility.yul\":2779:2798   */\n      mstore\n        /* \"#utility.yul\":2831:2835   */\n      0x20\n        /* \"#utility.yul\":2826:2829   */\n      dup3\n        /* \"#utility.yul\":2822:2836   */\n      add\n        /* \"#utility.yul\":2807:2836   */\n      swap1\n      pop\n        /* \"#utility.yul\":2673:2842   */\n      swap3\n      swap2\n      pop\n      pop\n      jump\t// out\n        /* \"#utility.yul\":2848:3153   */\n    tag_25:\n        /* \"#utility.yul\":2888:2891   */\n      0x00\n        /* \"#utility.yul\":2907:2927   */\n      tag_69\n        /* \"#utility.yul\":2925:2926   */\n      dup3\n        /* \"#utility.yul\":2907:2927   */\n      tag_58\n      jump\t// in\n    tag_69:\n        /* \"#utility.yul\":2902:2927   */\n      swap2\n      pop\n        /* \"#utility.yul\":2941:2961   */\n      tag_70\n        /* \"#utility.yul\":2959:2960   */\n      dup4\n        /* \"#utility.yul\":2941:2961   */\n      tag_58\n      jump\t// in\n    tag_70:\n        /* \"#utility.yul\":2936:2961   */\n      swap3\n      pop\n        /* \"#utility.yul\":3095:3096   */\n      dup3\n        /* \"#utility.yul\":3027:3093   */\n      0xffffffffffffffffffffffffffffffffffffffffffffffffffffffffffffffff\n        /* \"#utility.yul\":3023:3097   */\n      sub\n        /* \"#utility.yul\":3020:3021   */\n      dup3\n        /* \"#utility.yul\":3017:3098   */\n      gt\n        /* \"#utility.yul\":3014:3121   */\n      iszero\n      tag_71\n      jumpi\n        /* \"#utility.yul\":3101:3119   */\n      tag_72\n      tag_73\n      jump\t// in\n    tag_72:\n        /* \"#utility.yul\":3014:3121   */\n    tag_71:\n        /* \"#utility.yul\":3145:3146   */\n      dup3\n        /* \"#utility.yul\":3142:3143   */\n      dup3\n        /* \"#utility.yul\":3138:3147   */\n      add\n        /* \"#utility.yul\":3131:3147   */\n      swap1\n      pop\n        /* \"#utility.yul\":2848:3153   */\n      swap3\n      swap2\n      pop\n      pop\n      jump\t// out\n        /* \"#utility.yul\":3159:3350   */\n    tag_23:\n        /* \"#utility.yul\":3199:3203   */\n      0x00\n        /* \"#utility.yul\":3219:3239   */\n      tag_75\n        /* \"#utility.yul\":3237:3238   */\n      dup3\n        /* \"#utility.yul\":3219:3239   */\n      tag_58\n      jump\t// in\n    tag_75:\n        /* \"#utility.yul\":3214:3239   */\n      swap2\n      pop\n        /* \"#utility.yul\":3253:3273   */\n      tag_76\n        /* \"#utility.yul\":3271:3272   */\n      dup4\n        /* \"#utility.yul\":3253:3273   */\n      tag_58\n      jump\t// in\n    tag_76:\n        /* \"#utility.yul\":3248:3273   */\n      swap3\n      pop\n        /* \"#utility.yul\":3292:3293   */\n      dup3\n        /* \"#utility.yul\":3289:3290   */\n      dup3\n        /* \"#utility.yul\":3286:3294   */\n      lt\n        /* \"#utility.yul\":3283:3317   */\n      iszero\n      tag_77\n      jumpi\n        /* \"#utility.yul\":3297:3315   */\n      tag_78\n      tag_73\n      jump\t// in\n    tag_78:\n        /* \"#utility.yul\":3283:3317   */\n    tag_77:\n        /* \"#utility.yul\":3342:3343   */\n      dup3\n        /* \"#utility.yul\":3339:3340   */\n      dup3\n        /* \"#utility.yul\":3335:3344   */\n      sub\n        /* \"#utility.yul\":3327:3344   */\n      swap1\n      pop\n        /* \"#utility.yul\":3159:3350   */\n      swap3\n      swap2\n      pop\n      pop\n      jump\t// out\n        /* \"#utility.yul\":3356:3452   */\n    tag_79:\n        /* \"#utility.yul\":3393:3400   */\n      0x00\n        /* \"#utility.yul\":3422:3446   */\n      tag_81\n        /* \"#utility.yul\":3440:3445   */\n      dup3\n        /* \"#utility.yul\":3422:3446   */\n      tag_82\n      jump\t// in\n    tag_81:\n        /* \"#utility.yul\":3411:3446   */\n      swap1\n      pop\n        /* \"#utility.yul\":3356:3452   */\n      swap2\n      swap1\n      pop\n      jump\t// out\n        /* \"#utility.yul\":3458:3548   */\n    tag_48:\n        /* \"#utility.yul\":3492:3499   */\n      0x00\n        /* \"#utility.yul\":3535:3540   */\n      dup2\n        /* \"#utility.yul\":3528:3541   */\n      iszero\n        /* \"#utility.yul\":3521:3542   */\n      iszero\n        /* \"#utility.yul\":3510:3542   */\n      swap1\n      pop\n        /* \"#utility.yul\":3458:3548   */\n      swap2\n      swap1\n      pop\n      jump\t// out\n        /* \"#utility.yul\":3554:3680   */\n    tag_82:\n        /* \"#utility.yul\":3591:3598   */\n      0x00\n        /* \"#utility.yul\":3631:3673   */\n      0xffffffffffffffffffffffffffffffffffffffff\n        /* \"#utility.yul\":3624:3629   */\n      dup3\n        /* \"#utility.yul\":3620:3674   */\n      and\n        /* \"#utility.yul\":3609:3674   */\n      swap1\n      pop\n        /* \"#utility.yul\":3554:3680   */\n      swap2\n      swap1\n      pop\n      jump\t// out\n        /* \"#utility.yul\":3686:3763   */\n    tag_58:\n        /* \"#utility.yul\":3723:3730   */\n      0x00\n        /* \"#utility.yul\":3752:3757   */\n      dup2\n        /* \"#utility.yul\":3741:3757   */\n      swap1\n      pop\n        /* \"#utility.yul\":3686:3763   */\n      swap2\n      swap1\n      pop\n      jump\t// out\n        /* \"#utility.yul\":3769:3949   */\n    tag_73:\n        /* \"#utility.yul\":3817:3894   */\n      0x4e487b7100000000000000000000000000000000000000000000000000000000\n        /* \"#utility.yul\":3814:3815   */\n      0x00\n        /* \"#utility.yul\":3807:3895   */\n      mstore\n        /* \"#utility.yul\":3914:3918   */\n      0x11\n        /* \"#utility.yul\":3911:3912   */\n      0x04\n        /* \"#utility.yul\":3904:3919   */\n      mstore\n        /* \"#utility.yul\":3938:3942   */\n      0x24\n        /* \"#utility.yul\":3935:3936   */\n      0x00\n        /* \"#utility.yul\":3928:3943   */\n      revert\n        /* \"#utility.yul\":4078:4195   */\n    tag_38:\n        /* \"#utility.yul\":4187:4188   */\n      0x00\n        /* \"#utility.yul\":4184:4185   */\n      dup1\n        /* \"#utility.yul\":4177:4189   */\n      revert\n        /* \"#utility.yul\":4201:4372   */\n    tag_54:\n        /* \"#utility.yul\":4341:4364   */\n      0x596f7520617265206e6f7420746865206f776e65720000000000000000000000\n        /* \"#utility.yul\":4337:4338   */\n      0x00\n        /* \"#utility.yul\":4329:4335   */\n      dup3\n        /* \"#utility.yul\":4325:4339   */\n      add\n        /* \"#utility.yul\":4318:4365   */\n      mstore\n        /* \"#utility.yul\":4201:4372   */\n      pop\n      jump\t// out\n        /* \"#utility.yul\":4378:4500   */\n    tag_30:\n        /* \"#utility.yul\":4451:4475   */\n      tag_92\n        /* \"#utility.yul\":4469:4474   */\n      dup2\n        /* \"#utility.yul\":4451:4475   */\n      tag_79\n      jump\t// in\n    tag_92:\n        /* \"#utility.yul\":4444:4449   */\n      dup2\n        /* \"#utility.yul\":4441:4476   */\n      eq\n        /* \"#utility.yul\":4431:4494   */\n      tag_93\n      jumpi\n        /* \"#utility.yul\":4490:4491   */\n      0x00\n        /* \"#utility.yul\":4487:4488   */\n      dup1\n        /* \"#utility.yul\":4480:4492   */\n      revert\n        /* \"#utility.yul\":4431:4494   */\n    tag_93:\n        /* \"#utility.yul\":4378:4500   */\n      pop\n      jump\t// out\n        /* \"#utility.yul\":4506:4628   */\n    tag_34:\n        /* \"#utility.yul\":4579:4603   */\n      tag_95\n        /* \"#utility.yul\":4597:4602   */\n      dup2\n        /* \"#utility.yul\":4579:4603   */\n      tag_58\n      jump\t// in\n    tag_95:\n        /* \"#utility.yul\":4572:4577   */\n      dup2\n        /* \"#utility.yul\":4569:4604   */\n      eq\n        /* \"#utility.yul\":4559:4622   */\n      tag_96\n      jumpi\n        /* \"#utility.yul\":4618:4619   */\n      0x00\n        /* \"#utility.yul\":4615:4616   */\n      dup1\n        /* \"#utility.yul\":4608:4620   */\n      revert\n        /* \"#utility.yul\":4559:4622   */\n    tag_96:\n        /* \"#utility.yul\":4506:4628   */\n      pop\n      jump\t// out\n\n    auxdata: 0xa26469706673582212200244dedac2bb367281f9a14193bdda1c44f1a766c923415a1eedc3b5e7ab847d64736f6c63430008070033\n}\n",
				"bytecode": {
					"linkReferences": {},
					"object": "608060405234801561001057600080fd5b5060646000803373ffffffffffffffffffffffffffffffffffffffff1673ffffffffffffffffffffffffffffffffffffffff1681526020019081526020016000208190555033600160006101000a81548173ffffffffffffffffffffffffffffffffffffffff021916908373ffffffffffffffffffffffffffffffffffffffff1602179055506104cb806100a56000396000f3fe608060405234801561001057600080fd5b50600436106100365760003560e01c8063412664ae1461003b57806397b2544f1461006b575b600080fd5b61005560048036038101906100509190610250565b61009b565b60405161006291906102d1565b60405180910390f35b61008560048036038101906100809190610223565b6101e1565b604051610092919061030c565b60405180910390f35b6000600160009054906101000a900473ffffffffffffffffffffffffffffffffffffffff1673ffffffffffffffffffffffffffffffffffffffff163373ffffffffffffffffffffffffffffffffffffffff161461012d576040517f08c379a0000000000000000000000000000000000000000000000000000000008152600401610124906102ec565b60405180910390fd5b816000803373ffffffffffffffffffffffffffffffffffffffff1673ffffffffffffffffffffffffffffffffffffffff168152602001908152602001600020600082825461017b919061038e565b92505081905550816000808573ffffffffffffffffffffffffffffffffffffffff1673ffffffffffffffffffffffffffffffffffffffff16815260200190815260200160002060008282546101d09190610338565b925050819055506001905092915050565b60006020528060005260406000206000915090505481565b60008135905061020881610467565b92915050565b60008135905061021d8161047e565b92915050565b60006020828403121561023957610238610439565b5b6000610247848285016101f9565b91505092915050565b6000806040838503121561026757610266610439565b5b6000610275858286016101f9565b92505060206102868582860161020e565b9150509250929050565b610299816103d4565b82525050565b60006102ac601583610327565b91506102b78261043e565b602082019050919050565b6102cb81610400565b82525050565b60006020820190506102e66000830184610290565b92915050565b600060208201905081810360008301526103058161029f565b9050919050565b600060208201905061032160008301846102c2565b92915050565b600082825260208201905092915050565b600061034382610400565b915061034e83610400565b9250827fffffffffffffffffffffffffffffffffffffffffffffffffffffffffffffffff038211156103835761038261040a565b5b828201905092915050565b600061039982610400565b91506103a483610400565b9250828210156103b7576103b661040a565b5b828203905092915050565b60006103cd826103e0565b9050919050565b60008115159050919050565b600073ffffffffffffffffffffffffffffffffffffffff82169050919050565b6000819050919050565b7f4e487b7100000000000000000000000000000000000000000000000000000000600052601160045260246000fd5b600080fd5b7f596f7520617265206e6f7420746865206f776e65720000000000000000000000600082015250565b610470816103c2565b811461047b57600080fd5b50565b61048781610400565b811461049257600080fd5b5056fea26469706673582212200244dedac2bb367281f9a14193bdda1c44f1a766c923415a1eedc3b5e7ab847d64736f6c63430008070033",
					"opcodes": "PUSH1 0x80 PUSH1 0x40 MSTORE CALLVALUE DUP1 ISZERO PUSH2 0x10 JUMPI PUSH1 0x0 DUP1 REVERT JUMPDEST POP PUSH1 0x64 PUSH1 0x0 DUP1 CALLER PUSH20 0xFFFFFFFFFFFFFFFFFFFFFFFFFFFFFFFFFFFFFFFF AND PUSH20 0xFFFFFFFFFFFFFFFFFFFFFFFFFFFFFFFFFFFFFFFF AND DUP2 MSTORE PUSH1 0x20 ADD SWAP1 DUP2 MSTORE PUSH1 0x20 ADD PUSH1 0x0 KECCAK256 DUP2 SWAP1 SSTORE POP CALLER PUSH1 0x1 PUSH1 0x0 PUSH2 0x100 EXP DUP2 SLOAD DUP2 PUSH20 0xFFFFFFFFFFFFFFFFFFFFFFFFFFFFFFFFFFFFFFFF MUL NOT AND SWAP1 DUP4 PUSH20 0xFFFFFFFFFFFFFFFFFFFFFFFFFFFFFFFFFFFFFFFF AND MUL OR SWAP1 SSTORE POP PUSH2 0x4CB DUP1 PUSH2 0xA5 PUSH1 0x0 CODECOPY PUSH1 0x0 RETURN INVALID PUSH1 0x80 PUSH1 0x40 MSTORE CALLVALUE DUP1 ISZERO PUSH2 0x10 JUMPI PUSH1 0x0 DUP1 REVERT JUMPDEST POP PUSH1 0x4 CALLDATASIZE LT PUSH2 0x36 JUMPI PUSH1 0x0 CALLDATALOAD PUSH1 0xE0 SHR DUP1 PUSH4 0x412664AE EQ PUSH2 0x3B JUMPI DUP1 PUSH4 0x97B2544F EQ PUSH2 0x6B JUMPI JUMPDEST PUSH1 0x0 DUP1 REVERT JUMPDEST PUSH2 0x55 PUSH1 0x4 DUP1 CALLDATASIZE SUB DUP2 ADD SWAP1 PUSH2 0x50 SWAP2 SWAP1 PUSH2 0x250 JUMP JUMPDEST PUSH2 0x9B JUMP JUMPDEST PUSH1 0x40 MLOAD PUSH2 0x62 SWAP2 SWAP1 PUSH2 0x2D1 JUMP JUMPDEST PUSH1 0x40 MLOAD DUP1 SWAP2 SUB SWAP1 RETURN JUMPDEST PUSH2 0x85 PUSH1 0x4 DUP1 CALLDATASIZE SUB DUP2 ADD SWAP1 PUSH2 0x80 SWAP2 SWAP1 PUSH2 0x223 JUMP JUMPDEST PUSH2 0x1E1 JUMP JUMPDEST PUSH1 0x40 MLOAD PUSH2 0x92 SWAP2 SWAP1 PUSH2 0x30C JUMP JUMPDEST PUSH1 0x40 MLOAD DUP1 SWAP2 SUB SWAP1 RETURN JUMPDEST PUSH1 0x0 PUSH1 0x1 PUSH1 0x0 SWAP1 SLOAD SWAP1 PUSH2 0x100 EXP SWAP1 DIV PUSH20 0xFFFFFFFFFFFFFFFFFFFFFFFFFFFFFFFFFFFFFFFF AND PUSH20 0xFFFFFFFFFFFFFFFFFFFFFFFFFFFFFFFFFFFFFFFF AND CALLER PUSH20 0xFFFFFFFFFFFFFFFFFFFFFFFFFFFFFFFFFFFFFFFF AND EQ PUSH2 0x12D JUMPI PUSH1 0x40 MLOAD PUSH32 0x8C379A000000000000000000000000000000000000000000000000000000000 DUP2 MSTORE PUSH1 0x4 ADD PUSH2 0x124 SWAP1 PUSH2 0x2EC JUMP JUMPDEST PUSH1 0x40 MLOAD DUP1 SWAP2 SUB SWAP1 REVERT JUMPDEST DUP2 PUSH1 0x0 DUP1 CALLER PUSH20 0xFFFFFFFFFFFFFFFFFFFFFFFFFFFFFFFFFFFFFFFF AND PUSH20 0xFFFFFFFFFFFFFFFFFFFFFFFFFFFFFFFFFFFFFFFF AND DUP2 MSTORE PUSH1 0x20 ADD SWAP1 DUP2 MSTORE PUSH1 0x20 ADD PUSH1 0x0 KECCAK256 PUSH1 0x0 DUP3 DUP3 SLOAD PUSH2 0x17B SWAP2 SWAP1 PUSH2 0x38E JUMP JUMPDEST SWAP3 POP POP DUP2 SWAP1 SSTORE POP DUP2 PUSH1 0x0 DUP1 DUP6 PUSH20 0xFFFFFFFFFFFFFFFFFFFFFFFFFFFFFFFFFFFFFFFF AND PUSH20 0xFFFFFFFFFFFFFFFFFFFFFFFFFFFFFFFFFFFFFFFF AND DUP2 MSTORE PUSH1 0x20 ADD SWAP1 DUP2 MSTORE PUSH1 0x20 ADD PUSH1 0x0 KECCAK256 PUSH1 0x0 DUP3 DUP3 SLOAD PUSH2 0x1D0 SWAP2 SWAP1 PUSH2 0x338 JUMP JUMPDEST SWAP3 POP POP DUP2 SWAP1 SSTORE POP PUSH1 0x1 SWAP1 POP SWAP3 SWAP2 POP POP JUMP JUMPDEST PUSH1 0x0 PUSH1 0x20 MSTORE DUP1 PUSH1 0x0 MSTORE PUSH1 0x40 PUSH1 0x0 KECCAK256 PUSH1 0x0 SWAP2 POP SWAP1 POP SLOAD DUP2 JUMP JUMPDEST PUSH1 0x0 DUP2 CALLDATALOAD SWAP1 POP PUSH2 0x208 DUP2 PUSH2 0x467 JUMP JUMPDEST SWAP3 SWAP2 POP POP JUMP JUMPDEST PUSH1 0x0 DUP2 CALLDATALOAD SWAP1 POP PUSH2 0x21D DUP2 PUSH2 0x47E JUMP JUMPDEST SWAP3 SWAP2 POP POP JUMP JUMPDEST PUSH1 0x0 PUSH1 0x20 DUP3 DUP5 SUB SLT ISZERO PUSH2 0x239 JUMPI PUSH2 0x238 PUSH2 0x439 JUMP JUMPDEST JUMPDEST PUSH1 0x0 PUSH2 0x247 DUP5 DUP3 DUP6 ADD PUSH2 0x1F9 JUMP JUMPDEST SWAP2 POP POP SWAP3 SWAP2 POP POP JUMP JUMPDEST PUSH1 0x0 DUP1 PUSH1 0x40 DUP4 DUP6 SUB SLT ISZERO PUSH2 0x267 JUMPI PUSH2 0x266 PUSH2 0x439 JUMP JUMPDEST JUMPDEST PUSH1 0x0 PUSH2 0x275 DUP6 DUP3 DUP7 ADD PUSH2 0x1F9 JUMP JUMPDEST SWAP3 POP POP PUSH1 0x20 PUSH2 0x286 DUP6 DUP3 DUP7 ADD PUSH2 0x20E JUMP JUMPDEST SWAP2 POP POP SWAP3 POP SWAP3 SWAP1 POP JUMP JUMPDEST PUSH2 0x299 DUP2 PUSH2 0x3D4 JUMP JUMPDEST DUP3 MSTORE POP POP JUMP JUMPDEST PUSH1 0x0 PUSH2 0x2AC PUSH1 0x15 DUP4 PUSH2 0x327 JUMP JUMPDEST SWAP2 POP PUSH2 0x2B7 DUP3 PUSH2 0x43E JUMP JUMPDEST PUSH1 0x20 DUP3 ADD SWAP1 POP SWAP2 SWAP1 POP JUMP JUMPDEST PUSH2 0x2CB DUP2 PUSH2 0x400 JUMP JUMPDEST DUP3 MSTORE POP POP JUMP JUMPDEST PUSH1 0x0 PUSH1 0x20 DUP3 ADD SWAP1 POP PUSH2 0x2E6 PUSH1 0x0 DUP4 ADD DUP5 PUSH2 0x290 JUMP JUMPDEST SWAP3 SWAP2 POP POP JUMP JUMPDEST PUSH1 0x0 PUSH1 0x20 DUP3 ADD SWAP1 POP DUP2 DUP2 SUB PUSH1 0x0 DUP4 ADD MSTORE PUSH2 0x305 DUP2 PUSH2 0x29F JUMP JUMPDEST SWAP1 POP SWAP2 SWAP1 POP JUMP JUMPDEST PUSH1 0x0 PUSH1 0x20 DUP3 ADD SWAP1 POP PUSH2 0x321 PUSH1 0x0 DUP4 ADD DUP5 PUSH2 0x2C2 JUMP JUMPDEST SWAP3 SWAP2 POP POP JUMP JUMPDEST PUSH1 0x0 DUP3 DUP3 MSTORE PUSH1 0x20 DUP3 ADD SWAP1 POP SWAP3 SWAP2 POP POP JUMP JUMPDEST PUSH1 0x0 PUSH2 0x343 DUP3 PUSH2 0x400 JUMP JUMPDEST SWAP2 POP PUSH2 0x34E DUP4 PUSH2 0x400 JUMP JUMPDEST SWAP3 POP DUP3 PUSH32 0xFFFFFFFFFFFFFFFFFFFFFFFFFFFFFFFFFFFFFFFFFFFFFFFFFFFFFFFFFFFFFFFF SUB DUP3 GT ISZERO PUSH2 0x383 JUMPI PUSH2 0x382 PUSH2 0x40A JUMP JUMPDEST JUMPDEST DUP3 DUP3 ADD SWAP1 POP SWAP3 SWAP2 POP POP JUMP JUMPDEST PUSH1 0x0 PUSH2 0x399 DUP3 PUSH2 0x400 JUMP JUMPDEST SWAP2 POP PUSH2 0x3A4 DUP4 PUSH2 0x400 JUMP JUMPDEST SWAP3 POP DUP3 DUP3 LT ISZERO PUSH2 0x3B7 JUMPI PUSH2 0x3B6 PUSH2 0x40A JUMP JUMPDEST JUMPDEST DUP3 DUP3 SUB SWAP1 POP SWAP3 SWAP2 POP POP JUMP JUMPDEST PUSH1 0x0 PUSH2 0x3CD DUP3 PUSH2 0x3E0 JUMP JUMPDEST SWAP1 POP SWAP2 SWAP1 POP JUMP JUMPDEST PUSH1 0x0 DUP2 ISZERO ISZERO SWAP1 POP SWAP2 SWAP1 POP JUMP JUMPDEST PUSH1 0x0 PUSH20 0xFFFFFFFFFFFFFFFFFFFFFFFFFFFFFFFFFFFFFFFF DUP3 AND SWAP1 POP SWAP2 SWAP1 POP JUMP JUMPDEST PUSH1 0x0 DUP2 SWAP1 POP SWAP2 SWAP1 POP JUMP JUMPDEST PUSH32 0x4E487B7100000000000000000000000000000000000000000000000000000000 PUSH1 0x0 MSTORE PUSH1 0x11 PUSH1 0x4 MSTORE PUSH1 0x24 PUSH1 0x0 REVERT JUMPDEST PUSH1 0x0 DUP1 REVERT JUMPDEST PUSH32 0x596F7520617265206E6F7420746865206F776E65720000000000000000000000 PUSH1 0x0 DUP3 ADD MSTORE POP JUMP JUMPDEST PUSH2 0x470 DUP2 PUSH2 0x3C2 JUMP JUMPDEST DUP2 EQ PUSH2 0x47B JUMPI PUSH1 0x0 DUP1 REVERT JUMPDEST POP JUMP JUMPDEST PUSH2 0x487 DUP2 PUSH2 0x400 JUMP JUMPDEST DUP2 EQ PUSH2 0x492 JUMPI PUSH1 0x0 DUP1 REVERT JUMPDEST POP JUMP INVALID LOG2 PUSH5 0x6970667358 0x22 SLT KECCAK256 MUL DIFFICULTY 0xDE 0xDA 0xC2 0xBB CALLDATASIZE PUSH19 0x81F9A14193BDDA1C44F1A766C923415A1EEDC3 0xB5 0xE7 0xAB DUP5 PUSH30 0x64736F6C6343000807003300000000000000000000000000000000000000 "
				},
				"gasEstimates": {
					"creation": {
						"codeDepositCost": "245400",
						"executionCost": "46756",
						"totalCost": "292156"
					},
					"external": {
						"sendToken(address,uint256)": "infinite",
						"tokenAvailable(address)": "2814"
					}
				},
				"methodIdentifiers": {
					"sendToken(address,uint256)": "412664ae",
					"tokenAvailable(address)": "97b2544f"
				}
			},
			"userdoc": {
				"kind": "user",
				"methods": {},
				"version": 1
			}
		}
	}
}