{
	"contract/SendMoneyExample.sol": {
		"SendMoney": {
			"abi": [
				{
					"inputs": [],
					"stateMutability": "nonpayable",
					"type": "constructor"
				},
				{
					"inputs": [],
					"name": "balanceAmount",
					"outputs": [
						{
							"internalType": "uint256",
							"name": "",
							"type": "uint256"
						}
					],
					"stateMutability": "view",
					"type": "function"
				},
				{
					"inputs": [],
					"name": "getBalance",
					"outputs": [
						{
							"internalType": "uint256",
							"name": "",
							"type": "uint256"
						}
					],
					"stateMutability": "view",
					"type": "function"
				},
				{
					"inputs": [],
					"name": "pauseContract",
					"outputs": [],
					"stateMutability": "view",
					"type": "function"
				},
				{
					"inputs": [],
					"name": "paused",
					"outputs": [
						{
							"internalType": "bool",
							"name": "",
							"type": "bool"
						}
					],
					"stateMutability": "view",
					"type": "function"
				},
				{
					"inputs": [],
					"name": "receiveMoney",
					"outputs": [],
					"stateMutability": "payable",
					"type": "function"
				},
				{
					"inputs": [],
					"name": "withdrawMoney",
					"outputs": [],
					"stateMutability": "nonpayable",
					"type": "function"
				},
				{
					"inputs": [
						{
							"internalType": "address payable",
							"name": "_to",
							"type": "address"
						}
					],
					"name": "withdrawMoneyTo",
					"outputs": [],
					"stateMutability": "nonpayable",
					"type": "function"
				}
			],
			"devdoc": {
				"kind": "dev",
				"methods": {},
				"version": 1
			},
			"evm": {
				"assembly": "    /* \"contract/SendMoneyExample.sol\":60:950  contract SendMoney {\r... */\n  mstore(0x40, 0x80)\n    /* \"contract/SendMoneyExample.sol\":167:225  constructor() public {\r... */\n  callvalue\n  dup1\n  iszero\n  tag_1\n  jumpi\n  0x00\n  dup1\n  revert\ntag_1:\n  pop\n    /* \"contract/SendMoneyExample.sol\":207:217  msg.sender */\n  caller\n    /* \"contract/SendMoneyExample.sol\":199:204  owner */\n  0x01\n  dup1\n    /* \"contract/SendMoneyExample.sol\":199:217  owner = msg.sender */\n  0x0100\n  exp\n  dup2\n  sload\n  dup2\n  0xffffffffffffffffffffffffffffffffffffffff\n  mul\n  not\n  and\n  swap1\n  dup4\n  0xffffffffffffffffffffffffffffffffffffffff\n  and\n  mul\n  or\n  swap1\n  sstore\n  pop\n    /* \"contract/SendMoneyExample.sol\":60:950  contract SendMoney {\r... */\n  dataSize(sub_0)\n  dup1\n  dataOffset(sub_0)\n  0x00\n  codecopy\n  0x00\n  return\nstop\n\nsub_0: assembly {\n        /* \"contract/SendMoneyExample.sol\":60:950  contract SendMoney {\r... */\n      mstore(0x40, 0x80)\n      jumpi(tag_1, lt(calldatasize, 0x04))\n      shr(0xe0, calldataload(0x00))\n      dup1\n      0x5c975abb\n      gt\n      tag_9\n      jumpi\n      dup1\n      0x5c975abb\n      eq\n      tag_5\n      jumpi\n      dup1\n      0x6d26ec18\n      eq\n      tag_6\n      jumpi\n      dup1\n      0xac446002\n      eq\n      tag_7\n      jumpi\n      dup1\n      0xff7fe4aa\n      eq\n      tag_8\n      jumpi\n      jump(tag_1)\n    tag_9:\n      dup1\n      0x0ff8d8a5\n      eq\n      tag_2\n      jumpi\n      dup1\n      0x12065fe0\n      eq\n      tag_3\n      jumpi\n      dup1\n      0x439766ce\n      eq\n      tag_4\n      jumpi\n    tag_1:\n      0x00\n      dup1\n      revert\n        /* \"contract/SendMoneyExample.sol\":676:779  function withdrawMoneyTo(address payable _to) public {\r... */\n    tag_2:\n      callvalue\n      dup1\n      iszero\n      tag_10\n      jumpi\n      0x00\n      dup1\n      revert\n    tag_10:\n      pop\n      tag_11\n      0x04\n      dup1\n      calldatasize\n      sub\n      dup2\n      add\n      swap1\n      tag_12\n      swap2\n      swap1\n      tag_13\n      jump\t// in\n    tag_12:\n      tag_14\n      jump\t// in\n    tag_11:\n      stop\n        /* \"contract/SendMoneyExample.sol\":573:668  function getBalance() public view returns(uint) {\r... */\n    tag_3:\n      callvalue\n      dup1\n      iszero\n      tag_15\n      jumpi\n      0x00\n      dup1\n      revert\n    tag_15:\n      pop\n      tag_16\n      tag_17\n      jump\t// in\n    tag_16:\n      mload(0x40)\n      tag_18\n      swap2\n      swap1\n      tag_19\n      jump\t// in\n    tag_18:\n      mload(0x40)\n      dup1\n      swap2\n      sub\n      swap1\n      return\n        /* \"contract/SendMoneyExample.sol\":787:945  function pauseContract() public view {\r... */\n    tag_4:\n      callvalue\n      dup1\n      iszero\n      tag_20\n      jumpi\n      0x00\n      dup1\n      revert\n    tag_20:\n      pop\n      tag_21\n      tag_22\n      jump\t// in\n    tag_21:\n      stop\n        /* \"contract/SendMoneyExample.sol\":118:136  bool public paused */\n    tag_5:\n      callvalue\n      dup1\n      iszero\n      tag_23\n      jumpi\n      0x00\n      dup1\n      revert\n    tag_23:\n      pop\n      tag_24\n      tag_25\n      jump\t// in\n    tag_24:\n      mload(0x40)\n      tag_26\n      swap2\n      swap1\n      tag_27\n      jump\t// in\n    tag_26:\n      mload(0x40)\n      dup1\n      swap2\n      sub\n      swap1\n      return\n        /* \"contract/SendMoneyExample.sol\":301:385  function receiveMoney() public payable {\r... */\n    tag_6:\n      tag_28\n      tag_29\n      jump\t// in\n    tag_28:\n      stop\n        /* \"contract/SendMoneyExample.sol\":393:525  function withdrawMoney() public {\r... */\n    tag_7:\n      callvalue\n      dup1\n      iszero\n      tag_30\n      jumpi\n      0x00\n      dup1\n      revert\n    tag_30:\n      pop\n      tag_31\n      tag_32\n      jump\t// in\n    tag_31:\n      stop\n        /* \"contract/SendMoneyExample.sol\":86:111  uint public balanceAmount */\n    tag_8:\n      callvalue\n      dup1\n      iszero\n      tag_33\n      jumpi\n      0x00\n      dup1\n      revert\n    tag_33:\n      pop\n      tag_34\n      tag_35\n      jump\t// in\n    tag_34:\n      mload(0x40)\n      tag_36\n      swap2\n      swap1\n      tag_19\n      jump\t// in\n    tag_36:\n      mload(0x40)\n      dup1\n      swap2\n      sub\n      swap1\n      return\n        /* \"contract/SendMoneyExample.sol\":676:779  function withdrawMoneyTo(address payable _to) public {\r... */\n    tag_14:\n        /* \"contract/SendMoneyExample.sol\":740:743  _to */\n      dup1\n        /* \"contract/SendMoneyExample.sol\":740:752  _to.transfer */\n      0xffffffffffffffffffffffffffffffffffffffff\n      and\n        /* \"contract/SendMoneyExample.sol\":740:771  _to.transfer(this.getBalance()) */\n      0x08fc\n        /* \"contract/SendMoneyExample.sol\":753:757  this */\n      address\n        /* \"contract/SendMoneyExample.sol\":753:768  this.getBalance */\n      0xffffffffffffffffffffffffffffffffffffffff\n      and\n      0x12065fe0\n        /* \"contract/SendMoneyExample.sol\":753:770  this.getBalance() */\n      mload(0x40)\n      dup2\n      0xffffffff\n      and\n      0xe0\n      shl\n      dup2\n      mstore\n      0x04\n      add\n      0x20\n      mload(0x40)\n      dup1\n      dup4\n      sub\n      dup2\n      dup7\n      dup1\n      extcodesize\n      iszero\n      dup1\n      iszero\n      tag_38\n      jumpi\n      0x00\n      dup1\n      revert\n    tag_38:\n      pop\n      gas\n      staticcall\n      iszero\n      dup1\n      iszero\n      tag_40\n      jumpi\n      returndatasize\n      0x00\n      dup1\n      returndatacopy\n      revert(0x00, returndatasize)\n    tag_40:\n      pop\n      pop\n      pop\n      pop\n      mload(0x40)\n      returndatasize\n      not(0x1f)\n      0x1f\n      dup3\n      add\n      and\n      dup3\n      add\n      dup1\n      0x40\n      mstore\n      pop\n      dup2\n      add\n      swap1\n      tag_41\n      swap2\n      swap1\n      tag_42\n      jump\t// in\n    tag_41:\n        /* \"contract/SendMoneyExample.sol\":740:771  _to.transfer(this.getBalance()) */\n      swap1\n      dup2\n      iszero\n      mul\n      swap1\n      mload(0x40)\n      0x00\n      mload(0x40)\n      dup1\n      dup4\n      sub\n      dup2\n      dup6\n      dup9\n      dup9\n      call\n      swap4\n      pop\n      pop\n      pop\n      pop\n      iszero\n      dup1\n      iszero\n      tag_44\n      jumpi\n      returndatasize\n      0x00\n      dup1\n      returndatacopy\n      revert(0x00, returndatasize)\n    tag_44:\n      pop\n        /* \"contract/SendMoneyExample.sol\":676:779  function withdrawMoneyTo(address payable _to) public {\r... */\n      pop\n      jump\t// out\n        /* \"contract/SendMoneyExample.sol\":573:668  function getBalance() public view returns(uint) {\r... */\n    tag_17:\n        /* \"contract/SendMoneyExample.sol\":615:619  uint */\n      0x00\n        /* \"contract/SendMoneyExample.sol\":639:660  address(this).balance */\n      selfbalance\n        /* \"contract/SendMoneyExample.sol\":632:660  return address(this).balance */\n      swap1\n      pop\n        /* \"contract/SendMoneyExample.sol\":573:668  function getBalance() public view returns(uint) {\r... */\n      swap1\n      jump\t// out\n        /* \"contract/SendMoneyExample.sol\":787:945  function pauseContract() public view {\r... */\n    tag_22:\n        /* \"contract/SendMoneyExample.sol\":857:862  owner */\n      0x01\n      dup1\n      sload\n      swap1\n      0x0100\n      exp\n      swap1\n      div\n      0xffffffffffffffffffffffffffffffffffffffff\n      and\n        /* \"contract/SendMoneyExample.sol\":843:862  msg.sender == owner */\n      0xffffffffffffffffffffffffffffffffffffffff\n      and\n        /* \"contract/SendMoneyExample.sol\":843:853  msg.sender */\n      caller\n        /* \"contract/SendMoneyExample.sol\":843:862  msg.sender == owner */\n      0xffffffffffffffffffffffffffffffffffffffff\n      and\n      eq\n        /* \"contract/SendMoneyExample.sol\":835:888  require(msg.sender == owner, \"You are not the owner\") */\n      tag_47\n      jumpi\n      mload(0x40)\n      0x08c379a000000000000000000000000000000000000000000000000000000000\n      dup2\n      mstore\n      0x04\n      add\n      tag_48\n      swap1\n      tag_49\n      jump\t// in\n    tag_48:\n      mload(0x40)\n      dup1\n      swap2\n      sub\n      swap1\n      revert\n    tag_47:\n        /* \"contract/SendMoneyExample.sol\":908:914  paused */\n      0x01\n      0x00\n      swap1\n      sload\n      swap1\n      0x0100\n      exp\n      swap1\n      div\n      0xff\n      and\n        /* \"contract/SendMoneyExample.sol\":907:914  !paused */\n      iszero\n        /* \"contract/SendMoneyExample.sol\":899:937  require(!paused, \"Contract is paused\") */\n      tag_50\n      jumpi\n      mload(0x40)\n      0x08c379a000000000000000000000000000000000000000000000000000000000\n      dup2\n      mstore\n      0x04\n      add\n      tag_51\n      swap1\n      tag_52\n      jump\t// in\n    tag_51:\n      mload(0x40)\n      dup1\n      swap2\n      sub\n      swap1\n      revert\n    tag_50:\n        /* \"contract/SendMoneyExample.sol\":787:945  function pauseContract() public view {\r... */\n      jump\t// out\n        /* \"contract/SendMoneyExample.sol\":118:136  bool public paused */\n    tag_25:\n      0x01\n      0x00\n      swap1\n      sload\n      swap1\n      0x0100\n      exp\n      swap1\n      div\n      0xff\n      and\n      dup2\n      jump\t// out\n        /* \"contract/SendMoneyExample.sol\":301:385  function receiveMoney() public payable {\r... */\n    tag_29:\n        /* \"contract/SendMoneyExample.sol\":368:377  msg.value */\n      callvalue\n        /* \"contract/SendMoneyExample.sol\":351:364  balanceAmount */\n      0x00\n      dup1\n        /* \"contract/SendMoneyExample.sol\":351:377  balanceAmount += msg.value */\n      dup3\n      dup3\n      sload\n      tag_54\n      swap2\n      swap1\n      tag_55\n      jump\t// in\n    tag_54:\n      swap3\n      pop\n      pop\n      dup2\n      swap1\n      sstore\n      pop\n        /* \"contract/SendMoneyExample.sol\":301:385  function receiveMoney() public payable {\r... */\n      jump\t// out\n        /* \"contract/SendMoneyExample.sol\":393:525  function withdrawMoney() public {\r... */\n    tag_32:\n        /* \"contract/SendMoneyExample.sol\":436:454  address payable to */\n      0x00\n        /* \"contract/SendMoneyExample.sol\":465:475  msg.sender */\n      caller\n        /* \"contract/SendMoneyExample.sol\":436:476  address payable to = payable(msg.sender) */\n      swap1\n      pop\n        /* \"contract/SendMoneyExample.sol\":487:489  to */\n      dup1\n        /* \"contract/SendMoneyExample.sol\":487:498  to.transfer */\n      0xffffffffffffffffffffffffffffffffffffffff\n      and\n        /* \"contract/SendMoneyExample.sol\":487:517  to.transfer(this.getBalance()) */\n      0x08fc\n        /* \"contract/SendMoneyExample.sol\":499:503  this */\n      address\n        /* \"contract/SendMoneyExample.sol\":499:514  this.getBalance */\n      0xffffffffffffffffffffffffffffffffffffffff\n      and\n      0x12065fe0\n        /* \"contract/SendMoneyExample.sol\":499:516  this.getBalance() */\n      mload(0x40)\n      dup2\n      0xffffffff\n      and\n      0xe0\n      shl\n      dup2\n      mstore\n      0x04\n      add\n      0x20\n      mload(0x40)\n      dup1\n      dup4\n      sub\n      dup2\n      dup7\n      dup1\n      extcodesize\n      iszero\n      dup1\n      iszero\n      tag_57\n      jumpi\n      0x00\n      dup1\n      revert\n    tag_57:\n      pop\n      gas\n      staticcall\n      iszero\n      dup1\n      iszero\n      tag_59\n      jumpi\n      returndatasize\n      0x00\n      dup1\n      returndatacopy\n      revert(0x00, returndatasize)\n    tag_59:\n      pop\n      pop\n      pop\n      pop\n      mload(0x40)\n      returndatasize\n      not(0x1f)\n      0x1f\n      dup3\n      add\n      and\n      dup3\n      add\n      dup1\n      0x40\n      mstore\n      pop\n      dup2\n      add\n      swap1\n      tag_60\n      swap2\n      swap1\n      tag_42\n      jump\t// in\n    tag_60:\n        /* \"contract/SendMoneyExample.sol\":487:517  to.transfer(this.getBalance()) */\n      swap1\n      dup2\n      iszero\n      mul\n      swap1\n      mload(0x40)\n      0x00\n      mload(0x40)\n      dup1\n      dup4\n      sub\n      dup2\n      dup6\n      dup9\n      dup9\n      call\n      swap4\n      pop\n      pop\n      pop\n      pop\n      iszero\n      dup1\n      iszero\n      tag_62\n      jumpi\n      returndatasize\n      0x00\n      dup1\n      returndatacopy\n      revert(0x00, returndatasize)\n    tag_62:\n      pop\n        /* \"contract/SendMoneyExample.sol\":425:525  {\r... */\n      pop\n        /* \"contract/SendMoneyExample.sol\":393:525  function withdrawMoney() public {\r... */\n      jump\t// out\n        /* \"contract/SendMoneyExample.sol\":86:111  uint public balanceAmount */\n    tag_35:\n      sload(0x00)\n      dup2\n      jump\t// out\n        /* \"#utility.yul\":7:162   */\n    tag_64:\n        /* \"#utility.yul\":61:66   */\n      0x00\n        /* \"#utility.yul\":99:105   */\n      dup2\n        /* \"#utility.yul\":86:106   */\n      calldataload\n        /* \"#utility.yul\":77:106   */\n      swap1\n      pop\n        /* \"#utility.yul\":115:156   */\n      tag_66\n        /* \"#utility.yul\":150:155   */\n      dup2\n        /* \"#utility.yul\":115:156   */\n      tag_67\n      jump\t// in\n    tag_66:\n        /* \"#utility.yul\":7:162   */\n      swap3\n      swap2\n      pop\n      pop\n      jump\t// out\n        /* \"#utility.yul\":168:311   */\n    tag_68:\n        /* \"#utility.yul\":225:230   */\n      0x00\n        /* \"#utility.yul\":256:262   */\n      dup2\n        /* \"#utility.yul\":250:263   */\n      mload\n        /* \"#utility.yul\":241:263   */\n      swap1\n      pop\n        /* \"#utility.yul\":272:305   */\n      tag_70\n        /* \"#utility.yul\":299:304   */\n      dup2\n        /* \"#utility.yul\":272:305   */\n      tag_71\n      jump\t// in\n    tag_70:\n        /* \"#utility.yul\":168:311   */\n      swap3\n      swap2\n      pop\n      pop\n      jump\t// out\n        /* \"#utility.yul\":317:662   */\n    tag_13:\n        /* \"#utility.yul\":384:390   */\n      0x00\n        /* \"#utility.yul\":433:435   */\n      0x20\n        /* \"#utility.yul\":421:430   */\n      dup3\n        /* \"#utility.yul\":412:419   */\n      dup5\n        /* \"#utility.yul\":408:431   */\n      sub\n        /* \"#utility.yul\":404:436   */\n      slt\n        /* \"#utility.yul\":401:520   */\n      iszero\n      tag_73\n      jumpi\n        /* \"#utility.yul\":439:518   */\n      tag_74\n      tag_75\n      jump\t// in\n    tag_74:\n        /* \"#utility.yul\":401:520   */\n    tag_73:\n        /* \"#utility.yul\":559:560   */\n      0x00\n        /* \"#utility.yul\":584:645   */\n      tag_76\n        /* \"#utility.yul\":637:644   */\n      dup5\n        /* \"#utility.yul\":628:634   */\n      dup3\n        /* \"#utility.yul\":617:626   */\n      dup6\n        /* \"#utility.yul\":613:635   */\n      add\n        /* \"#utility.yul\":584:645   */\n      tag_64\n      jump\t// in\n    tag_76:\n        /* \"#utility.yul\":574:645   */\n      swap2\n      pop\n        /* \"#utility.yul\":530:655   */\n      pop\n        /* \"#utility.yul\":317:662   */\n      swap3\n      swap2\n      pop\n      pop\n      jump\t// out\n        /* \"#utility.yul\":668:1019   */\n    tag_42:\n        /* \"#utility.yul\":738:744   */\n      0x00\n        /* \"#utility.yul\":787:789   */\n      0x20\n        /* \"#utility.yul\":775:784   */\n      dup3\n        /* \"#utility.yul\":766:773   */\n      dup5\n        /* \"#utility.yul\":762:785   */\n      sub\n        /* \"#utility.yul\":758:790   */\n      slt\n        /* \"#utility.yul\":755:874   */\n      iszero\n      tag_78\n      jumpi\n        /* \"#utility.yul\":793:872   */\n      tag_79\n      tag_75\n      jump\t// in\n    tag_79:\n        /* \"#utility.yul\":755:874   */\n    tag_78:\n        /* \"#utility.yul\":913:914   */\n      0x00\n        /* \"#utility.yul\":938:1002   */\n      tag_80\n        /* \"#utility.yul\":994:1001   */\n      dup5\n        /* \"#utility.yul\":985:991   */\n      dup3\n        /* \"#utility.yul\":974:983   */\n      dup6\n        /* \"#utility.yul\":970:992   */\n      add\n        /* \"#utility.yul\":938:1002   */\n      tag_68\n      jump\t// in\n    tag_80:\n        /* \"#utility.yul\":928:1002   */\n      swap2\n      pop\n        /* \"#utility.yul\":884:1012   */\n      pop\n        /* \"#utility.yul\":668:1019   */\n      swap3\n      swap2\n      pop\n      pop\n      jump\t// out\n        /* \"#utility.yul\":1025:1134   */\n    tag_81:\n        /* \"#utility.yul\":1106:1127   */\n      tag_83\n        /* \"#utility.yul\":1121:1126   */\n      dup2\n        /* \"#utility.yul\":1106:1127   */\n      tag_84\n      jump\t// in\n    tag_83:\n        /* \"#utility.yul\":1101:1104   */\n      dup3\n        /* \"#utility.yul\":1094:1128   */\n      mstore\n        /* \"#utility.yul\":1025:1134   */\n      pop\n      pop\n      jump\t// out\n        /* \"#utility.yul\":1140:1506   */\n    tag_85:\n        /* \"#utility.yul\":1282:1285   */\n      0x00\n        /* \"#utility.yul\":1303:1370   */\n      tag_87\n        /* \"#utility.yul\":1367:1369   */\n      0x15\n        /* \"#utility.yul\":1362:1365   */\n      dup4\n        /* \"#utility.yul\":1303:1370   */\n      tag_88\n      jump\t// in\n    tag_87:\n        /* \"#utility.yul\":1296:1370   */\n      swap2\n      pop\n        /* \"#utility.yul\":1379:1472   */\n      tag_89\n        /* \"#utility.yul\":1468:1471   */\n      dup3\n        /* \"#utility.yul\":1379:1472   */\n      tag_90\n      jump\t// in\n    tag_89:\n        /* \"#utility.yul\":1497:1499   */\n      0x20\n        /* \"#utility.yul\":1492:1495   */\n      dup3\n        /* \"#utility.yul\":1488:1500   */\n      add\n        /* \"#utility.yul\":1481:1500   */\n      swap1\n      pop\n        /* \"#utility.yul\":1140:1506   */\n      swap2\n      swap1\n      pop\n      jump\t// out\n        /* \"#utility.yul\":1512:1878   */\n    tag_91:\n        /* \"#utility.yul\":1654:1657   */\n      0x00\n        /* \"#utility.yul\":1675:1742   */\n      tag_93\n        /* \"#utility.yul\":1739:1741   */\n      0x12\n        /* \"#utility.yul\":1734:1737   */\n      dup4\n        /* \"#utility.yul\":1675:1742   */\n      tag_88\n      jump\t// in\n    tag_93:\n        /* \"#utility.yul\":1668:1742   */\n      swap2\n      pop\n        /* \"#utility.yul\":1751:1844   */\n      tag_94\n        /* \"#utility.yul\":1840:1843   */\n      dup3\n        /* \"#utility.yul\":1751:1844   */\n      tag_95\n      jump\t// in\n    tag_94:\n        /* \"#utility.yul\":1869:1871   */\n      0x20\n        /* \"#utility.yul\":1864:1867   */\n      dup3\n        /* \"#utility.yul\":1860:1872   */\n      add\n        /* \"#utility.yul\":1853:1872   */\n      swap1\n      pop\n        /* \"#utility.yul\":1512:1878   */\n      swap2\n      swap1\n      pop\n      jump\t// out\n        /* \"#utility.yul\":1884:2002   */\n    tag_96:\n        /* \"#utility.yul\":1971:1995   */\n      tag_98\n        /* \"#utility.yul\":1989:1994   */\n      dup2\n        /* \"#utility.yul\":1971:1995   */\n      tag_99\n      jump\t// in\n    tag_98:\n        /* \"#utility.yul\":1966:1969   */\n      dup3\n        /* \"#utility.yul\":1959:1996   */\n      mstore\n        /* \"#utility.yul\":1884:2002   */\n      pop\n      pop\n      jump\t// out\n        /* \"#utility.yul\":2008:2218   */\n    tag_27:\n        /* \"#utility.yul\":2095:2099   */\n      0x00\n        /* \"#utility.yul\":2133:2135   */\n      0x20\n        /* \"#utility.yul\":2122:2131   */\n      dup3\n        /* \"#utility.yul\":2118:2136   */\n      add\n        /* \"#utility.yul\":2110:2136   */\n      swap1\n      pop\n        /* \"#utility.yul\":2146:2211   */\n      tag_101\n        /* \"#utility.yul\":2208:2209   */\n      0x00\n        /* \"#utility.yul\":2197:2206   */\n      dup4\n        /* \"#utility.yul\":2193:2210   */\n      add\n        /* \"#utility.yul\":2184:2190   */\n      dup5\n        /* \"#utility.yul\":2146:2211   */\n      tag_81\n      jump\t// in\n    tag_101:\n        /* \"#utility.yul\":2008:2218   */\n      swap3\n      swap2\n      pop\n      pop\n      jump\t// out\n        /* \"#utility.yul\":2224:2643   */\n    tag_49:\n        /* \"#utility.yul\":2390:2394   */\n      0x00\n        /* \"#utility.yul\":2428:2430   */\n      0x20\n        /* \"#utility.yul\":2417:2426   */\n      dup3\n        /* \"#utility.yul\":2413:2431   */\n      add\n        /* \"#utility.yul\":2405:2431   */\n      swap1\n      pop\n        /* \"#utility.yul\":2477:2486   */\n      dup2\n        /* \"#utility.yul\":2471:2475   */\n      dup2\n        /* \"#utility.yul\":2467:2487   */\n      sub\n        /* \"#utility.yul\":2463:2464   */\n      0x00\n        /* \"#utility.yul\":2452:2461   */\n      dup4\n        /* \"#utility.yul\":2448:2465   */\n      add\n        /* \"#utility.yul\":2441:2488   */\n      mstore\n        /* \"#utility.yul\":2505:2636   */\n      tag_103\n        /* \"#utility.yul\":2631:2635   */\n      dup2\n        /* \"#utility.yul\":2505:2636   */\n      tag_85\n      jump\t// in\n    tag_103:\n        /* \"#utility.yul\":2497:2636   */\n      swap1\n      pop\n        /* \"#utility.yul\":2224:2643   */\n      swap2\n      swap1\n      pop\n      jump\t// out\n        /* \"#utility.yul\":2649:3068   */\n    tag_52:\n        /* \"#utility.yul\":2815:2819   */\n      0x00\n        /* \"#utility.yul\":2853:2855   */\n      0x20\n        /* \"#utility.yul\":2842:2851   */\n      dup3\n        /* \"#utility.yul\":2838:2856   */\n      add\n        /* \"#utility.yul\":2830:2856   */\n      swap1\n      pop\n        /* \"#utility.yul\":2902:2911   */\n      dup2\n        /* \"#utility.yul\":2896:2900   */\n      dup2\n        /* \"#utility.yul\":2892:2912   */\n      sub\n        /* \"#utility.yul\":2888:2889   */\n      0x00\n        /* \"#utility.yul\":2877:2886   */\n      dup4\n        /* \"#utility.yul\":2873:2890   */\n      add\n        /* \"#utility.yul\":2866:2913   */\n      mstore\n        /* \"#utility.yul\":2930:3061   */\n      tag_105\n        /* \"#utility.yul\":3056:3060   */\n      dup2\n        /* \"#utility.yul\":2930:3061   */\n      tag_91\n      jump\t// in\n    tag_105:\n        /* \"#utility.yul\":2922:3061   */\n      swap1\n      pop\n        /* \"#utility.yul\":2649:3068   */\n      swap2\n      swap1\n      pop\n      jump\t// out\n        /* \"#utility.yul\":3074:3296   */\n    tag_19:\n        /* \"#utility.yul\":3167:3171   */\n      0x00\n        /* \"#utility.yul\":3205:3207   */\n      0x20\n        /* \"#utility.yul\":3194:3203   */\n      dup3\n        /* \"#utility.yul\":3190:3208   */\n      add\n        /* \"#utility.yul\":3182:3208   */\n      swap1\n      pop\n        /* \"#utility.yul\":3218:3289   */\n      tag_107\n        /* \"#utility.yul\":3286:3287   */\n      0x00\n        /* \"#utility.yul\":3275:3284   */\n      dup4\n        /* \"#utility.yul\":3271:3288   */\n      add\n        /* \"#utility.yul\":3262:3268   */\n      dup5\n        /* \"#utility.yul\":3218:3289   */\n      tag_96\n      jump\t// in\n    tag_107:\n        /* \"#utility.yul\":3074:3296   */\n      swap3\n      swap2\n      pop\n      pop\n      jump\t// out\n        /* \"#utility.yul\":3383:3552   */\n    tag_88:\n        /* \"#utility.yul\":3467:3478   */\n      0x00\n        /* \"#utility.yul\":3501:3507   */\n      dup3\n        /* \"#utility.yul\":3496:3499   */\n      dup3\n        /* \"#utility.yul\":3489:3508   */\n      mstore\n        /* \"#utility.yul\":3541:3545   */\n      0x20\n        /* \"#utility.yul\":3536:3539   */\n      dup3\n        /* \"#utility.yul\":3532:3546   */\n      add\n        /* \"#utility.yul\":3517:3546   */\n      swap1\n      pop\n        /* \"#utility.yul\":3383:3552   */\n      swap3\n      swap2\n      pop\n      pop\n      jump\t// out\n        /* \"#utility.yul\":3558:3863   */\n    tag_55:\n        /* \"#utility.yul\":3598:3601   */\n      0x00\n        /* \"#utility.yul\":3617:3637   */\n      tag_112\n        /* \"#utility.yul\":3635:3636   */\n      dup3\n        /* \"#utility.yul\":3617:3637   */\n      tag_99\n      jump\t// in\n    tag_112:\n        /* \"#utility.yul\":3612:3637   */\n      swap2\n      pop\n        /* \"#utility.yul\":3651:3671   */\n      tag_113\n        /* \"#utility.yul\":3669:3670   */\n      dup4\n        /* \"#utility.yul\":3651:3671   */\n      tag_99\n      jump\t// in\n    tag_113:\n        /* \"#utility.yul\":3646:3671   */\n      swap3\n      pop\n        /* \"#utility.yul\":3805:3806   */\n      dup3\n        /* \"#utility.yul\":3737:3803   */\n      0xffffffffffffffffffffffffffffffffffffffffffffffffffffffffffffffff\n        /* \"#utility.yul\":3733:3807   */\n      sub\n        /* \"#utility.yul\":3730:3731   */\n      dup3\n        /* \"#utility.yul\":3727:3808   */\n      gt\n        /* \"#utility.yul\":3724:3831   */\n      iszero\n      tag_114\n      jumpi\n        /* \"#utility.yul\":3811:3829   */\n      tag_115\n      tag_116\n      jump\t// in\n    tag_115:\n        /* \"#utility.yul\":3724:3831   */\n    tag_114:\n        /* \"#utility.yul\":3855:3856   */\n      dup3\n        /* \"#utility.yul\":3852:3853   */\n      dup3\n        /* \"#utility.yul\":3848:3857   */\n      add\n        /* \"#utility.yul\":3841:3857   */\n      swap1\n      pop\n        /* \"#utility.yul\":3558:3863   */\n      swap3\n      swap2\n      pop\n      pop\n      jump\t// out\n        /* \"#utility.yul\":3869:3973   */\n    tag_117:\n        /* \"#utility.yul\":3914:3921   */\n      0x00\n        /* \"#utility.yul\":3943:3967   */\n      tag_119\n        /* \"#utility.yul\":3961:3966   */\n      dup3\n        /* \"#utility.yul\":3943:3967   */\n      tag_120\n      jump\t// in\n    tag_119:\n        /* \"#utility.yul\":3932:3967   */\n      swap1\n      pop\n        /* \"#utility.yul\":3869:3973   */\n      swap2\n      swap1\n      pop\n      jump\t// out\n        /* \"#utility.yul\":3979:4069   */\n    tag_84:\n        /* \"#utility.yul\":4013:4020   */\n      0x00\n        /* \"#utility.yul\":4056:4061   */\n      dup2\n        /* \"#utility.yul\":4049:4062   */\n      iszero\n        /* \"#utility.yul\":4042:4063   */\n      iszero\n        /* \"#utility.yul\":4031:4063   */\n      swap1\n      pop\n        /* \"#utility.yul\":3979:4069   */\n      swap2\n      swap1\n      pop\n      jump\t// out\n        /* \"#utility.yul\":4075:4201   */\n    tag_120:\n        /* \"#utility.yul\":4112:4119   */\n      0x00\n        /* \"#utility.yul\":4152:4194   */\n      0xffffffffffffffffffffffffffffffffffffffff\n        /* \"#utility.yul\":4145:4150   */\n      dup3\n        /* \"#utility.yul\":4141:4195   */\n      and\n        /* \"#utility.yul\":4130:4195   */\n      swap1\n      pop\n        /* \"#utility.yul\":4075:4201   */\n      swap2\n      swap1\n      pop\n      jump\t// out\n        /* \"#utility.yul\":4207:4284   */\n    tag_99:\n        /* \"#utility.yul\":4244:4251   */\n      0x00\n        /* \"#utility.yul\":4273:4278   */\n      dup2\n        /* \"#utility.yul\":4262:4278   */\n      swap1\n      pop\n        /* \"#utility.yul\":4207:4284   */\n      swap2\n      swap1\n      pop\n      jump\t// out\n        /* \"#utility.yul\":4290:4470   */\n    tag_116:\n        /* \"#utility.yul\":4338:4415   */\n      0x4e487b7100000000000000000000000000000000000000000000000000000000\n        /* \"#utility.yul\":4335:4336   */\n      0x00\n        /* \"#utility.yul\":4328:4416   */\n      mstore\n        /* \"#utility.yul\":4435:4439   */\n      0x11\n        /* \"#utility.yul\":4432:4433   */\n      0x04\n        /* \"#utility.yul\":4425:4440   */\n      mstore\n        /* \"#utility.yul\":4459:4463   */\n      0x24\n        /* \"#utility.yul\":4456:4457   */\n      0x00\n        /* \"#utility.yul\":4449:4464   */\n      revert\n        /* \"#utility.yul\":4599:4716   */\n    tag_75:\n        /* \"#utility.yul\":4708:4709   */\n      0x00\n        /* \"#utility.yul\":4705:4706   */\n      dup1\n        /* \"#utility.yul\":4698:4710   */\n      revert\n        /* \"#utility.yul\":4722:4893   */\n    tag_90:\n        /* \"#utility.yul\":4862:4885   */\n      0x596f7520617265206e6f7420746865206f776e65720000000000000000000000\n        /* \"#utility.yul\":4858:4859   */\n      0x00\n        /* \"#utility.yul\":4850:4856   */\n      dup3\n        /* \"#utility.yul\":4846:4860   */\n      add\n        /* \"#utility.yul\":4839:4886   */\n      mstore\n        /* \"#utility.yul\":4722:4893   */\n      pop\n      jump\t// out\n        /* \"#utility.yul\":4899:5067   */\n    tag_95:\n        /* \"#utility.yul\":5039:5059   */\n      0x436f6e7472616374206973207061757365640000000000000000000000000000\n        /* \"#utility.yul\":5035:5036   */\n      0x00\n        /* \"#utility.yul\":5027:5033   */\n      dup3\n        /* \"#utility.yul\":5023:5037   */\n      add\n        /* \"#utility.yul\":5016:5060   */\n      mstore\n        /* \"#utility.yul\":4899:5067   */\n      pop\n      jump\t// out\n        /* \"#utility.yul\":5073:5211   */\n    tag_67:\n        /* \"#utility.yul\":5154:5186   */\n      tag_131\n        /* \"#utility.yul\":5180:5185   */\n      dup2\n        /* \"#utility.yul\":5154:5186   */\n      tag_117\n      jump\t// in\n    tag_131:\n        /* \"#utility.yul\":5147:5152   */\n      dup2\n        /* \"#utility.yul\":5144:5187   */\n      eq\n        /* \"#utility.yul\":5134:5205   */\n      tag_132\n      jumpi\n        /* \"#utility.yul\":5201:5202   */\n      0x00\n        /* \"#utility.yul\":5198:5199   */\n      dup1\n        /* \"#utility.yul\":5191:5203   */\n      revert\n        /* \"#utility.yul\":5134:5205   */\n    tag_132:\n        /* \"#utility.yul\":5073:5211   */\n      pop\n      jump\t// out\n        /* \"#utility.yul\":5217:5339   */\n    tag_71:\n        /* \"#utility.yul\":5290:5314   */\n      tag_134\n        /* \"#utility.yul\":5308:5313   */\n      dup2\n        /* \"#utility.yul\":5290:5314   */\n      tag_99\n      jump\t// in\n    tag_134:\n        /* \"#utility.yul\":5283:5288   */\n      dup2\n        /* \"#utility.yul\":5280:5315   */\n      eq\n        /* \"#utility.yul\":5270:5333   */\n      tag_135\n      jumpi\n        /* \"#utility.yul\":5329:5330   */\n      0x00\n        /* \"#utility.yul\":5326:5327   */\n      dup1\n        /* \"#utility.yul\":5319:5331   */\n      revert\n        /* \"#utility.yul\":5270:5333   */\n    tag_135:\n        /* \"#utility.yul\":5217:5339   */\n      pop\n      jump\t// out\n\n    auxdata: 0xa26469706673582212202c0b98893f5208a7f3ae209d744dafbc0c706ad29cc1815239a77894261e02cf64736f6c63430008070033\n}\n",
				"bytecode": {
					"linkReferences": {},
					"object": "608060405234801561001057600080fd5b50336001806101000a81548173ffffffffffffffffffffffffffffffffffffffff021916908373ffffffffffffffffffffffffffffffffffffffff1602179055506106fc806100606000396000f3fe6080604052600436106100705760003560e01c80635c975abb1161004e5780635c975abb146100e05780636d26ec181461010b578063ac44600214610115578063ff7fe4aa1461012c57610070565b80630ff8d8a51461007557806312065fe01461009e578063439766ce146100c9575b600080fd5b34801561008157600080fd5b5061009c6004803603810190610097919061042f565b610157565b005b3480156100aa57600080fd5b506100b361021e565b6040516100c09190610548565b60405180910390f35b3480156100d557600080fd5b506100de610226565b005b3480156100ec57600080fd5b506100f5610306565b60405161010291906104ed565b60405180910390f35b610113610319565b005b34801561012157600080fd5b5061012a610333565b005b34801561013857600080fd5b506101416103ff565b60405161014e9190610548565b60405180910390f35b8073ffffffffffffffffffffffffffffffffffffffff166108fc3073ffffffffffffffffffffffffffffffffffffffff166312065fe06040518163ffffffff1660e01b815260040160206040518083038186803b1580156101b757600080fd5b505afa1580156101cb573d6000803e3d6000fd5b505050506040513d601f19601f820116820180604052508101906101ef919061045c565b9081150290604051600060405180830381858888f1935050505015801561021a573d6000803e3d6000fd5b5050565b600047905090565b60018054906101000a900473ffffffffffffffffffffffffffffffffffffffff1673ffffffffffffffffffffffffffffffffffffffff163373ffffffffffffffffffffffffffffffffffffffff16146102b4576040517f08c379a00000000000000000000000000000000000000000000000000000000081526004016102ab90610508565b60405180910390fd5b600160009054906101000a900460ff1615610304576040517f08c379a00000000000000000000000000000000000000000000000000000000081526004016102fb90610528565b60405180910390fd5b565b600160009054906101000a900460ff1681565b3460008082825461032a9190610574565b92505081905550565b60003390508073ffffffffffffffffffffffffffffffffffffffff166108fc3073ffffffffffffffffffffffffffffffffffffffff166312065fe06040518163ffffffff1660e01b815260040160206040518083038186803b15801561039857600080fd5b505afa1580156103ac573d6000803e3d6000fd5b505050506040513d601f19601f820116820180604052508101906103d0919061045c565b9081150290604051600060405180830381858888f193505050501580156103fb573d6000803e3d6000fd5b5050565b60005481565b60008135905061041481610698565b92915050565b600081519050610429816106af565b92915050565b60006020828403121561044557610444610641565b5b600061045384828501610405565b91505092915050565b60006020828403121561047257610471610641565b5b60006104808482850161041a565b91505092915050565b610492816105dc565b82525050565b60006104a5601583610563565b91506104b082610646565b602082019050919050565b60006104c8601283610563565b91506104d38261066f565b602082019050919050565b6104e781610608565b82525050565b60006020820190506105026000830184610489565b92915050565b6000602082019050818103600083015261052181610498565b9050919050565b60006020820190508181036000830152610541816104bb565b9050919050565b600060208201905061055d60008301846104de565b92915050565b600082825260208201905092915050565b600061057f82610608565b915061058a83610608565b9250827fffffffffffffffffffffffffffffffffffffffffffffffffffffffffffffffff038211156105bf576105be610612565b5b828201905092915050565b60006105d5826105e8565b9050919050565b60008115159050919050565b600073ffffffffffffffffffffffffffffffffffffffff82169050919050565b6000819050919050565b7f4e487b7100000000000000000000000000000000000000000000000000000000600052601160045260246000fd5b600080fd5b7f596f7520617265206e6f7420746865206f776e65720000000000000000000000600082015250565b7f436f6e7472616374206973207061757365640000000000000000000000000000600082015250565b6106a1816105ca565b81146106ac57600080fd5b50565b6106b881610608565b81146106c357600080fd5b5056fea26469706673582212202c0b98893f5208a7f3ae209d744dafbc0c706ad29cc1815239a77894261e02cf64736f6c63430008070033",
					"opcodes": "PUSH1 0x80 PUSH1 0x40 MSTORE CALLVALUE DUP1 ISZERO PUSH2 0x10 JUMPI PUSH1 0x0 DUP1 REVERT JUMPDEST POP CALLER PUSH1 0x1 DUP1 PUSH2 0x100 EXP DUP2 SLOAD DUP2 PUSH20 0xFFFFFFFFFFFFFFFFFFFFFFFFFFFFFFFFFFFFFFFF MUL NOT AND SWAP1 DUP4 PUSH20 0xFFFFFFFFFFFFFFFFFFFFFFFFFFFFFFFFFFFFFFFF AND MUL OR SWAP1 SSTORE POP PUSH2 0x6FC DUP1 PUSH2 0x60 PUSH1 0x0 CODECOPY PUSH1 0x0 RETURN INVALID PUSH1 0x80 PUSH1 0x40 MSTORE PUSH1 0x4 CALLDATASIZE LT PUSH2 0x70 JUMPI PUSH1 0x0 CALLDATALOAD PUSH1 0xE0 SHR DUP1 PUSH4 0x5C975ABB GT PUSH2 0x4E JUMPI DUP1 PUSH4 0x5C975ABB EQ PUSH2 0xE0 JUMPI DUP1 PUSH4 0x6D26EC18 EQ PUSH2 0x10B JUMPI DUP1 PUSH4 0xAC446002 EQ PUSH2 0x115 JUMPI DUP1 PUSH4 0xFF7FE4AA EQ PUSH2 0x12C JUMPI PUSH2 0x70 JUMP JUMPDEST DUP1 PUSH4 0xFF8D8A5 EQ PUSH2 0x75 JUMPI DUP1 PUSH4 0x12065FE0 EQ PUSH2 0x9E JUMPI DUP1 PUSH4 0x439766CE EQ PUSH2 0xC9 JUMPI JUMPDEST PUSH1 0x0 DUP1 REVERT JUMPDEST CALLVALUE DUP1 ISZERO PUSH2 0x81 JUMPI PUSH1 0x0 DUP1 REVERT JUMPDEST POP PUSH2 0x9C PUSH1 0x4 DUP1 CALLDATASIZE SUB DUP2 ADD SWAP1 PUSH2 0x97 SWAP2 SWAP1 PUSH2 0x42F JUMP JUMPDEST PUSH2 0x157 JUMP JUMPDEST STOP JUMPDEST CALLVALUE DUP1 ISZERO PUSH2 0xAA JUMPI PUSH1 0x0 DUP1 REVERT JUMPDEST POP PUSH2 0xB3 PUSH2 0x21E JUMP JUMPDEST PUSH1 0x40 MLOAD PUSH2 0xC0 SWAP2 SWAP1 PUSH2 0x548 JUMP JUMPDEST PUSH1 0x40 MLOAD DUP1 SWAP2 SUB SWAP1 RETURN JUMPDEST CALLVALUE DUP1 ISZERO PUSH2 0xD5 JUMPI PUSH1 0x0 DUP1 REVERT JUMPDEST POP PUSH2 0xDE PUSH2 0x226 JUMP JUMPDEST STOP JUMPDEST CALLVALUE DUP1 ISZERO PUSH2 0xEC JUMPI PUSH1 0x0 DUP1 REVERT JUMPDEST POP PUSH2 0xF5 PUSH2 0x306 JUMP JUMPDEST PUSH1 0x40 MLOAD PUSH2 0x102 SWAP2 SWAP1 PUSH2 0x4ED JUMP JUMPDEST PUSH1 0x40 MLOAD DUP1 SWAP2 SUB SWAP1 RETURN JUMPDEST PUSH2 0x113 PUSH2 0x319 JUMP JUMPDEST STOP JUMPDEST CALLVALUE DUP1 ISZERO PUSH2 0x121 JUMPI PUSH1 0x0 DUP1 REVERT JUMPDEST POP PUSH2 0x12A PUSH2 0x333 JUMP JUMPDEST STOP JUMPDEST CALLVALUE DUP1 ISZERO PUSH2 0x138 JUMPI PUSH1 0x0 DUP1 REVERT JUMPDEST POP PUSH2 0x141 PUSH2 0x3FF JUMP JUMPDEST PUSH1 0x40 MLOAD PUSH2 0x14E SWAP2 SWAP1 PUSH2 0x548 JUMP JUMPDEST PUSH1 0x40 MLOAD DUP1 SWAP2 SUB SWAP1 RETURN JUMPDEST DUP1 PUSH20 0xFFFFFFFFFFFFFFFFFFFFFFFFFFFFFFFFFFFFFFFF AND PUSH2 0x8FC ADDRESS PUSH20 0xFFFFFFFFFFFFFFFFFFFFFFFFFFFFFFFFFFFFFFFF AND PUSH4 0x12065FE0 PUSH1 0x40 MLOAD DUP2 PUSH4 0xFFFFFFFF AND PUSH1 0xE0 SHL DUP2 MSTORE PUSH1 0x4 ADD PUSH1 0x20 PUSH1 0x40 MLOAD DUP1 DUP4 SUB DUP2 DUP7 DUP1 EXTCODESIZE ISZERO DUP1 ISZERO PUSH2 0x1B7 JUMPI PUSH1 0x0 DUP1 REVERT JUMPDEST POP GAS STATICCALL ISZERO DUP1 ISZERO PUSH2 0x1CB JUMPI RETURNDATASIZE PUSH1 0x0 DUP1 RETURNDATACOPY RETURNDATASIZE PUSH1 0x0 REVERT JUMPDEST POP POP POP POP PUSH1 0x40 MLOAD RETURNDATASIZE PUSH1 0x1F NOT PUSH1 0x1F DUP3 ADD AND DUP3 ADD DUP1 PUSH1 0x40 MSTORE POP DUP2 ADD SWAP1 PUSH2 0x1EF SWAP2 SWAP1 PUSH2 0x45C JUMP JUMPDEST SWAP1 DUP2 ISZERO MUL SWAP1 PUSH1 0x40 MLOAD PUSH1 0x0 PUSH1 0x40 MLOAD DUP1 DUP4 SUB DUP2 DUP6 DUP9 DUP9 CALL SWAP4 POP POP POP POP ISZERO DUP1 ISZERO PUSH2 0x21A JUMPI RETURNDATASIZE PUSH1 0x0 DUP1 RETURNDATACOPY RETURNDATASIZE PUSH1 0x0 REVERT JUMPDEST POP POP JUMP JUMPDEST PUSH1 0x0 SELFBALANCE SWAP1 POP SWAP1 JUMP JUMPDEST PUSH1 0x1 DUP1 SLOAD SWAP1 PUSH2 0x100 EXP SWAP1 DIV PUSH20 0xFFFFFFFFFFFFFFFFFFFFFFFFFFFFFFFFFFFFFFFF AND PUSH20 0xFFFFFFFFFFFFFFFFFFFFFFFFFFFFFFFFFFFFFFFF AND CALLER PUSH20 0xFFFFFFFFFFFFFFFFFFFFFFFFFFFFFFFFFFFFFFFF AND EQ PUSH2 0x2B4 JUMPI PUSH1 0x40 MLOAD PUSH32 0x8C379A000000000000000000000000000000000000000000000000000000000 DUP2 MSTORE PUSH1 0x4 ADD PUSH2 0x2AB SWAP1 PUSH2 0x508 JUMP JUMPDEST PUSH1 0x40 MLOAD DUP1 SWAP2 SUB SWAP1 REVERT JUMPDEST PUSH1 0x1 PUSH1 0x0 SWAP1 SLOAD SWAP1 PUSH2 0x100 EXP SWAP1 DIV PUSH1 0xFF AND ISZERO PUSH2 0x304 JUMPI PUSH1 0x40 MLOAD PUSH32 0x8C379A000000000000000000000000000000000000000000000000000000000 DUP2 MSTORE PUSH1 0x4 ADD PUSH2 0x2FB SWAP1 PUSH2 0x528 JUMP JUMPDEST PUSH1 0x40 MLOAD DUP1 SWAP2 SUB SWAP1 REVERT JUMPDEST JUMP JUMPDEST PUSH1 0x1 PUSH1 0x0 SWAP1 SLOAD SWAP1 PUSH2 0x100 EXP SWAP1 DIV PUSH1 0xFF AND DUP2 JUMP JUMPDEST CALLVALUE PUSH1 0x0 DUP1 DUP3 DUP3 SLOAD PUSH2 0x32A SWAP2 SWAP1 PUSH2 0x574 JUMP JUMPDEST SWAP3 POP POP DUP2 SWAP1 SSTORE POP JUMP JUMPDEST PUSH1 0x0 CALLER SWAP1 POP DUP1 PUSH20 0xFFFFFFFFFFFFFFFFFFFFFFFFFFFFFFFFFFFFFFFF AND PUSH2 0x8FC ADDRESS PUSH20 0xFFFFFFFFFFFFFFFFFFFFFFFFFFFFFFFFFFFFFFFF AND PUSH4 0x12065FE0 PUSH1 0x40 MLOAD DUP2 PUSH4 0xFFFFFFFF AND PUSH1 0xE0 SHL DUP2 MSTORE PUSH1 0x4 ADD PUSH1 0x20 PUSH1 0x40 MLOAD DUP1 DUP4 SUB DUP2 DUP7 DUP1 EXTCODESIZE ISZERO DUP1 ISZERO PUSH2 0x398 JUMPI PUSH1 0x0 DUP1 REVERT JUMPDEST POP GAS STATICCALL ISZERO DUP1 ISZERO PUSH2 0x3AC JUMPI RETURNDATASIZE PUSH1 0x0 DUP1 RETURNDATACOPY RETURNDATASIZE PUSH1 0x0 REVERT JUMPDEST POP POP POP POP PUSH1 0x40 MLOAD RETURNDATASIZE PUSH1 0x1F NOT PUSH1 0x1F DUP3 ADD AND DUP3 ADD DUP1 PUSH1 0x40 MSTORE POP DUP2 ADD SWAP1 PUSH2 0x3D0 SWAP2 SWAP1 PUSH2 0x45C JUMP JUMPDEST SWAP1 DUP2 ISZERO MUL SWAP1 PUSH1 0x40 MLOAD PUSH1 0x0 PUSH1 0x40 MLOAD DUP1 DUP4 SUB DUP2 DUP6 DUP9 DUP9 CALL SWAP4 POP POP POP POP ISZERO DUP1 ISZERO PUSH2 0x3FB JUMPI RETURNDATASIZE PUSH1 0x0 DUP1 RETURNDATACOPY RETURNDATASIZE PUSH1 0x0 REVERT JUMPDEST POP POP JUMP JUMPDEST PUSH1 0x0 SLOAD DUP2 JUMP JUMPDEST PUSH1 0x0 DUP2 CALLDATALOAD SWAP1 POP PUSH2 0x414 DUP2 PUSH2 0x698 JUMP JUMPDEST SWAP3 SWAP2 POP POP JUMP JUMPDEST PUSH1 0x0 DUP2 MLOAD SWAP1 POP PUSH2 0x429 DUP2 PUSH2 0x6AF JUMP JUMPDEST SWAP3 SWAP2 POP POP JUMP JUMPDEST PUSH1 0x0 PUSH1 0x20 DUP3 DUP5 SUB SLT ISZERO PUSH2 0x445 JUMPI PUSH2 0x444 PUSH2 0x641 JUMP JUMPDEST JUMPDEST PUSH1 0x0 PUSH2 0x453 DUP5 DUP3 DUP6 ADD PUSH2 0x405 JUMP JUMPDEST SWAP2 POP POP SWAP3 SWAP2 POP POP JUMP JUMPDEST PUSH1 0x0 PUSH1 0x20 DUP3 DUP5 SUB SLT ISZERO PUSH2 0x472 JUMPI PUSH2 0x471 PUSH2 0x641 JUMP JUMPDEST JUMPDEST PUSH1 0x0 PUSH2 0x480 DUP5 DUP3 DUP6 ADD PUSH2 0x41A JUMP JUMPDEST SWAP2 POP POP SWAP3 SWAP2 POP POP JUMP JUMPDEST PUSH2 0x492 DUP2 PUSH2 0x5DC JUMP JUMPDEST DUP3 MSTORE POP POP JUMP JUMPDEST PUSH1 0x0 PUSH2 0x4A5 PUSH1 0x15 DUP4 PUSH2 0x563 JUMP JUMPDEST SWAP2 POP PUSH2 0x4B0 DUP3 PUSH2 0x646 JUMP JUMPDEST PUSH1 0x20 DUP3 ADD SWAP1 POP SWAP2 SWAP1 POP JUMP JUMPDEST PUSH1 0x0 PUSH2 0x4C8 PUSH1 0x12 DUP4 PUSH2 0x563 JUMP JUMPDEST SWAP2 POP PUSH2 0x4D3 DUP3 PUSH2 0x66F JUMP JUMPDEST PUSH1 0x20 DUP3 ADD SWAP1 POP SWAP2 SWAP1 POP JUMP JUMPDEST PUSH2 0x4E7 DUP2 PUSH2 0x608 JUMP JUMPDEST DUP3 MSTORE POP POP JUMP JUMPDEST PUSH1 0x0 PUSH1 0x20 DUP3 ADD SWAP1 POP PUSH2 0x502 PUSH1 0x0 DUP4 ADD DUP5 PUSH2 0x489 JUMP JUMPDEST SWAP3 SWAP2 POP POP JUMP JUMPDEST PUSH1 0x0 PUSH1 0x20 DUP3 ADD SWAP1 POP DUP2 DUP2 SUB PUSH1 0x0 DUP4 ADD MSTORE PUSH2 0x521 DUP2 PUSH2 0x498 JUMP JUMPDEST SWAP1 POP SWAP2 SWAP1 POP JUMP JUMPDEST PUSH1 0x0 PUSH1 0x20 DUP3 ADD SWAP1 POP DUP2 DUP2 SUB PUSH1 0x0 DUP4 ADD MSTORE PUSH2 0x541 DUP2 PUSH2 0x4BB JUMP JUMPDEST SWAP1 POP SWAP2 SWAP1 POP JUMP JUMPDEST PUSH1 0x0 PUSH1 0x20 DUP3 ADD SWAP1 POP PUSH2 0x55D PUSH1 0x0 DUP4 ADD DUP5 PUSH2 0x4DE JUMP JUMPDEST SWAP3 SWAP2 POP POP JUMP JUMPDEST PUSH1 0x0 DUP3 DUP3 MSTORE PUSH1 0x20 DUP3 ADD SWAP1 POP SWAP3 SWAP2 POP POP JUMP JUMPDEST PUSH1 0x0 PUSH2 0x57F DUP3 PUSH2 0x608 JUMP JUMPDEST SWAP2 POP PUSH2 0x58A DUP4 PUSH2 0x608 JUMP JUMPDEST SWAP3 POP DUP3 PUSH32 0xFFFFFFFFFFFFFFFFFFFFFFFFFFFFFFFFFFFFFFFFFFFFFFFFFFFFFFFFFFFFFFFF SUB DUP3 GT ISZERO PUSH2 0x5BF JUMPI PUSH2 0x5BE PUSH2 0x612 JUMP JUMPDEST JUMPDEST DUP3 DUP3 ADD SWAP1 POP SWAP3 SWAP2 POP POP JUMP JUMPDEST PUSH1 0x0 PUSH2 0x5D5 DUP3 PUSH2 0x5E8 JUMP JUMPDEST SWAP1 POP SWAP2 SWAP1 POP JUMP JUMPDEST PUSH1 0x0 DUP2 ISZERO ISZERO SWAP1 POP SWAP2 SWAP1 POP JUMP JUMPDEST PUSH1 0x0 PUSH20 0xFFFFFFFFFFFFFFFFFFFFFFFFFFFFFFFFFFFFFFFF DUP3 AND SWAP1 POP SWAP2 SWAP1 POP JUMP JUMPDEST PUSH1 0x0 DUP2 SWAP1 POP SWAP2 SWAP1 POP JUMP JUMPDEST PUSH32 0x4E487B7100000000000000000000000000000000000000000000000000000000 PUSH1 0x0 MSTORE PUSH1 0x11 PUSH1 0x4 MSTORE PUSH1 0x24 PUSH1 0x0 REVERT JUMPDEST PUSH1 0x0 DUP1 REVERT JUMPDEST PUSH32 0x596F7520617265206E6F7420746865206F776E65720000000000000000000000 PUSH1 0x0 DUP3 ADD MSTORE POP JUMP JUMPDEST PUSH32 0x436F6E7472616374206973207061757365640000000000000000000000000000 PUSH1 0x0 DUP3 ADD MSTORE POP JUMP JUMPDEST PUSH2 0x6A1 DUP2 PUSH2 0x5CA JUMP JUMPDEST DUP2 EQ PUSH2 0x6AC JUMPI PUSH1 0x0 DUP1 REVERT JUMPDEST POP JUMP JUMPDEST PUSH2 0x6B8 DUP2 PUSH2 0x608 JUMP JUMPDEST DUP2 EQ PUSH2 0x6C3 JUMPI PUSH1 0x0 DUP1 REVERT JUMPDEST POP JUMP INVALID LOG2 PUSH5 0x6970667358 0x22 SLT KECCAK256 0x2C SIGNEXTEND SWAP9 DUP10 EXTCODEHASH MSTORE ADDMOD 0xA7 RETURN 0xAE KECCAK256 SWAP14 PUSH21 0x4DAFBC0C706AD29CC1815239A77894261E02CF6473 PUSH16 0x6C634300080700330000000000000000 "
				},
				"gasEstimates": {
					"creation": {
						"codeDepositCost": "357600",
						"executionCost": "24709",
						"totalCost": "382309"
					},
					"external": {
						"balanceAmount()": "2495",
						"getBalance()": "362",
						"pauseContract()": "4851",
						"paused()": "2471",
						"receiveMoney()": "infinite",
						"withdrawMoney()": "infinite",
						"withdrawMoneyTo(address)": "infinite"
					}
				},
				"methodIdentifiers": {
					"balanceAmount()": "ff7fe4aa",
					"getBalance()": "12065fe0",
					"pauseContract()": "439766ce",
					"paused()": "5c975abb",
					"receiveMoney()": "6d26ec18",
					"withdrawMoney()": "ac446002",
					"withdrawMoneyTo(address)": "0ff8d8a5"
				}
			},
			"userdoc": {
				"kind": "user",
				"methods": {},
				"version": 1
			}
		}
	}
}