{
	"contract/Events.sol": {
		"EventsExample": {
			"abi": [
				{
					"inputs": [],
					"stateMutability": "nonpayable",
					"type": "constructor"
				},
				{
					"anonymous": false,
					"inputs": [
						{
							"indexed": false,
							"internalType": "address",
							"name": "_from",
							"type": "address"
						},
						{
							"indexed": false,
							"internalType": "address",
							"name": "_to",
							"type": "address"
						},
						{
							"indexed": false,
							"internalType": "uint256",
							"name": "_amount",
							"type": "uint256"
						}
					],
					"name": "TokensSent",
					"type": "event"
				},
				{
					"inputs": [
						{
							"internalType": "address",
							"name": "_to",
							"type": "address"
						},
						{
							"internalType": "uint256",
							"name": "_amount",
							"type": "uint256"
						}
					],
					"name": "sendToken",
					"outputs": [
						{
							"internalType": "bool",
							"name": "",
							"type": "bool"
						}
					],
					"stateMutability": "nonpayable",
					"type": "function"
				},
				{
					"inputs": [
						{
							"internalType": "address",
							"name": "",
							"type": "address"
						}
					],
					"name": "tokenAvailable",
					"outputs": [
						{
							"internalType": "uint256",
							"name": "",
							"type": "uint256"
						}
					],
					"stateMutability": "view",
					"type": "function"
				}
			],
			"devdoc": {
				"kind": "dev",
				"methods": {},
				"version": 1
			},
			"evm": {
				"assembly": "    /* \"contract/Events.sol\":27:844  contract EventsExample {\r... */\n  mstore(0x40, 0x80)\n    /* \"contract/Events.sol\":345:439  constructor() {\r... */\n  callvalue\n  dup1\n  iszero\n  tag_1\n  jumpi\n  0x00\n  dup1\n  revert\ntag_1:\n  pop\n    /* \"contract/Events.sol\":399:402  100 */\n  0x64\n    /* \"contract/Events.sol\":370:384  tokenAvailable */\n  0x00\n    /* \"contract/Events.sol\":370:396  tokenAvailable[msg.sender] */\n  dup1\n    /* \"contract/Events.sol\":385:395  msg.sender */\n  caller\n    /* \"contract/Events.sol\":370:396  tokenAvailable[msg.sender] */\n  0xffffffffffffffffffffffffffffffffffffffff\n  and\n  0xffffffffffffffffffffffffffffffffffffffff\n  and\n  dup2\n  mstore\n  0x20\n  add\n  swap1\n  dup2\n  mstore\n  0x20\n  add\n  0x00\n  keccak256\n    /* \"contract/Events.sol\":370:402  tokenAvailable[msg.sender] = 100 */\n  dup2\n  swap1\n  sstore\n  pop\n    /* \"contract/Events.sol\":421:431  msg.sender */\n  caller\n    /* \"contract/Events.sol\":413:418  owner */\n  0x01\n  0x00\n    /* \"contract/Events.sol\":413:431  owner = msg.sender */\n  0x0100\n  exp\n  dup2\n  sload\n  dup2\n  0xffffffffffffffffffffffffffffffffffffffff\n  mul\n  not\n  and\n  swap1\n  dup4\n  0xffffffffffffffffffffffffffffffffffffffff\n  and\n  mul\n  or\n  swap1\n  sstore\n  pop\n    /* \"contract/Events.sol\":27:844  contract EventsExample {\r... */\n  dataSize(sub_0)\n  dup1\n  dataOffset(sub_0)\n  0x00\n  codecopy\n  0x00\n  return\nstop\n\nsub_0: assembly {\n        /* \"contract/Events.sol\":27:844  contract EventsExample {\r... */\n      mstore(0x40, 0x80)\n      callvalue\n      dup1\n      iszero\n      tag_1\n      jumpi\n      0x00\n      dup1\n      revert\n    tag_1:\n      pop\n      jumpi(tag_2, lt(calldatasize, 0x04))\n      shr(0xe0, calldataload(0x00))\n      dup1\n      0x412664ae\n      eq\n      tag_3\n      jumpi\n      dup1\n      0x97b2544f\n      eq\n      tag_4\n      jumpi\n    tag_2:\n      0x00\n      dup1\n      revert\n        /* \"contract/Events.sol\":549:841  function sendToken(address _to, uint _amount) public onlyOwner returns(bool)  {\r... */\n    tag_3:\n      tag_5\n      0x04\n      dup1\n      calldatasize\n      sub\n      dup2\n      add\n      swap1\n      tag_6\n      swap2\n      swap1\n      tag_7\n      jump\t// in\n    tag_6:\n      tag_8\n      jump\t// in\n    tag_5:\n      mload(0x40)\n      tag_9\n      swap2\n      swap1\n      tag_10\n      jump\t// in\n    tag_9:\n      mload(0x40)\n      dup1\n      swap2\n      sub\n      swap1\n      return\n        /* \"contract/Events.sol\":57:102  mapping(address=> uint) public tokenAvailable */\n    tag_4:\n      tag_11\n      0x04\n      dup1\n      calldatasize\n      sub\n      dup2\n      add\n      swap1\n      tag_12\n      swap2\n      swap1\n      tag_13\n      jump\t// in\n    tag_12:\n      tag_14\n      jump\t// in\n    tag_11:\n      mload(0x40)\n      tag_15\n      swap2\n      swap1\n      tag_16\n      jump\t// in\n    tag_15:\n      mload(0x40)\n      dup1\n      swap2\n      sub\n      swap1\n      return\n        /* \"contract/Events.sol\":549:841  function sendToken(address _to, uint _amount) public onlyOwner returns(bool)  {\r... */\n    tag_8:\n        /* \"contract/Events.sol\":620:624  bool */\n      0x00\n        /* \"contract/Events.sol\":289:294  owner */\n      0x01\n      0x00\n      swap1\n      sload\n      swap1\n      0x0100\n      exp\n      swap1\n      div\n      0xffffffffffffffffffffffffffffffffffffffff\n      and\n        /* \"contract/Events.sol\":275:294  msg.sender == owner */\n      0xffffffffffffffffffffffffffffffffffffffff\n      and\n        /* \"contract/Events.sol\":275:285  msg.sender */\n      caller\n        /* \"contract/Events.sol\":275:294  msg.sender == owner */\n      0xffffffffffffffffffffffffffffffffffffffff\n      and\n      eq\n        /* \"contract/Events.sol\":267:319  require(msg.sender == owner,\"You are not the owner\") */\n      tag_18\n      jumpi\n      mload(0x40)\n      0x08c379a000000000000000000000000000000000000000000000000000000000\n      dup2\n      mstore\n      0x04\n      add\n      tag_19\n      swap1\n      tag_20\n      jump\t// in\n    tag_19:\n      mload(0x40)\n      dup1\n      swap2\n      sub\n      swap1\n      revert\n    tag_18:\n        /* \"contract/Events.sol\":668:675  _amount */\n      dup2\n        /* \"contract/Events.sol\":638:652  tokenAvailable */\n      0x00\n        /* \"contract/Events.sol\":638:664  tokenAvailable[msg.sender] */\n      dup1\n        /* \"contract/Events.sol\":653:663  msg.sender */\n      caller\n        /* \"contract/Events.sol\":638:664  tokenAvailable[msg.sender] */\n      0xffffffffffffffffffffffffffffffffffffffff\n      and\n      0xffffffffffffffffffffffffffffffffffffffff\n      and\n      dup2\n      mstore\n      0x20\n      add\n      swap1\n      dup2\n      mstore\n      0x20\n      add\n      0x00\n      keccak256\n      0x00\n        /* \"contract/Events.sol\":638:675  tokenAvailable[msg.sender] -= _amount */\n      dup3\n      dup3\n      sload\n      tag_22\n      swap2\n      swap1\n      tag_23\n      jump\t// in\n    tag_22:\n      swap3\n      pop\n      pop\n      dup2\n      swap1\n      sstore\n      pop\n        /* \"contract/Events.sol\":709:716  _amount */\n      dup2\n        /* \"contract/Events.sol\":686:700  tokenAvailable */\n      0x00\n        /* \"contract/Events.sol\":686:705  tokenAvailable[_to] */\n      dup1\n        /* \"contract/Events.sol\":701:704  _to */\n      dup6\n        /* \"contract/Events.sol\":686:705  tokenAvailable[_to] */\n      0xffffffffffffffffffffffffffffffffffffffff\n      and\n      0xffffffffffffffffffffffffffffffffffffffff\n      and\n      dup2\n      mstore\n      0x20\n      add\n      swap1\n      dup2\n      mstore\n      0x20\n      add\n      0x00\n      keccak256\n      0x00\n        /* \"contract/Events.sol\":686:716  tokenAvailable[_to] += _amount */\n      dup3\n      dup3\n      sload\n      tag_24\n      swap2\n      swap1\n      tag_25\n      jump\t// in\n    tag_24:\n      swap3\n      pop\n      pop\n      dup2\n      swap1\n      sstore\n      pop\n        /* \"contract/Events.sol\":775:811  TokensSent(msg.sender, _to, _amount) */\n      0xe607861baff3d292b19188affe88c1a72bdcb69d3015f18bb2cd0bf5349cc3e1\n        /* \"contract/Events.sol\":786:796  msg.sender */\n      caller\n        /* \"contract/Events.sol\":798:801  _to */\n      dup5\n        /* \"contract/Events.sol\":803:810  _amount */\n      dup5\n        /* \"contract/Events.sol\":775:811  TokensSent(msg.sender, _to, _amount) */\n      mload(0x40)\n      tag_26\n      swap4\n      swap3\n      swap2\n      swap1\n      tag_27\n      jump\t// in\n    tag_26:\n      mload(0x40)\n      dup1\n      swap2\n      sub\n      swap1\n      log1\n        /* \"contract/Events.sol\":829:833  true */\n      0x01\n        /* \"contract/Events.sol\":822:833  return true */\n      swap1\n      pop\n        /* \"contract/Events.sol\":549:841  function sendToken(address _to, uint _amount) public onlyOwner returns(bool)  {\r... */\n      swap3\n      swap2\n      pop\n      pop\n      jump\t// out\n        /* \"contract/Events.sol\":57:102  mapping(address=> uint) public tokenAvailable */\n    tag_14:\n      mstore(0x20, 0x00)\n      dup1\n      0x00\n      mstore\n      keccak256(0x00, 0x40)\n      0x00\n      swap2\n      pop\n      swap1\n      pop\n      sload\n      dup2\n      jump\t// out\n        /* \"#utility.yul\":7:146   */\n    tag_29:\n        /* \"#utility.yul\":53:58   */\n      0x00\n        /* \"#utility.yul\":91:97   */\n      dup2\n        /* \"#utility.yul\":78:98   */\n      calldataload\n        /* \"#utility.yul\":69:98   */\n      swap1\n      pop\n        /* \"#utility.yul\":107:140   */\n      tag_31\n        /* \"#utility.yul\":134:139   */\n      dup2\n        /* \"#utility.yul\":107:140   */\n      tag_32\n      jump\t// in\n    tag_31:\n        /* \"#utility.yul\":7:146   */\n      swap3\n      swap2\n      pop\n      pop\n      jump\t// out\n        /* \"#utility.yul\":152:291   */\n    tag_33:\n        /* \"#utility.yul\":198:203   */\n      0x00\n        /* \"#utility.yul\":236:242   */\n      dup2\n        /* \"#utility.yul\":223:243   */\n      calldataload\n        /* \"#utility.yul\":214:243   */\n      swap1\n      pop\n        /* \"#utility.yul\":252:285   */\n      tag_35\n        /* \"#utility.yul\":279:284   */\n      dup2\n        /* \"#utility.yul\":252:285   */\n      tag_36\n      jump\t// in\n    tag_35:\n        /* \"#utility.yul\":152:291   */\n      swap3\n      swap2\n      pop\n      pop\n      jump\t// out\n        /* \"#utility.yul\":297:626   */\n    tag_13:\n        /* \"#utility.yul\":356:362   */\n      0x00\n        /* \"#utility.yul\":405:407   */\n      0x20\n        /* \"#utility.yul\":393:402   */\n      dup3\n        /* \"#utility.yul\":384:391   */\n      dup5\n        /* \"#utility.yul\":380:403   */\n      sub\n        /* \"#utility.yul\":376:408   */\n      slt\n        /* \"#utility.yul\":373:492   */\n      iszero\n      tag_38\n      jumpi\n        /* \"#utility.yul\":411:490   */\n      tag_39\n      tag_40\n      jump\t// in\n    tag_39:\n        /* \"#utility.yul\":373:492   */\n    tag_38:\n        /* \"#utility.yul\":531:532   */\n      0x00\n        /* \"#utility.yul\":556:609   */\n      tag_41\n        /* \"#utility.yul\":601:608   */\n      dup5\n        /* \"#utility.yul\":592:598   */\n      dup3\n        /* \"#utility.yul\":581:590   */\n      dup6\n        /* \"#utility.yul\":577:599   */\n      add\n        /* \"#utility.yul\":556:609   */\n      tag_29\n      jump\t// in\n    tag_41:\n        /* \"#utility.yul\":546:609   */\n      swap2\n      pop\n        /* \"#utility.yul\":502:619   */\n      pop\n        /* \"#utility.yul\":297:626   */\n      swap3\n      swap2\n      pop\n      pop\n      jump\t// out\n        /* \"#utility.yul\":632:1106   */\n    tag_7:\n        /* \"#utility.yul\":700:706   */\n      0x00\n        /* \"#utility.yul\":708:714   */\n      dup1\n        /* \"#utility.yul\":757:759   */\n      0x40\n        /* \"#utility.yul\":745:754   */\n      dup4\n        /* \"#utility.yul\":736:743   */\n      dup6\n        /* \"#utility.yul\":732:755   */\n      sub\n        /* \"#utility.yul\":728:760   */\n      slt\n        /* \"#utility.yul\":725:844   */\n      iszero\n      tag_43\n      jumpi\n        /* \"#utility.yul\":763:842   */\n      tag_44\n      tag_40\n      jump\t// in\n    tag_44:\n        /* \"#utility.yul\":725:844   */\n    tag_43:\n        /* \"#utility.yul\":883:884   */\n      0x00\n        /* \"#utility.yul\":908:961   */\n      tag_45\n        /* \"#utility.yul\":953:960   */\n      dup6\n        /* \"#utility.yul\":944:950   */\n      dup3\n        /* \"#utility.yul\":933:942   */\n      dup7\n        /* \"#utility.yul\":929:951   */\n      add\n        /* \"#utility.yul\":908:961   */\n      tag_29\n      jump\t// in\n    tag_45:\n        /* \"#utility.yul\":898:961   */\n      swap3\n      pop\n        /* \"#utility.yul\":854:971   */\n      pop\n        /* \"#utility.yul\":1010:1012   */\n      0x20\n        /* \"#utility.yul\":1036:1089   */\n      tag_46\n        /* \"#utility.yul\":1081:1088   */\n      dup6\n        /* \"#utility.yul\":1072:1078   */\n      dup3\n        /* \"#utility.yul\":1061:1070   */\n      dup7\n        /* \"#utility.yul\":1057:1079   */\n      add\n        /* \"#utility.yul\":1036:1089   */\n      tag_33\n      jump\t// in\n    tag_46:\n        /* \"#utility.yul\":1026:1089   */\n      swap2\n      pop\n        /* \"#utility.yul\":981:1099   */\n      pop\n        /* \"#utility.yul\":632:1106   */\n      swap3\n      pop\n      swap3\n      swap1\n      pop\n      jump\t// out\n        /* \"#utility.yul\":1112:1230   */\n    tag_47:\n        /* \"#utility.yul\":1199:1223   */\n      tag_49\n        /* \"#utility.yul\":1217:1222   */\n      dup2\n        /* \"#utility.yul\":1199:1223   */\n      tag_50\n      jump\t// in\n    tag_49:\n        /* \"#utility.yul\":1194:1197   */\n      dup3\n        /* \"#utility.yul\":1187:1224   */\n      mstore\n        /* \"#utility.yul\":1112:1230   */\n      pop\n      pop\n      jump\t// out\n        /* \"#utility.yul\":1236:1345   */\n    tag_51:\n        /* \"#utility.yul\":1317:1338   */\n      tag_53\n        /* \"#utility.yul\":1332:1337   */\n      dup2\n        /* \"#utility.yul\":1317:1338   */\n      tag_54\n      jump\t// in\n    tag_53:\n        /* \"#utility.yul\":1312:1315   */\n      dup3\n        /* \"#utility.yul\":1305:1339   */\n      mstore\n        /* \"#utility.yul\":1236:1345   */\n      pop\n      pop\n      jump\t// out\n        /* \"#utility.yul\":1351:1717   */\n    tag_55:\n        /* \"#utility.yul\":1493:1496   */\n      0x00\n        /* \"#utility.yul\":1514:1581   */\n      tag_57\n        /* \"#utility.yul\":1578:1580   */\n      0x15\n        /* \"#utility.yul\":1573:1576   */\n      dup4\n        /* \"#utility.yul\":1514:1581   */\n      tag_58\n      jump\t// in\n    tag_57:\n        /* \"#utility.yul\":1507:1581   */\n      swap2\n      pop\n        /* \"#utility.yul\":1590:1683   */\n      tag_59\n        /* \"#utility.yul\":1679:1682   */\n      dup3\n        /* \"#utility.yul\":1590:1683   */\n      tag_60\n      jump\t// in\n    tag_59:\n        /* \"#utility.yul\":1708:1710   */\n      0x20\n        /* \"#utility.yul\":1703:1706   */\n      dup3\n        /* \"#utility.yul\":1699:1711   */\n      add\n        /* \"#utility.yul\":1692:1711   */\n      swap1\n      pop\n        /* \"#utility.yul\":1351:1717   */\n      swap2\n      swap1\n      pop\n      jump\t// out\n        /* \"#utility.yul\":1723:1841   */\n    tag_61:\n        /* \"#utility.yul\":1810:1834   */\n      tag_63\n        /* \"#utility.yul\":1828:1833   */\n      dup2\n        /* \"#utility.yul\":1810:1834   */\n      tag_64\n      jump\t// in\n    tag_63:\n        /* \"#utility.yul\":1805:1808   */\n      dup3\n        /* \"#utility.yul\":1798:1835   */\n      mstore\n        /* \"#utility.yul\":1723:1841   */\n      pop\n      pop\n      jump\t// out\n        /* \"#utility.yul\":1847:2289   */\n    tag_27:\n        /* \"#utility.yul\":1996:2000   */\n      0x00\n        /* \"#utility.yul\":2034:2036   */\n      0x60\n        /* \"#utility.yul\":2023:2032   */\n      dup3\n        /* \"#utility.yul\":2019:2037   */\n      add\n        /* \"#utility.yul\":2011:2037   */\n      swap1\n      pop\n        /* \"#utility.yul\":2047:2118   */\n      tag_66\n        /* \"#utility.yul\":2115:2116   */\n      0x00\n        /* \"#utility.yul\":2104:2113   */\n      dup4\n        /* \"#utility.yul\":2100:2117   */\n      add\n        /* \"#utility.yul\":2091:2097   */\n      dup7\n        /* \"#utility.yul\":2047:2118   */\n      tag_47\n      jump\t// in\n    tag_66:\n        /* \"#utility.yul\":2128:2200   */\n      tag_67\n        /* \"#utility.yul\":2196:2198   */\n      0x20\n        /* \"#utility.yul\":2185:2194   */\n      dup4\n        /* \"#utility.yul\":2181:2199   */\n      add\n        /* \"#utility.yul\":2172:2178   */\n      dup6\n        /* \"#utility.yul\":2128:2200   */\n      tag_47\n      jump\t// in\n    tag_67:\n        /* \"#utility.yul\":2210:2282   */\n      tag_68\n        /* \"#utility.yul\":2278:2280   */\n      0x40\n        /* \"#utility.yul\":2267:2276   */\n      dup4\n        /* \"#utility.yul\":2263:2281   */\n      add\n        /* \"#utility.yul\":2254:2260   */\n      dup5\n        /* \"#utility.yul\":2210:2282   */\n      tag_61\n      jump\t// in\n    tag_68:\n        /* \"#utility.yul\":1847:2289   */\n      swap5\n      swap4\n      pop\n      pop\n      pop\n      pop\n      jump\t// out\n        /* \"#utility.yul\":2295:2505   */\n    tag_10:\n        /* \"#utility.yul\":2382:2386   */\n      0x00\n        /* \"#utility.yul\":2420:2422   */\n      0x20\n        /* \"#utility.yul\":2409:2418   */\n      dup3\n        /* \"#utility.yul\":2405:2423   */\n      add\n        /* \"#utility.yul\":2397:2423   */\n      swap1\n      pop\n        /* \"#utility.yul\":2433:2498   */\n      tag_70\n        /* \"#utility.yul\":2495:2496   */\n      0x00\n        /* \"#utility.yul\":2484:2493   */\n      dup4\n        /* \"#utility.yul\":2480:2497   */\n      add\n        /* \"#utility.yul\":2471:2477   */\n      dup5\n        /* \"#utility.yul\":2433:2498   */\n      tag_51\n      jump\t// in\n    tag_70:\n        /* \"#utility.yul\":2295:2505   */\n      swap3\n      swap2\n      pop\n      pop\n      jump\t// out\n        /* \"#utility.yul\":2511:2930   */\n    tag_20:\n        /* \"#utility.yul\":2677:2681   */\n      0x00\n        /* \"#utility.yul\":2715:2717   */\n      0x20\n        /* \"#utility.yul\":2704:2713   */\n      dup3\n        /* \"#utility.yul\":2700:2718   */\n      add\n        /* \"#utility.yul\":2692:2718   */\n      swap1\n      pop\n        /* \"#utility.yul\":2764:2773   */\n      dup2\n        /* \"#utility.yul\":2758:2762   */\n      dup2\n        /* \"#utility.yul\":2754:2774   */\n      sub\n        /* \"#utility.yul\":2750:2751   */\n      0x00\n        /* \"#utility.yul\":2739:2748   */\n      dup4\n        /* \"#utility.yul\":2735:2752   */\n      add\n        /* \"#utility.yul\":2728:2775   */\n      mstore\n        /* \"#utility.yul\":2792:2923   */\n      tag_72\n        /* \"#utility.yul\":2918:2922   */\n      dup2\n        /* \"#utility.yul\":2792:2923   */\n      tag_55\n      jump\t// in\n    tag_72:\n        /* \"#utility.yul\":2784:2923   */\n      swap1\n      pop\n        /* \"#utility.yul\":2511:2930   */\n      swap2\n      swap1\n      pop\n      jump\t// out\n        /* \"#utility.yul\":2936:3158   */\n    tag_16:\n        /* \"#utility.yul\":3029:3033   */\n      0x00\n        /* \"#utility.yul\":3067:3069   */\n      0x20\n        /* \"#utility.yul\":3056:3065   */\n      dup3\n        /* \"#utility.yul\":3052:3070   */\n      add\n        /* \"#utility.yul\":3044:3070   */\n      swap1\n      pop\n        /* \"#utility.yul\":3080:3151   */\n      tag_74\n        /* \"#utility.yul\":3148:3149   */\n      0x00\n        /* \"#utility.yul\":3137:3146   */\n      dup4\n        /* \"#utility.yul\":3133:3150   */\n      add\n        /* \"#utility.yul\":3124:3130   */\n      dup5\n        /* \"#utility.yul\":3080:3151   */\n      tag_61\n      jump\t// in\n    tag_74:\n        /* \"#utility.yul\":2936:3158   */\n      swap3\n      swap2\n      pop\n      pop\n      jump\t// out\n        /* \"#utility.yul\":3245:3414   */\n    tag_58:\n        /* \"#utility.yul\":3329:3340   */\n      0x00\n        /* \"#utility.yul\":3363:3369   */\n      dup3\n        /* \"#utility.yul\":3358:3361   */\n      dup3\n        /* \"#utility.yul\":3351:3370   */\n      mstore\n        /* \"#utility.yul\":3403:3407   */\n      0x20\n        /* \"#utility.yul\":3398:3401   */\n      dup3\n        /* \"#utility.yul\":3394:3408   */\n      add\n        /* \"#utility.yul\":3379:3408   */\n      swap1\n      pop\n        /* \"#utility.yul\":3245:3414   */\n      swap3\n      swap2\n      pop\n      pop\n      jump\t// out\n        /* \"#utility.yul\":3420:3725   */\n    tag_25:\n        /* \"#utility.yul\":3460:3463   */\n      0x00\n        /* \"#utility.yul\":3479:3499   */\n      tag_79\n        /* \"#utility.yul\":3497:3498   */\n      dup3\n        /* \"#utility.yul\":3479:3499   */\n      tag_64\n      jump\t// in\n    tag_79:\n        /* \"#utility.yul\":3474:3499   */\n      swap2\n      pop\n        /* \"#utility.yul\":3513:3533   */\n      tag_80\n        /* \"#utility.yul\":3531:3532   */\n      dup4\n        /* \"#utility.yul\":3513:3533   */\n      tag_64\n      jump\t// in\n    tag_80:\n        /* \"#utility.yul\":3508:3533   */\n      swap3\n      pop\n        /* \"#utility.yul\":3667:3668   */\n      dup3\n        /* \"#utility.yul\":3599:3665   */\n      0xffffffffffffffffffffffffffffffffffffffffffffffffffffffffffffffff\n        /* \"#utility.yul\":3595:3669   */\n      sub\n        /* \"#utility.yul\":3592:3593   */\n      dup3\n        /* \"#utility.yul\":3589:3670   */\n      gt\n        /* \"#utility.yul\":3586:3693   */\n      iszero\n      tag_81\n      jumpi\n        /* \"#utility.yul\":3673:3691   */\n      tag_82\n      tag_83\n      jump\t// in\n    tag_82:\n        /* \"#utility.yul\":3586:3693   */\n    tag_81:\n        /* \"#utility.yul\":3717:3718   */\n      dup3\n        /* \"#utility.yul\":3714:3715   */\n      dup3\n        /* \"#utility.yul\":3710:3719   */\n      add\n        /* \"#utility.yul\":3703:3719   */\n      swap1\n      pop\n        /* \"#utility.yul\":3420:3725   */\n      swap3\n      swap2\n      pop\n      pop\n      jump\t// out\n        /* \"#utility.yul\":3731:3922   */\n    tag_23:\n        /* \"#utility.yul\":3771:3775   */\n      0x00\n        /* \"#utility.yul\":3791:3811   */\n      tag_85\n        /* \"#utility.yul\":3809:3810   */\n      dup3\n        /* \"#utility.yul\":3791:3811   */\n      tag_64\n      jump\t// in\n    tag_85:\n        /* \"#utility.yul\":3786:3811   */\n      swap2\n      pop\n        /* \"#utility.yul\":3825:3845   */\n      tag_86\n        /* \"#utility.yul\":3843:3844   */\n      dup4\n        /* \"#utility.yul\":3825:3845   */\n      tag_64\n      jump\t// in\n    tag_86:\n        /* \"#utility.yul\":3820:3845   */\n      swap3\n      pop\n        /* \"#utility.yul\":3864:3865   */\n      dup3\n        /* \"#utility.yul\":3861:3862   */\n      dup3\n        /* \"#utility.yul\":3858:3866   */\n      lt\n        /* \"#utility.yul\":3855:3889   */\n      iszero\n      tag_87\n      jumpi\n        /* \"#utility.yul\":3869:3887   */\n      tag_88\n      tag_83\n      jump\t// in\n    tag_88:\n        /* \"#utility.yul\":3855:3889   */\n    tag_87:\n        /* \"#utility.yul\":3914:3915   */\n      dup3\n        /* \"#utility.yul\":3911:3912   */\n      dup3\n        /* \"#utility.yul\":3907:3916   */\n      sub\n        /* \"#utility.yul\":3899:3916   */\n      swap1\n      pop\n        /* \"#utility.yul\":3731:3922   */\n      swap3\n      swap2\n      pop\n      pop\n      jump\t// out\n        /* \"#utility.yul\":3928:4024   */\n    tag_50:\n        /* \"#utility.yul\":3965:3972   */\n      0x00\n        /* \"#utility.yul\":3994:4018   */\n      tag_90\n        /* \"#utility.yul\":4012:4017   */\n      dup3\n        /* \"#utility.yul\":3994:4018   */\n      tag_91\n      jump\t// in\n    tag_90:\n        /* \"#utility.yul\":3983:4018   */\n      swap1\n      pop\n        /* \"#utility.yul\":3928:4024   */\n      swap2\n      swap1\n      pop\n      jump\t// out\n        /* \"#utility.yul\":4030:4120   */\n    tag_54:\n        /* \"#utility.yul\":4064:4071   */\n      0x00\n        /* \"#utility.yul\":4107:4112   */\n      dup2\n        /* \"#utility.yul\":4100:4113   */\n      iszero\n        /* \"#utility.yul\":4093:4114   */\n      iszero\n        /* \"#utility.yul\":4082:4114   */\n      swap1\n      pop\n        /* \"#utility.yul\":4030:4120   */\n      swap2\n      swap1\n      pop\n      jump\t// out\n        /* \"#utility.yul\":4126:4252   */\n    tag_91:\n        /* \"#utility.yul\":4163:4170   */\n      0x00\n        /* \"#utility.yul\":4203:4245   */\n      0xffffffffffffffffffffffffffffffffffffffff\n        /* \"#utility.yul\":4196:4201   */\n      dup3\n        /* \"#utility.yul\":4192:4246   */\n      and\n        /* \"#utility.yul\":4181:4246   */\n      swap1\n      pop\n        /* \"#utility.yul\":4126:4252   */\n      swap2\n      swap1\n      pop\n      jump\t// out\n        /* \"#utility.yul\":4258:4335   */\n    tag_64:\n        /* \"#utility.yul\":4295:4302   */\n      0x00\n        /* \"#utility.yul\":4324:4329   */\n      dup2\n        /* \"#utility.yul\":4313:4329   */\n      swap1\n      pop\n        /* \"#utility.yul\":4258:4335   */\n      swap2\n      swap1\n      pop\n      jump\t// out\n        /* \"#utility.yul\":4341:4521   */\n    tag_83:\n        /* \"#utility.yul\":4389:4466   */\n      0x4e487b7100000000000000000000000000000000000000000000000000000000\n        /* \"#utility.yul\":4386:4387   */\n      0x00\n        /* \"#utility.yul\":4379:4467   */\n      mstore\n        /* \"#utility.yul\":4486:4490   */\n      0x11\n        /* \"#utility.yul\":4483:4484   */\n      0x04\n        /* \"#utility.yul\":4476:4491   */\n      mstore\n        /* \"#utility.yul\":4510:4514   */\n      0x24\n        /* \"#utility.yul\":4507:4508   */\n      0x00\n        /* \"#utility.yul\":4500:4515   */\n      revert\n        /* \"#utility.yul\":4650:4767   */\n    tag_40:\n        /* \"#utility.yul\":4759:4760   */\n      0x00\n        /* \"#utility.yul\":4756:4757   */\n      dup1\n        /* \"#utility.yul\":4749:4761   */\n      revert\n        /* \"#utility.yul\":4773:4944   */\n    tag_60:\n        /* \"#utility.yul\":4913:4936   */\n      0x596f7520617265206e6f7420746865206f776e65720000000000000000000000\n        /* \"#utility.yul\":4909:4910   */\n      0x00\n        /* \"#utility.yul\":4901:4907   */\n      dup3\n        /* \"#utility.yul\":4897:4911   */\n      add\n        /* \"#utility.yul\":4890:4937   */\n      mstore\n        /* \"#utility.yul\":4773:4944   */\n      pop\n      jump\t// out\n        /* \"#utility.yul\":4950:5072   */\n    tag_32:\n        /* \"#utility.yul\":5023:5047   */\n      tag_101\n        /* \"#utility.yul\":5041:5046   */\n      dup2\n        /* \"#utility.yul\":5023:5047   */\n      tag_50\n      jump\t// in\n    tag_101:\n        /* \"#utility.yul\":5016:5021   */\n      dup2\n        /* \"#utility.yul\":5013:5048   */\n      eq\n        /* \"#utility.yul\":5003:5066   */\n      tag_102\n      jumpi\n        /* \"#utility.yul\":5062:5063   */\n      0x00\n        /* \"#utility.yul\":5059:5060   */\n      dup1\n        /* \"#utility.yul\":5052:5064   */\n      revert\n        /* \"#utility.yul\":5003:5066   */\n    tag_102:\n        /* \"#utility.yul\":4950:5072   */\n      pop\n      jump\t// out\n        /* \"#utility.yul\":5078:5200   */\n    tag_36:\n        /* \"#utility.yul\":5151:5175   */\n      tag_104\n        /* \"#utility.yul\":5169:5174   */\n      dup2\n        /* \"#utility.yul\":5151:5175   */\n      tag_64\n      jump\t// in\n    tag_104:\n        /* \"#utility.yul\":5144:5149   */\n      dup2\n        /* \"#utility.yul\":5141:5176   */\n      eq\n        /* \"#utility.yul\":5131:5194   */\n      tag_105\n      jumpi\n        /* \"#utility.yul\":5190:5191   */\n      0x00\n        /* \"#utility.yul\":5187:5188   */\n      dup1\n        /* \"#utility.yul\":5180:5192   */\n      revert\n        /* \"#utility.yul\":5131:5194   */\n    tag_105:\n        /* \"#utility.yul\":5078:5200   */\n      pop\n      jump\t// out\n\n    auxdata: 0xa2646970667358221220c3f7b32162751872d4f4f652154d05f067ebf16980e0c0bbb12876c7dce5caaf64736f6c63430008070033\n}\n",
				"bytecode": {
					"linkReferences": {},
					"object": "608060405234801561001057600080fd5b5060646000803373ffffffffffffffffffffffffffffffffffffffff1673ffffffffffffffffffffffffffffffffffffffff1681526020019081526020016000208190555033600160006101000a81548173ffffffffffffffffffffffffffffffffffffffff021916908373ffffffffffffffffffffffffffffffffffffffff16021790555061054c806100a56000396000f3fe608060405234801561001057600080fd5b50600436106100365760003560e01c8063412664ae1461003b57806397b2544f1461006b575b600080fd5b6100556004803603810190610050919061028b565b61009b565b6040516100629190610352565b60405180910390f35b6100856004803603810190610080919061025e565b61021c565b604051610092919061038d565b60405180910390f35b6000600160009054906101000a900473ffffffffffffffffffffffffffffffffffffffff1673ffffffffffffffffffffffffffffffffffffffff163373ffffffffffffffffffffffffffffffffffffffff161461012d576040517f08c379a00000000000000000000000000000000000000000000000000000000081526004016101249061036d565b60405180910390fd5b816000803373ffffffffffffffffffffffffffffffffffffffff1673ffffffffffffffffffffffffffffffffffffffff168152602001908152602001600020600082825461017b919061040f565b92505081905550816000808573ffffffffffffffffffffffffffffffffffffffff1673ffffffffffffffffffffffffffffffffffffffff16815260200190815260200160002060008282546101d091906103b9565b925050819055507fe607861baff3d292b19188affe88c1a72bdcb69d3015f18bb2cd0bf5349cc3e133848460405161020a9392919061031b565b60405180910390a16001905092915050565b60006020528060005260406000206000915090505481565b600081359050610243816104e8565b92915050565b600081359050610258816104ff565b92915050565b600060208284031215610274576102736104ba565b5b600061028284828501610234565b91505092915050565b600080604083850312156102a2576102a16104ba565b5b60006102b085828601610234565b92505060206102c185828601610249565b9150509250929050565b6102d481610443565b82525050565b6102e381610455565b82525050565b60006102f66015836103a8565b9150610301826104bf565b602082019050919050565b61031581610481565b82525050565b600060608201905061033060008301866102cb565b61033d60208301856102cb565b61034a604083018461030c565b949350505050565b600060208201905061036760008301846102da565b92915050565b60006020820190508181036000830152610386816102e9565b9050919050565b60006020820190506103a2600083018461030c565b92915050565b600082825260208201905092915050565b60006103c482610481565b91506103cf83610481565b9250827fffffffffffffffffffffffffffffffffffffffffffffffffffffffffffffffff038211156104045761040361048b565b5b828201905092915050565b600061041a82610481565b915061042583610481565b9250828210156104385761043761048b565b5b828203905092915050565b600061044e82610461565b9050919050565b60008115159050919050565b600073ffffffffffffffffffffffffffffffffffffffff82169050919050565b6000819050919050565b7f4e487b7100000000000000000000000000000000000000000000000000000000600052601160045260246000fd5b600080fd5b7f596f7520617265206e6f7420746865206f776e65720000000000000000000000600082015250565b6104f181610443565b81146104fc57600080fd5b50565b61050881610481565b811461051357600080fd5b5056fea2646970667358221220c3f7b32162751872d4f4f652154d05f067ebf16980e0c0bbb12876c7dce5caaf64736f6c63430008070033",
					"opcodes": "PUSH1 0x80 PUSH1 0x40 MSTORE CALLVALUE DUP1 ISZERO PUSH2 0x10 JUMPI PUSH1 0x0 DUP1 REVERT JUMPDEST POP PUSH1 0x64 PUSH1 0x0 DUP1 CALLER PUSH20 0xFFFFFFFFFFFFFFFFFFFFFFFFFFFFFFFFFFFFFFFF AND PUSH20 0xFFFFFFFFFFFFFFFFFFFFFFFFFFFFFFFFFFFFFFFF AND DUP2 MSTORE PUSH1 0x20 ADD SWAP1 DUP2 MSTORE PUSH1 0x20 ADD PUSH1 0x0 KECCAK256 DUP2 SWAP1 SSTORE POP CALLER PUSH1 0x1 PUSH1 0x0 PUSH2 0x100 EXP DUP2 SLOAD DUP2 PUSH20 0xFFFFFFFFFFFFFFFFFFFFFFFFFFFFFFFFFFFFFFFF MUL NOT AND SWAP1 DUP4 PUSH20 0xFFFFFFFFFFFFFFFFFFFFFFFFFFFFFFFFFFFFFFFF AND MUL OR SWAP1 SSTORE POP PUSH2 0x54C DUP1 PUSH2 0xA5 PUSH1 0x0 CODECOPY PUSH1 0x0 RETURN INVALID PUSH1 0x80 PUSH1 0x40 MSTORE CALLVALUE DUP1 ISZERO PUSH2 0x10 JUMPI PUSH1 0x0 DUP1 REVERT JUMPDEST POP PUSH1 0x4 CALLDATASIZE LT PUSH2 0x36 JUMPI PUSH1 0x0 CALLDATALOAD PUSH1 0xE0 SHR DUP1 PUSH4 0x412664AE EQ PUSH2 0x3B JUMPI DUP1 PUSH4 0x97B2544F EQ PUSH2 0x6B JUMPI JUMPDEST PUSH1 0x0 DUP1 REVERT JUMPDEST PUSH2 0x55 PUSH1 0x4 DUP1 CALLDATASIZE SUB DUP2 ADD SWAP1 PUSH2 0x50 SWAP2 SWAP1 PUSH2 0x28B JUMP JUMPDEST PUSH2 0x9B JUMP JUMPDEST PUSH1 0x40 MLOAD PUSH2 0x62 SWAP2 SWAP1 PUSH2 0x352 JUMP JUMPDEST PUSH1 0x40 MLOAD DUP1 SWAP2 SUB SWAP1 RETURN JUMPDEST PUSH2 0x85 PUSH1 0x4 DUP1 CALLDATASIZE SUB DUP2 ADD SWAP1 PUSH2 0x80 SWAP2 SWAP1 PUSH2 0x25E JUMP JUMPDEST PUSH2 0x21C JUMP JUMPDEST PUSH1 0x40 MLOAD PUSH2 0x92 SWAP2 SWAP1 PUSH2 0x38D JUMP JUMPDEST PUSH1 0x40 MLOAD DUP1 SWAP2 SUB SWAP1 RETURN JUMPDEST PUSH1 0x0 PUSH1 0x1 PUSH1 0x0 SWAP1 SLOAD SWAP1 PUSH2 0x100 EXP SWAP1 DIV PUSH20 0xFFFFFFFFFFFFFFFFFFFFFFFFFFFFFFFFFFFFFFFF AND PUSH20 0xFFFFFFFFFFFFFFFFFFFFFFFFFFFFFFFFFFFFFFFF AND CALLER PUSH20 0xFFFFFFFFFFFFFFFFFFFFFFFFFFFFFFFFFFFFFFFF AND EQ PUSH2 0x12D JUMPI PUSH1 0x40 MLOAD PUSH32 0x8C379A000000000000000000000000000000000000000000000000000000000 DUP2 MSTORE PUSH1 0x4 ADD PUSH2 0x124 SWAP1 PUSH2 0x36D JUMP JUMPDEST PUSH1 0x40 MLOAD DUP1 SWAP2 SUB SWAP1 REVERT JUMPDEST DUP2 PUSH1 0x0 DUP1 CALLER PUSH20 0xFFFFFFFFFFFFFFFFFFFFFFFFFFFFFFFFFFFFFFFF AND PUSH20 0xFFFFFFFFFFFFFFFFFFFFFFFFFFFFFFFFFFFFFFFF AND DUP2 MSTORE PUSH1 0x20 ADD SWAP1 DUP2 MSTORE PUSH1 0x20 ADD PUSH1 0x0 KECCAK256 PUSH1 0x0 DUP3 DUP3 SLOAD PUSH2 0x17B SWAP2 SWAP1 PUSH2 0x40F JUMP JUMPDEST SWAP3 POP POP DUP2 SWAP1 SSTORE POP DUP2 PUSH1 0x0 DUP1 DUP6 PUSH20 0xFFFFFFFFFFFFFFFFFFFFFFFFFFFFFFFFFFFFFFFF AND PUSH20 0xFFFFFFFFFFFFFFFFFFFFFFFFFFFFFFFFFFFFFFFF AND DUP2 MSTORE PUSH1 0x20 ADD SWAP1 DUP2 MSTORE PUSH1 0x20 ADD PUSH1 0x0 KECCAK256 PUSH1 0x0 DUP3 DUP3 SLOAD PUSH2 0x1D0 SWAP2 SWAP1 PUSH2 0x3B9 JUMP JUMPDEST SWAP3 POP POP DUP2 SWAP1 SSTORE POP PUSH32 0xE607861BAFF3D292B19188AFFE88C1A72BDCB69D3015F18BB2CD0BF5349CC3E1 CALLER DUP5 DUP5 PUSH1 0x40 MLOAD PUSH2 0x20A SWAP4 SWAP3 SWAP2 SWAP1 PUSH2 0x31B JUMP JUMPDEST PUSH1 0x40 MLOAD DUP1 SWAP2 SUB SWAP1 LOG1 PUSH1 0x1 SWAP1 POP SWAP3 SWAP2 POP POP JUMP JUMPDEST PUSH1 0x0 PUSH1 0x20 MSTORE DUP1 PUSH1 0x0 MSTORE PUSH1 0x40 PUSH1 0x0 KECCAK256 PUSH1 0x0 SWAP2 POP SWAP1 POP SLOAD DUP2 JUMP JUMPDEST PUSH1 0x0 DUP2 CALLDATALOAD SWAP1 POP PUSH2 0x243 DUP2 PUSH2 0x4E8 JUMP JUMPDEST SWAP3 SWAP2 POP POP JUMP JUMPDEST PUSH1 0x0 DUP2 CALLDATALOAD SWAP1 POP PUSH2 0x258 DUP2 PUSH2 0x4FF JUMP JUMPDEST SWAP3 SWAP2 POP POP JUMP JUMPDEST PUSH1 0x0 PUSH1 0x20 DUP3 DUP5 SUB SLT ISZERO PUSH2 0x274 JUMPI PUSH2 0x273 PUSH2 0x4BA JUMP JUMPDEST JUMPDEST PUSH1 0x0 PUSH2 0x282 DUP5 DUP3 DUP6 ADD PUSH2 0x234 JUMP JUMPDEST SWAP2 POP POP SWAP3 SWAP2 POP POP JUMP JUMPDEST PUSH1 0x0 DUP1 PUSH1 0x40 DUP4 DUP6 SUB SLT ISZERO PUSH2 0x2A2 JUMPI PUSH2 0x2A1 PUSH2 0x4BA JUMP JUMPDEST JUMPDEST PUSH1 0x0 PUSH2 0x2B0 DUP6 DUP3 DUP7 ADD PUSH2 0x234 JUMP JUMPDEST SWAP3 POP POP PUSH1 0x20 PUSH2 0x2C1 DUP6 DUP3 DUP7 ADD PUSH2 0x249 JUMP JUMPDEST SWAP2 POP POP SWAP3 POP SWAP3 SWAP1 POP JUMP JUMPDEST PUSH2 0x2D4 DUP2 PUSH2 0x443 JUMP JUMPDEST DUP3 MSTORE POP POP JUMP JUMPDEST PUSH2 0x2E3 DUP2 PUSH2 0x455 JUMP JUMPDEST DUP3 MSTORE POP POP JUMP JUMPDEST PUSH1 0x0 PUSH2 0x2F6 PUSH1 0x15 DUP4 PUSH2 0x3A8 JUMP JUMPDEST SWAP2 POP PUSH2 0x301 DUP3 PUSH2 0x4BF JUMP JUMPDEST PUSH1 0x20 DUP3 ADD SWAP1 POP SWAP2 SWAP1 POP JUMP JUMPDEST PUSH2 0x315 DUP2 PUSH2 0x481 JUMP JUMPDEST DUP3 MSTORE POP POP JUMP JUMPDEST PUSH1 0x0 PUSH1 0x60 DUP3 ADD SWAP1 POP PUSH2 0x330 PUSH1 0x0 DUP4 ADD DUP7 PUSH2 0x2CB JUMP JUMPDEST PUSH2 0x33D PUSH1 0x20 DUP4 ADD DUP6 PUSH2 0x2CB JUMP JUMPDEST PUSH2 0x34A PUSH1 0x40 DUP4 ADD DUP5 PUSH2 0x30C JUMP JUMPDEST SWAP5 SWAP4 POP POP POP POP JUMP JUMPDEST PUSH1 0x0 PUSH1 0x20 DUP3 ADD SWAP1 POP PUSH2 0x367 PUSH1 0x0 DUP4 ADD DUP5 PUSH2 0x2DA JUMP JUMPDEST SWAP3 SWAP2 POP POP JUMP JUMPDEST PUSH1 0x0 PUSH1 0x20 DUP3 ADD SWAP1 POP DUP2 DUP2 SUB PUSH1 0x0 DUP4 ADD MSTORE PUSH2 0x386 DUP2 PUSH2 0x2E9 JUMP JUMPDEST SWAP1 POP SWAP2 SWAP1 POP JUMP JUMPDEST PUSH1 0x0 PUSH1 0x20 DUP3 ADD SWAP1 POP PUSH2 0x3A2 PUSH1 0x0 DUP4 ADD DUP5 PUSH2 0x30C JUMP JUMPDEST SWAP3 SWAP2 POP POP JUMP JUMPDEST PUSH1 0x0 DUP3 DUP3 MSTORE PUSH1 0x20 DUP3 ADD SWAP1 POP SWAP3 SWAP2 POP POP JUMP JUMPDEST PUSH1 0x0 PUSH2 0x3C4 DUP3 PUSH2 0x481 JUMP JUMPDEST SWAP2 POP PUSH2 0x3CF DUP4 PUSH2 0x481 JUMP JUMPDEST SWAP3 POP DUP3 PUSH32 0xFFFFFFFFFFFFFFFFFFFFFFFFFFFFFFFFFFFFFFFFFFFFFFFFFFFFFFFFFFFFFFFF SUB DUP3 GT ISZERO PUSH2 0x404 JUMPI PUSH2 0x403 PUSH2 0x48B JUMP JUMPDEST JUMPDEST DUP3 DUP3 ADD SWAP1 POP SWAP3 SWAP2 POP POP JUMP JUMPDEST PUSH1 0x0 PUSH2 0x41A DUP3 PUSH2 0x481 JUMP JUMPDEST SWAP2 POP PUSH2 0x425 DUP4 PUSH2 0x481 JUMP JUMPDEST SWAP3 POP DUP3 DUP3 LT ISZERO PUSH2 0x438 JUMPI PUSH2 0x437 PUSH2 0x48B JUMP JUMPDEST JUMPDEST DUP3 DUP3 SUB SWAP1 POP SWAP3 SWAP2 POP POP JUMP JUMPDEST PUSH1 0x0 PUSH2 0x44E DUP3 PUSH2 0x461 JUMP JUMPDEST SWAP1 POP SWAP2 SWAP1 POP JUMP JUMPDEST PUSH1 0x0 DUP2 ISZERO ISZERO SWAP1 POP SWAP2 SWAP1 POP JUMP JUMPDEST PUSH1 0x0 PUSH20 0xFFFFFFFFFFFFFFFFFFFFFFFFFFFFFFFFFFFFFFFF DUP3 AND SWAP1 POP SWAP2 SWAP1 POP JUMP JUMPDEST PUSH1 0x0 DUP2 SWAP1 POP SWAP2 SWAP1 POP JUMP JUMPDEST PUSH32 0x4E487B7100000000000000000000000000000000000000000000000000000000 PUSH1 0x0 MSTORE PUSH1 0x11 PUSH1 0x4 MSTORE PUSH1 0x24 PUSH1 0x0 REVERT JUMPDEST PUSH1 0x0 DUP1 REVERT JUMPDEST PUSH32 0x596F7520617265206E6F7420746865206F776E65720000000000000000000000 PUSH1 0x0 DUP3 ADD MSTORE POP JUMP JUMPDEST PUSH2 0x4F1 DUP2 PUSH2 0x443 JUMP JUMPDEST DUP2 EQ PUSH2 0x4FC JUMPI PUSH1 0x0 DUP1 REVERT JUMPDEST POP JUMP JUMPDEST PUSH2 0x508 DUP2 PUSH2 0x481 JUMP JUMPDEST DUP2 EQ PUSH2 0x513 JUMPI PUSH1 0x0 DUP1 REVERT JUMPDEST POP JUMP INVALID LOG2 PUSH5 0x6970667358 0x22 SLT KECCAK256 0xC3 0xF7 0xB3 0x21 PUSH3 0x751872 0xD4 DELEGATECALL 0xF6 MSTORE ISZERO 0x4D SDIV CREATE PUSH8 0xEBF16980E0C0BBB1 0x28 PUSH23 0xC7DCE5CAAF64736F6C6343000807003300000000000000 "
				},
				"gasEstimates": {
					"creation": {
						"codeDepositCost": "271200",
						"executionCost": "46781",
						"totalCost": "317981"
					},
					"external": {
						"sendToken(address,uint256)": "infinite",
						"tokenAvailable(address)": "2814"
					}
				},
				"methodIdentifiers": {
					"sendToken(address,uint256)": "412664ae",
					"tokenAvailable(address)": "97b2544f"
				}
			},
			"userdoc": {
				"kind": "user",
				"methods": {},
				"version": 1
			}
		}
	}
}