{
	"contract/SimpleMappingStruct.sol": {
		"SimpleMappingStruct": {
			"abi": [
				{
					"inputs": [
						{
							"internalType": "address",
							"name": "",
							"type": "address"
						}
					],
					"name": "balanceReceived",
					"outputs": [
						{
							"internalType": "uint256",
							"name": "totalBalance",
							"type": "uint256"
						},
						{
							"internalType": "uint256",
							"name": "numberOfPayments",
							"type": "uint256"
						}
					],
					"stateMutability": "view",
					"type": "function"
				},
				{
					"inputs": [],
					"name": "getAmount",
					"outputs": [
						{
							"internalType": "uint256",
							"name": "",
							"type": "uint256"
						}
					],
					"stateMutability": "view",
					"type": "function"
				},
				{
					"inputs": [],
					"name": "sendMoney",
					"outputs": [],
					"stateMutability": "payable",
					"type": "function"
				},
				{
					"inputs": [
						{
							"internalType": "address payable",
							"name": "_to",
							"type": "address"
						}
					],
					"name": "withdrawAllMoney",
					"outputs": [],
					"stateMutability": "nonpayable",
					"type": "function"
				},
				{
					"inputs": [
						{
							"internalType": "address payable",
							"name": "_to",
							"type": "address"
						},
						{
							"internalType": "uint256",
							"name": "_amount",
							"type": "uint256"
						}
					],
					"name": "withdrawAmount",
					"outputs": [],
					"stateMutability": "nonpayable",
					"type": "function"
				}
			],
			"devdoc": {
				"kind": "dev",
				"methods": {},
				"version": 1
			},
			"evm": {
				"assembly": "    /* \"contract/SimpleMappingStruct.sol\":59:1973  contract SimpleMappingStruct {\r... */\n  mstore(0x40, 0x80)\n  callvalue\n  dup1\n  iszero\n  tag_1\n  jumpi\n  0x00\n  dup1\n  revert\ntag_1:\n  pop\n  dataSize(sub_0)\n  dup1\n  dataOffset(sub_0)\n  0x00\n  codecopy\n  0x00\n  return\nstop\n\nsub_0: assembly {\n        /* \"contract/SimpleMappingStruct.sol\":59:1973  contract SimpleMappingStruct {\r... */\n      mstore(0x40, 0x80)\n      jumpi(tag_1, lt(calldatasize, 0x04))\n      shr(0xe0, calldataload(0x00))\n      dup1\n      0x0adec93c\n      eq\n      tag_2\n      jumpi\n      dup1\n      0x736fe565\n      eq\n      tag_3\n      jumpi\n      dup1\n      0xcbedbf5a\n      eq\n      tag_4\n      jumpi\n      dup1\n      0xd18a42e1\n      eq\n      tag_5\n      jumpi\n      dup1\n      0xd321fe29\n      eq\n      tag_6\n      jumpi\n    tag_1:\n      0x00\n      dup1\n      revert\n        /* \"contract/SimpleMappingStruct.sol\":925:1579  function withdrawAllMoney(address payable _to) public {\r... */\n    tag_2:\n      callvalue\n      dup1\n      iszero\n      tag_7\n      jumpi\n      0x00\n      dup1\n      revert\n    tag_7:\n      pop\n      tag_8\n      0x04\n      dup1\n      calldatasize\n      sub\n      dup2\n      add\n      swap1\n      tag_9\n      swap2\n      swap1\n      tag_10\n      jump\t// in\n    tag_9:\n      tag_11\n      jump\t// in\n    tag_8:\n      stop\n        /* \"contract/SimpleMappingStruct.sol\":1645:1970  function withdrawAmount(address payable _to, uint _amount) public {\r... */\n    tag_3:\n      callvalue\n      dup1\n      iszero\n      tag_12\n      jumpi\n      0x00\n      dup1\n      revert\n    tag_12:\n      pop\n      tag_13\n      0x04\n      dup1\n      calldatasize\n      sub\n      dup2\n      add\n      swap1\n      tag_14\n      swap2\n      swap1\n      tag_15\n      jump\t// in\n    tag_14:\n      tag_16\n      jump\t// in\n    tag_13:\n      stop\n        /* \"contract/SimpleMappingStruct.sol\":468:808  function sendMoney() public payable{\r... */\n    tag_4:\n      tag_17\n      tag_18\n      jump\t// in\n    tag_17:\n      stop\n        /* \"contract/SimpleMappingStruct.sol\":308:358  mapping(address => Balance) public balanceReceived */\n    tag_5:\n      callvalue\n      dup1\n      iszero\n      tag_19\n      jumpi\n      0x00\n      dup1\n      revert\n    tag_19:\n      pop\n      tag_20\n      0x04\n      dup1\n      calldatasize\n      sub\n      dup2\n      add\n      swap1\n      tag_21\n      swap2\n      swap1\n      tag_22\n      jump\t// in\n    tag_21:\n      tag_23\n      jump\t// in\n    tag_20:\n      mload(0x40)\n      tag_24\n      swap3\n      swap2\n      swap1\n      tag_25\n      jump\t// in\n    tag_24:\n      mload(0x40)\n      dup1\n      swap2\n      sub\n      swap1\n      return\n        /* \"contract/SimpleMappingStruct.sol\":367:460  function getAmount() public view returns(uint){\r... */\n    tag_6:\n      callvalue\n      dup1\n      iszero\n      tag_26\n      jumpi\n      0x00\n      dup1\n      revert\n    tag_26:\n      pop\n      tag_27\n      tag_28\n      jump\t// in\n    tag_27:\n      mload(0x40)\n      tag_29\n      swap2\n      swap1\n      tag_30\n      jump\t// in\n    tag_29:\n      mload(0x40)\n      dup1\n      swap2\n      sub\n      swap1\n      return\n        /* \"contract/SimpleMappingStruct.sol\":925:1579  function withdrawAllMoney(address payable _to) public {\r... */\n    tag_11:\n        /* \"contract/SimpleMappingStruct.sol\":1320:1336  uint balanceSend */\n      0x00\n        /* \"contract/SimpleMappingStruct.sol\":1339:1354  balanceReceived */\n      dup1\n        /* \"contract/SimpleMappingStruct.sol\":1339:1366  balanceReceived[msg.sender] */\n      0x00\n        /* \"contract/SimpleMappingStruct.sol\":1355:1365  msg.sender */\n      caller\n        /* \"contract/SimpleMappingStruct.sol\":1339:1366  balanceReceived[msg.sender] */\n      0xffffffffffffffffffffffffffffffffffffffff\n      and\n      0xffffffffffffffffffffffffffffffffffffffff\n      and\n      dup2\n      mstore\n      0x20\n      add\n      swap1\n      dup2\n      mstore\n      0x20\n      add\n      0x00\n      keccak256\n        /* \"contract/SimpleMappingStruct.sol\":1339:1379  balanceReceived[msg.sender].totalBalance */\n      0x00\n      add\n      sload\n        /* \"contract/SimpleMappingStruct.sol\":1320:1379  uint balanceSend = balanceReceived[msg.sender].totalBalance */\n      swap1\n      pop\n        /* \"contract/SimpleMappingStruct.sol\":1433:1434  0 */\n      0x00\n        /* \"contract/SimpleMappingStruct.sol\":1390:1405  balanceReceived */\n      dup1\n        /* \"contract/SimpleMappingStruct.sol\":1390:1417  balanceReceived[msg.sender] */\n      0x00\n        /* \"contract/SimpleMappingStruct.sol\":1406:1416  msg.sender */\n      caller\n        /* \"contract/SimpleMappingStruct.sol\":1390:1417  balanceReceived[msg.sender] */\n      0xffffffffffffffffffffffffffffffffffffffff\n      and\n      0xffffffffffffffffffffffffffffffffffffffff\n      and\n      dup2\n      mstore\n      0x20\n      add\n      swap1\n      dup2\n      mstore\n      0x20\n      add\n      0x00\n      keccak256\n        /* \"contract/SimpleMappingStruct.sol\":1390:1430  balanceReceived[msg.sender].totalBalance */\n      0x00\n      add\n        /* \"contract/SimpleMappingStruct.sol\":1390:1434  balanceReceived[msg.sender].totalBalance = 0 */\n      dup2\n      swap1\n      sstore\n      pop\n        /* \"contract/SimpleMappingStruct.sol\":1544:1547  _to */\n      dup2\n        /* \"contract/SimpleMappingStruct.sol\":1544:1556  _to.transfer */\n      0xffffffffffffffffffffffffffffffffffffffff\n      and\n        /* \"contract/SimpleMappingStruct.sol\":1544:1569  _to.transfer(balanceSend) */\n      0x08fc\n        /* \"contract/SimpleMappingStruct.sol\":1557:1568  balanceSend */\n      dup3\n        /* \"contract/SimpleMappingStruct.sol\":1544:1569  _to.transfer(balanceSend) */\n      swap1\n      dup2\n      iszero\n      mul\n      swap1\n      mload(0x40)\n      0x00\n      mload(0x40)\n      dup1\n      dup4\n      sub\n      dup2\n      dup6\n      dup9\n      dup9\n      call\n      swap4\n      pop\n      pop\n      pop\n      pop\n      iszero\n      dup1\n      iszero\n      tag_33\n      jumpi\n      returndatasize\n      0x00\n      dup1\n      returndatacopy\n      revert(0x00, returndatasize)\n    tag_33:\n      pop\n        /* \"contract/SimpleMappingStruct.sol\":979:1579  {\r... */\n      pop\n        /* \"contract/SimpleMappingStruct.sol\":925:1579  function withdrawAllMoney(address payable _to) public {\r... */\n      pop\n      jump\t// out\n        /* \"contract/SimpleMappingStruct.sol\":1645:1970  function withdrawAmount(address payable _to, uint _amount) public {\r... */\n    tag_16:\n        /* \"contract/SimpleMappingStruct.sol\":1774:1781  _amount */\n      dup1\n        /* \"contract/SimpleMappingStruct.sol\":1730:1745  balanceReceived */\n      0x00\n        /* \"contract/SimpleMappingStruct.sol\":1730:1757  balanceReceived[msg.sender] */\n      dup1\n        /* \"contract/SimpleMappingStruct.sol\":1746:1756  msg.sender */\n      caller\n        /* \"contract/SimpleMappingStruct.sol\":1730:1757  balanceReceived[msg.sender] */\n      0xffffffffffffffffffffffffffffffffffffffff\n      and\n      0xffffffffffffffffffffffffffffffffffffffff\n      and\n      dup2\n      mstore\n      0x20\n      add\n      swap1\n      dup2\n      mstore\n      0x20\n      add\n      0x00\n      keccak256\n        /* \"contract/SimpleMappingStruct.sol\":1730:1770  balanceReceived[msg.sender].totalBalance */\n      0x00\n      add\n      sload\n        /* \"contract/SimpleMappingStruct.sol\":1730:1781  balanceReceived[msg.sender].totalBalance >= _amount */\n      lt\n      iszero\n        /* \"contract/SimpleMappingStruct.sol\":1722:1803  require(balanceReceived[msg.sender].totalBalance >= _amount, \"not  enough ether\") */\n      tag_35\n      jumpi\n      mload(0x40)\n      0x08c379a000000000000000000000000000000000000000000000000000000000\n      dup2\n      mstore\n      0x04\n      add\n      tag_36\n      swap1\n      tag_37\n      jump\t// in\n    tag_36:\n      mload(0x40)\n      dup1\n      swap2\n      sub\n      swap1\n      revert\n    tag_35:\n        /* \"contract/SimpleMappingStruct.sol\":1858:1865  _amount */\n      dup1\n        /* \"contract/SimpleMappingStruct.sol\":1814:1829  balanceReceived */\n      0x00\n        /* \"contract/SimpleMappingStruct.sol\":1814:1841  balanceReceived[msg.sender] */\n      dup1\n        /* \"contract/SimpleMappingStruct.sol\":1830:1840  msg.sender */\n      caller\n        /* \"contract/SimpleMappingStruct.sol\":1814:1841  balanceReceived[msg.sender] */\n      0xffffffffffffffffffffffffffffffffffffffff\n      and\n      0xffffffffffffffffffffffffffffffffffffffff\n      and\n      dup2\n      mstore\n      0x20\n      add\n      swap1\n      dup2\n      mstore\n      0x20\n      add\n      0x00\n      keccak256\n        /* \"contract/SimpleMappingStruct.sol\":1814:1854  balanceReceived[msg.sender].totalBalance */\n      0x00\n      add\n      0x00\n        /* \"contract/SimpleMappingStruct.sol\":1814:1865  balanceReceived[msg.sender].totalBalance -= _amount */\n      dup3\n      dup3\n      sload\n      tag_38\n      swap2\n      swap1\n      tag_39\n      jump\t// in\n    tag_38:\n      swap3\n      pop\n      pop\n      dup2\n      swap1\n      sstore\n      pop\n        /* \"contract/SimpleMappingStruct.sol\":1939:1942  _to */\n      dup2\n        /* \"contract/SimpleMappingStruct.sol\":1939:1951  _to.transfer */\n      0xffffffffffffffffffffffffffffffffffffffff\n      and\n        /* \"contract/SimpleMappingStruct.sol\":1939:1960  _to.transfer(_amount) */\n      0x08fc\n        /* \"contract/SimpleMappingStruct.sol\":1952:1959  _amount */\n      dup3\n        /* \"contract/SimpleMappingStruct.sol\":1939:1960  _to.transfer(_amount) */\n      swap1\n      dup2\n      iszero\n      mul\n      swap1\n      mload(0x40)\n      0x00\n      mload(0x40)\n      dup1\n      dup4\n      sub\n      dup2\n      dup6\n      dup9\n      dup9\n      call\n      swap4\n      pop\n      pop\n      pop\n      pop\n      iszero\n      dup1\n      iszero\n      tag_41\n      jumpi\n      returndatasize\n      0x00\n      dup1\n      returndatacopy\n      revert(0x00, returndatasize)\n    tag_41:\n      pop\n        /* \"contract/SimpleMappingStruct.sol\":1645:1970  function withdrawAmount(address payable _to, uint _amount) public {\r... */\n      pop\n      pop\n      jump\t// out\n        /* \"contract/SimpleMappingStruct.sol\":468:808  function sendMoney() public payable{\r... */\n    tag_18:\n        /* \"contract/SimpleMappingStruct.sol\":558:567  msg.value */\n      callvalue\n        /* \"contract/SimpleMappingStruct.sol\":514:529  balanceReceived */\n      0x00\n        /* \"contract/SimpleMappingStruct.sol\":514:541  balanceReceived[msg.sender] */\n      dup1\n        /* \"contract/SimpleMappingStruct.sol\":530:540  msg.sender */\n      caller\n        /* \"contract/SimpleMappingStruct.sol\":514:541  balanceReceived[msg.sender] */\n      0xffffffffffffffffffffffffffffffffffffffff\n      and\n      0xffffffffffffffffffffffffffffffffffffffff\n      and\n      dup2\n      mstore\n      0x20\n      add\n      swap1\n      dup2\n      mstore\n      0x20\n      add\n      0x00\n      keccak256\n        /* \"contract/SimpleMappingStruct.sol\":514:554  balanceReceived[msg.sender].totalBalance */\n      0x00\n      add\n      0x00\n        /* \"contract/SimpleMappingStruct.sol\":514:567  balanceReceived[msg.sender].totalBalance += msg.value */\n      dup3\n      dup3\n      sload\n      tag_43\n      swap2\n      swap1\n      tag_44\n      jump\t// in\n    tag_43:\n      swap3\n      pop\n      pop\n      dup2\n      swap1\n      sstore\n      pop\n        /* \"contract/SimpleMappingStruct.sol\":578:600  Payment memory payment */\n      0x00\n        /* \"contract/SimpleMappingStruct.sol\":603:638  Payment(msg.value, block.timestamp) */\n      mload(0x40)\n      dup1\n      0x40\n      add\n      0x40\n      mstore\n      dup1\n        /* \"contract/SimpleMappingStruct.sol\":611:620  msg.value */\n      callvalue\n        /* \"contract/SimpleMappingStruct.sol\":603:638  Payment(msg.value, block.timestamp) */\n      dup2\n      mstore\n      0x20\n      add\n        /* \"contract/SimpleMappingStruct.sol\":622:637  block.timestamp */\n      timestamp\n        /* \"contract/SimpleMappingStruct.sol\":603:638  Payment(msg.value, block.timestamp) */\n      dup2\n      mstore\n      pop\n        /* \"contract/SimpleMappingStruct.sol\":578:638  Payment memory payment = Payment(msg.value, block.timestamp) */\n      swap1\n      pop\n        /* \"contract/SimpleMappingStruct.sol\":736:743  payment */\n      dup1\n        /* \"contract/SimpleMappingStruct.sol\":651:666  balanceReceived */\n      0x00\n        /* \"contract/SimpleMappingStruct.sol\":651:678  balanceReceived[msg.sender] */\n      dup1\n        /* \"contract/SimpleMappingStruct.sol\":667:677  msg.sender */\n      caller\n        /* \"contract/SimpleMappingStruct.sol\":651:678  balanceReceived[msg.sender] */\n      0xffffffffffffffffffffffffffffffffffffffff\n      and\n      0xffffffffffffffffffffffffffffffffffffffff\n      and\n      dup2\n      mstore\n      0x20\n      add\n      swap1\n      dup2\n      mstore\n      0x20\n      add\n      0x00\n      keccak256\n        /* \"contract/SimpleMappingStruct.sol\":651:687  balanceReceived[msg.sender].payments */\n      0x02\n      add\n        /* \"contract/SimpleMappingStruct.sol\":651:733  balanceReceived[msg.sender].payments[balanceReceived[msg.sender].numberOfPayments] */\n      0x00\n        /* \"contract/SimpleMappingStruct.sol\":688:703  balanceReceived */\n      dup1\n        /* \"contract/SimpleMappingStruct.sol\":688:715  balanceReceived[msg.sender] */\n      0x00\n        /* \"contract/SimpleMappingStruct.sol\":704:714  msg.sender */\n      caller\n        /* \"contract/SimpleMappingStruct.sol\":688:715  balanceReceived[msg.sender] */\n      0xffffffffffffffffffffffffffffffffffffffff\n      and\n      0xffffffffffffffffffffffffffffffffffffffff\n      and\n      dup2\n      mstore\n      0x20\n      add\n      swap1\n      dup2\n      mstore\n      0x20\n      add\n      0x00\n      keccak256\n        /* \"contract/SimpleMappingStruct.sol\":688:732  balanceReceived[msg.sender].numberOfPayments */\n      0x01\n      add\n      sload\n        /* \"contract/SimpleMappingStruct.sol\":651:733  balanceReceived[msg.sender].payments[balanceReceived[msg.sender].numberOfPayments] */\n      dup2\n      mstore\n      0x20\n      add\n      swap1\n      dup2\n      mstore\n      0x20\n      add\n      0x00\n      keccak256\n        /* \"contract/SimpleMappingStruct.sol\":651:743  balanceReceived[msg.sender].payments[balanceReceived[msg.sender].numberOfPayments] = payment */\n      0x00\n      dup3\n      add\n      mload\n      dup2\n      0x00\n      add\n      sstore\n      0x20\n      dup3\n      add\n      mload\n      dup2\n      0x01\n      add\n      sstore\n      swap1\n      pop\n      pop\n        /* \"contract/SimpleMappingStruct.sol\":754:769  balanceReceived */\n      0x00\n        /* \"contract/SimpleMappingStruct.sol\":754:781  balanceReceived[msg.sender] */\n      dup1\n        /* \"contract/SimpleMappingStruct.sol\":770:780  msg.sender */\n      caller\n        /* \"contract/SimpleMappingStruct.sol\":754:781  balanceReceived[msg.sender] */\n      0xffffffffffffffffffffffffffffffffffffffff\n      and\n      0xffffffffffffffffffffffffffffffffffffffff\n      and\n      dup2\n      mstore\n      0x20\n      add\n      swap1\n      dup2\n      mstore\n      0x20\n      add\n      0x00\n      keccak256\n        /* \"contract/SimpleMappingStruct.sol\":754:798  balanceReceived[msg.sender].numberOfPayments */\n      0x01\n      add\n      0x00\n        /* \"contract/SimpleMappingStruct.sol\":754:800  balanceReceived[msg.sender].numberOfPayments++ */\n      dup2\n      sload\n      dup1\n      swap3\n      swap2\n      swap1\n      tag_45\n      swap1\n      tag_46\n      jump\t// in\n    tag_45:\n      swap2\n      swap1\n      pop\n      sstore\n      pop\n        /* \"contract/SimpleMappingStruct.sol\":503:808  {\r... */\n      pop\n        /* \"contract/SimpleMappingStruct.sol\":468:808  function sendMoney() public payable{\r... */\n      jump\t// out\n        /* \"contract/SimpleMappingStruct.sol\":308:358  mapping(address => Balance) public balanceReceived */\n    tag_23:\n      mstore(0x20, 0x00)\n      dup1\n      0x00\n      mstore\n      keccak256(0x00, 0x40)\n      0x00\n      swap2\n      pop\n      swap1\n      pop\n      dup1\n      0x00\n      add\n      sload\n      swap1\n      dup1\n      0x01\n      add\n      sload\n      swap1\n      pop\n      dup3\n      jump\t// out\n        /* \"contract/SimpleMappingStruct.sol\":367:460  function getAmount() public view returns(uint){\r... */\n    tag_28:\n        /* \"contract/SimpleMappingStruct.sol\":408:412  uint */\n      0x00\n        /* \"contract/SimpleMappingStruct.sol\":431:452  address(this).balance */\n      selfbalance\n        /* \"contract/SimpleMappingStruct.sol\":424:452  return address(this).balance */\n      swap1\n      pop\n        /* \"contract/SimpleMappingStruct.sol\":367:460  function getAmount() public view returns(uint){\r... */\n      swap1\n      jump\t// out\n        /* \"#utility.yul\":7:146   */\n    tag_49:\n        /* \"#utility.yul\":53:58   */\n      0x00\n        /* \"#utility.yul\":91:97   */\n      dup2\n        /* \"#utility.yul\":78:98   */\n      calldataload\n        /* \"#utility.yul\":69:98   */\n      swap1\n      pop\n        /* \"#utility.yul\":107:140   */\n      tag_51\n        /* \"#utility.yul\":134:139   */\n      dup2\n        /* \"#utility.yul\":107:140   */\n      tag_52\n      jump\t// in\n    tag_51:\n        /* \"#utility.yul\":7:146   */\n      swap3\n      swap2\n      pop\n      pop\n      jump\t// out\n        /* \"#utility.yul\":152:307   */\n    tag_53:\n        /* \"#utility.yul\":206:211   */\n      0x00\n        /* \"#utility.yul\":244:250   */\n      dup2\n        /* \"#utility.yul\":231:251   */\n      calldataload\n        /* \"#utility.yul\":222:251   */\n      swap1\n      pop\n        /* \"#utility.yul\":260:301   */\n      tag_55\n        /* \"#utility.yul\":295:300   */\n      dup2\n        /* \"#utility.yul\":260:301   */\n      tag_56\n      jump\t// in\n    tag_55:\n        /* \"#utility.yul\":152:307   */\n      swap3\n      swap2\n      pop\n      pop\n      jump\t// out\n        /* \"#utility.yul\":313:452   */\n    tag_57:\n        /* \"#utility.yul\":359:364   */\n      0x00\n        /* \"#utility.yul\":397:403   */\n      dup2\n        /* \"#utility.yul\":384:404   */\n      calldataload\n        /* \"#utility.yul\":375:404   */\n      swap1\n      pop\n        /* \"#utility.yul\":413:446   */\n      tag_59\n        /* \"#utility.yul\":440:445   */\n      dup2\n        /* \"#utility.yul\":413:446   */\n      tag_60\n      jump\t// in\n    tag_59:\n        /* \"#utility.yul\":313:452   */\n      swap3\n      swap2\n      pop\n      pop\n      jump\t// out\n        /* \"#utility.yul\":458:787   */\n    tag_22:\n        /* \"#utility.yul\":517:523   */\n      0x00\n        /* \"#utility.yul\":566:568   */\n      0x20\n        /* \"#utility.yul\":554:563   */\n      dup3\n        /* \"#utility.yul\":545:552   */\n      dup5\n        /* \"#utility.yul\":541:564   */\n      sub\n        /* \"#utility.yul\":537:569   */\n      slt\n        /* \"#utility.yul\":534:653   */\n      iszero\n      tag_62\n      jumpi\n        /* \"#utility.yul\":572:651   */\n      tag_63\n      tag_64\n      jump\t// in\n    tag_63:\n        /* \"#utility.yul\":534:653   */\n    tag_62:\n        /* \"#utility.yul\":692:693   */\n      0x00\n        /* \"#utility.yul\":717:770   */\n      tag_65\n        /* \"#utility.yul\":762:769   */\n      dup5\n        /* \"#utility.yul\":753:759   */\n      dup3\n        /* \"#utility.yul\":742:751   */\n      dup6\n        /* \"#utility.yul\":738:760   */\n      add\n        /* \"#utility.yul\":717:770   */\n      tag_49\n      jump\t// in\n    tag_65:\n        /* \"#utility.yul\":707:770   */\n      swap2\n      pop\n        /* \"#utility.yul\":663:780   */\n      pop\n        /* \"#utility.yul\":458:787   */\n      swap3\n      swap2\n      pop\n      pop\n      jump\t// out\n        /* \"#utility.yul\":793:1138   */\n    tag_10:\n        /* \"#utility.yul\":860:866   */\n      0x00\n        /* \"#utility.yul\":909:911   */\n      0x20\n        /* \"#utility.yul\":897:906   */\n      dup3\n        /* \"#utility.yul\":888:895   */\n      dup5\n        /* \"#utility.yul\":884:907   */\n      sub\n        /* \"#utility.yul\":880:912   */\n      slt\n        /* \"#utility.yul\":877:996   */\n      iszero\n      tag_67\n      jumpi\n        /* \"#utility.yul\":915:994   */\n      tag_68\n      tag_64\n      jump\t// in\n    tag_68:\n        /* \"#utility.yul\":877:996   */\n    tag_67:\n        /* \"#utility.yul\":1035:1036   */\n      0x00\n        /* \"#utility.yul\":1060:1121   */\n      tag_69\n        /* \"#utility.yul\":1113:1120   */\n      dup5\n        /* \"#utility.yul\":1104:1110   */\n      dup3\n        /* \"#utility.yul\":1093:1102   */\n      dup6\n        /* \"#utility.yul\":1089:1111   */\n      add\n        /* \"#utility.yul\":1060:1121   */\n      tag_53\n      jump\t// in\n    tag_69:\n        /* \"#utility.yul\":1050:1121   */\n      swap2\n      pop\n        /* \"#utility.yul\":1006:1131   */\n      pop\n        /* \"#utility.yul\":793:1138   */\n      swap3\n      swap2\n      pop\n      pop\n      jump\t// out\n        /* \"#utility.yul\":1144:1634   */\n    tag_15:\n        /* \"#utility.yul\":1220:1226   */\n      0x00\n        /* \"#utility.yul\":1228:1234   */\n      dup1\n        /* \"#utility.yul\":1277:1279   */\n      0x40\n        /* \"#utility.yul\":1265:1274   */\n      dup4\n        /* \"#utility.yul\":1256:1263   */\n      dup6\n        /* \"#utility.yul\":1252:1275   */\n      sub\n        /* \"#utility.yul\":1248:1280   */\n      slt\n        /* \"#utility.yul\":1245:1364   */\n      iszero\n      tag_71\n      jumpi\n        /* \"#utility.yul\":1283:1362   */\n      tag_72\n      tag_64\n      jump\t// in\n    tag_72:\n        /* \"#utility.yul\":1245:1364   */\n    tag_71:\n        /* \"#utility.yul\":1403:1404   */\n      0x00\n        /* \"#utility.yul\":1428:1489   */\n      tag_73\n        /* \"#utility.yul\":1481:1488   */\n      dup6\n        /* \"#utility.yul\":1472:1478   */\n      dup3\n        /* \"#utility.yul\":1461:1470   */\n      dup7\n        /* \"#utility.yul\":1457:1479   */\n      add\n        /* \"#utility.yul\":1428:1489   */\n      tag_53\n      jump\t// in\n    tag_73:\n        /* \"#utility.yul\":1418:1489   */\n      swap3\n      pop\n        /* \"#utility.yul\":1374:1499   */\n      pop\n        /* \"#utility.yul\":1538:1540   */\n      0x20\n        /* \"#utility.yul\":1564:1617   */\n      tag_74\n        /* \"#utility.yul\":1609:1616   */\n      dup6\n        /* \"#utility.yul\":1600:1606   */\n      dup3\n        /* \"#utility.yul\":1589:1598   */\n      dup7\n        /* \"#utility.yul\":1585:1607   */\n      add\n        /* \"#utility.yul\":1564:1617   */\n      tag_57\n      jump\t// in\n    tag_74:\n        /* \"#utility.yul\":1554:1617   */\n      swap2\n      pop\n        /* \"#utility.yul\":1509:1627   */\n      pop\n        /* \"#utility.yul\":1144:1634   */\n      swap3\n      pop\n      swap3\n      swap1\n      pop\n      jump\t// out\n        /* \"#utility.yul\":1640:2006   */\n    tag_75:\n        /* \"#utility.yul\":1782:1785   */\n      0x00\n        /* \"#utility.yul\":1803:1870   */\n      tag_77\n        /* \"#utility.yul\":1867:1869   */\n      0x11\n        /* \"#utility.yul\":1862:1865   */\n      dup4\n        /* \"#utility.yul\":1803:1870   */\n      tag_78\n      jump\t// in\n    tag_77:\n        /* \"#utility.yul\":1796:1870   */\n      swap2\n      pop\n        /* \"#utility.yul\":1879:1972   */\n      tag_79\n        /* \"#utility.yul\":1968:1971   */\n      dup3\n        /* \"#utility.yul\":1879:1972   */\n      tag_80\n      jump\t// in\n    tag_79:\n        /* \"#utility.yul\":1997:1999   */\n      0x20\n        /* \"#utility.yul\":1992:1995   */\n      dup3\n        /* \"#utility.yul\":1988:2000   */\n      add\n        /* \"#utility.yul\":1981:2000   */\n      swap1\n      pop\n        /* \"#utility.yul\":1640:2006   */\n      swap2\n      swap1\n      pop\n      jump\t// out\n        /* \"#utility.yul\":2012:2130   */\n    tag_81:\n        /* \"#utility.yul\":2099:2123   */\n      tag_83\n        /* \"#utility.yul\":2117:2122   */\n      dup2\n        /* \"#utility.yul\":2099:2123   */\n      tag_84\n      jump\t// in\n    tag_83:\n        /* \"#utility.yul\":2094:2097   */\n      dup3\n        /* \"#utility.yul\":2087:2124   */\n      mstore\n        /* \"#utility.yul\":2012:2130   */\n      pop\n      pop\n      jump\t// out\n        /* \"#utility.yul\":2136:2555   */\n    tag_37:\n        /* \"#utility.yul\":2302:2306   */\n      0x00\n        /* \"#utility.yul\":2340:2342   */\n      0x20\n        /* \"#utility.yul\":2329:2338   */\n      dup3\n        /* \"#utility.yul\":2325:2343   */\n      add\n        /* \"#utility.yul\":2317:2343   */\n      swap1\n      pop\n        /* \"#utility.yul\":2389:2398   */\n      dup2\n        /* \"#utility.yul\":2383:2387   */\n      dup2\n        /* \"#utility.yul\":2379:2399   */\n      sub\n        /* \"#utility.yul\":2375:2376   */\n      0x00\n        /* \"#utility.yul\":2364:2373   */\n      dup4\n        /* \"#utility.yul\":2360:2377   */\n      add\n        /* \"#utility.yul\":2353:2400   */\n      mstore\n        /* \"#utility.yul\":2417:2548   */\n      tag_86\n        /* \"#utility.yul\":2543:2547   */\n      dup2\n        /* \"#utility.yul\":2417:2548   */\n      tag_75\n      jump\t// in\n    tag_86:\n        /* \"#utility.yul\":2409:2548   */\n      swap1\n      pop\n        /* \"#utility.yul\":2136:2555   */\n      swap2\n      swap1\n      pop\n      jump\t// out\n        /* \"#utility.yul\":2561:2783   */\n    tag_30:\n        /* \"#utility.yul\":2654:2658   */\n      0x00\n        /* \"#utility.yul\":2692:2694   */\n      0x20\n        /* \"#utility.yul\":2681:2690   */\n      dup3\n        /* \"#utility.yul\":2677:2695   */\n      add\n        /* \"#utility.yul\":2669:2695   */\n      swap1\n      pop\n        /* \"#utility.yul\":2705:2776   */\n      tag_88\n        /* \"#utility.yul\":2773:2774   */\n      0x00\n        /* \"#utility.yul\":2762:2771   */\n      dup4\n        /* \"#utility.yul\":2758:2775   */\n      add\n        /* \"#utility.yul\":2749:2755   */\n      dup5\n        /* \"#utility.yul\":2705:2776   */\n      tag_81\n      jump\t// in\n    tag_88:\n        /* \"#utility.yul\":2561:2783   */\n      swap3\n      swap2\n      pop\n      pop\n      jump\t// out\n        /* \"#utility.yul\":2789:3121   */\n    tag_25:\n        /* \"#utility.yul\":2910:2914   */\n      0x00\n        /* \"#utility.yul\":2948:2950   */\n      0x40\n        /* \"#utility.yul\":2937:2946   */\n      dup3\n        /* \"#utility.yul\":2933:2951   */\n      add\n        /* \"#utility.yul\":2925:2951   */\n      swap1\n      pop\n        /* \"#utility.yul\":2961:3032   */\n      tag_90\n        /* \"#utility.yul\":3029:3030   */\n      0x00\n        /* \"#utility.yul\":3018:3027   */\n      dup4\n        /* \"#utility.yul\":3014:3031   */\n      add\n        /* \"#utility.yul\":3005:3011   */\n      dup6\n        /* \"#utility.yul\":2961:3032   */\n      tag_81\n      jump\t// in\n    tag_90:\n        /* \"#utility.yul\":3042:3114   */\n      tag_91\n        /* \"#utility.yul\":3110:3112   */\n      0x20\n        /* \"#utility.yul\":3099:3108   */\n      dup4\n        /* \"#utility.yul\":3095:3113   */\n      add\n        /* \"#utility.yul\":3086:3092   */\n      dup5\n        /* \"#utility.yul\":3042:3114   */\n      tag_81\n      jump\t// in\n    tag_91:\n        /* \"#utility.yul\":2789:3121   */\n      swap4\n      swap3\n      pop\n      pop\n      pop\n      jump\t// out\n        /* \"#utility.yul\":3208:3377   */\n    tag_78:\n        /* \"#utility.yul\":3292:3303   */\n      0x00\n        /* \"#utility.yul\":3326:3332   */\n      dup3\n        /* \"#utility.yul\":3321:3324   */\n      dup3\n        /* \"#utility.yul\":3314:3333   */\n      mstore\n        /* \"#utility.yul\":3366:3370   */\n      0x20\n        /* \"#utility.yul\":3361:3364   */\n      dup3\n        /* \"#utility.yul\":3357:3371   */\n      add\n        /* \"#utility.yul\":3342:3371   */\n      swap1\n      pop\n        /* \"#utility.yul\":3208:3377   */\n      swap3\n      swap2\n      pop\n      pop\n      jump\t// out\n        /* \"#utility.yul\":3383:3688   */\n    tag_44:\n        /* \"#utility.yul\":3423:3426   */\n      0x00\n        /* \"#utility.yul\":3442:3462   */\n      tag_96\n        /* \"#utility.yul\":3460:3461   */\n      dup3\n        /* \"#utility.yul\":3442:3462   */\n      tag_84\n      jump\t// in\n    tag_96:\n        /* \"#utility.yul\":3437:3462   */\n      swap2\n      pop\n        /* \"#utility.yul\":3476:3496   */\n      tag_97\n        /* \"#utility.yul\":3494:3495   */\n      dup4\n        /* \"#utility.yul\":3476:3496   */\n      tag_84\n      jump\t// in\n    tag_97:\n        /* \"#utility.yul\":3471:3496   */\n      swap3\n      pop\n        /* \"#utility.yul\":3630:3631   */\n      dup3\n        /* \"#utility.yul\":3562:3628   */\n      0xffffffffffffffffffffffffffffffffffffffffffffffffffffffffffffffff\n        /* \"#utility.yul\":3558:3632   */\n      sub\n        /* \"#utility.yul\":3555:3556   */\n      dup3\n        /* \"#utility.yul\":3552:3633   */\n      gt\n        /* \"#utility.yul\":3549:3656   */\n      iszero\n      tag_98\n      jumpi\n        /* \"#utility.yul\":3636:3654   */\n      tag_99\n      tag_100\n      jump\t// in\n    tag_99:\n        /* \"#utility.yul\":3549:3656   */\n    tag_98:\n        /* \"#utility.yul\":3680:3681   */\n      dup3\n        /* \"#utility.yul\":3677:3678   */\n      dup3\n        /* \"#utility.yul\":3673:3682   */\n      add\n        /* \"#utility.yul\":3666:3682   */\n      swap1\n      pop\n        /* \"#utility.yul\":3383:3688   */\n      swap3\n      swap2\n      pop\n      pop\n      jump\t// out\n        /* \"#utility.yul\":3694:3885   */\n    tag_39:\n        /* \"#utility.yul\":3734:3738   */\n      0x00\n        /* \"#utility.yul\":3754:3774   */\n      tag_102\n        /* \"#utility.yul\":3772:3773   */\n      dup3\n        /* \"#utility.yul\":3754:3774   */\n      tag_84\n      jump\t// in\n    tag_102:\n        /* \"#utility.yul\":3749:3774   */\n      swap2\n      pop\n        /* \"#utility.yul\":3788:3808   */\n      tag_103\n        /* \"#utility.yul\":3806:3807   */\n      dup4\n        /* \"#utility.yul\":3788:3808   */\n      tag_84\n      jump\t// in\n    tag_103:\n        /* \"#utility.yul\":3783:3808   */\n      swap3\n      pop\n        /* \"#utility.yul\":3827:3828   */\n      dup3\n        /* \"#utility.yul\":3824:3825   */\n      dup3\n        /* \"#utility.yul\":3821:3829   */\n      lt\n        /* \"#utility.yul\":3818:3852   */\n      iszero\n      tag_104\n      jumpi\n        /* \"#utility.yul\":3832:3850   */\n      tag_105\n      tag_100\n      jump\t// in\n    tag_105:\n        /* \"#utility.yul\":3818:3852   */\n    tag_104:\n        /* \"#utility.yul\":3877:3878   */\n      dup3\n        /* \"#utility.yul\":3874:3875   */\n      dup3\n        /* \"#utility.yul\":3870:3879   */\n      sub\n        /* \"#utility.yul\":3862:3879   */\n      swap1\n      pop\n        /* \"#utility.yul\":3694:3885   */\n      swap3\n      swap2\n      pop\n      pop\n      jump\t// out\n        /* \"#utility.yul\":3891:3987   */\n    tag_106:\n        /* \"#utility.yul\":3928:3935   */\n      0x00\n        /* \"#utility.yul\":3957:3981   */\n      tag_108\n        /* \"#utility.yul\":3975:3980   */\n      dup3\n        /* \"#utility.yul\":3957:3981   */\n      tag_109\n      jump\t// in\n    tag_108:\n        /* \"#utility.yul\":3946:3981   */\n      swap1\n      pop\n        /* \"#utility.yul\":3891:3987   */\n      swap2\n      swap1\n      pop\n      jump\t// out\n        /* \"#utility.yul\":3993:4097   */\n    tag_110:\n        /* \"#utility.yul\":4038:4045   */\n      0x00\n        /* \"#utility.yul\":4067:4091   */\n      tag_112\n        /* \"#utility.yul\":4085:4090   */\n      dup3\n        /* \"#utility.yul\":4067:4091   */\n      tag_109\n      jump\t// in\n    tag_112:\n        /* \"#utility.yul\":4056:4091   */\n      swap1\n      pop\n        /* \"#utility.yul\":3993:4097   */\n      swap2\n      swap1\n      pop\n      jump\t// out\n        /* \"#utility.yul\":4103:4229   */\n    tag_109:\n        /* \"#utility.yul\":4140:4147   */\n      0x00\n        /* \"#utility.yul\":4180:4222   */\n      0xffffffffffffffffffffffffffffffffffffffff\n        /* \"#utility.yul\":4173:4178   */\n      dup3\n        /* \"#utility.yul\":4169:4223   */\n      and\n        /* \"#utility.yul\":4158:4223   */\n      swap1\n      pop\n        /* \"#utility.yul\":4103:4229   */\n      swap2\n      swap1\n      pop\n      jump\t// out\n        /* \"#utility.yul\":4235:4312   */\n    tag_84:\n        /* \"#utility.yul\":4272:4279   */\n      0x00\n        /* \"#utility.yul\":4301:4306   */\n      dup2\n        /* \"#utility.yul\":4290:4306   */\n      swap1\n      pop\n        /* \"#utility.yul\":4235:4312   */\n      swap2\n      swap1\n      pop\n      jump\t// out\n        /* \"#utility.yul\":4318:4551   */\n    tag_46:\n        /* \"#utility.yul\":4357:4360   */\n      0x00\n        /* \"#utility.yul\":4380:4404   */\n      tag_116\n        /* \"#utility.yul\":4398:4403   */\n      dup3\n        /* \"#utility.yul\":4380:4404   */\n      tag_84\n      jump\t// in\n    tag_116:\n        /* \"#utility.yul\":4371:4404   */\n      swap2\n      pop\n        /* \"#utility.yul\":4426:4492   */\n      0xffffffffffffffffffffffffffffffffffffffffffffffffffffffffffffffff\n        /* \"#utility.yul\":4419:4424   */\n      dup3\n        /* \"#utility.yul\":4416:4493   */\n      eq\n        /* \"#utility.yul\":4413:4516   */\n      iszero\n      tag_117\n      jumpi\n        /* \"#utility.yul\":4496:4514   */\n      tag_118\n      tag_100\n      jump\t// in\n    tag_118:\n        /* \"#utility.yul\":4413:4516   */\n    tag_117:\n        /* \"#utility.yul\":4543:4544   */\n      0x01\n        /* \"#utility.yul\":4536:4541   */\n      dup3\n        /* \"#utility.yul\":4532:4545   */\n      add\n        /* \"#utility.yul\":4525:4545   */\n      swap1\n      pop\n        /* \"#utility.yul\":4318:4551   */\n      swap2\n      swap1\n      pop\n      jump\t// out\n        /* \"#utility.yul\":4557:4737   */\n    tag_100:\n        /* \"#utility.yul\":4605:4682   */\n      0x4e487b7100000000000000000000000000000000000000000000000000000000\n        /* \"#utility.yul\":4602:4603   */\n      0x00\n        /* \"#utility.yul\":4595:4683   */\n      mstore\n        /* \"#utility.yul\":4702:4706   */\n      0x11\n        /* \"#utility.yul\":4699:4700   */\n      0x04\n        /* \"#utility.yul\":4692:4707   */\n      mstore\n        /* \"#utility.yul\":4726:4730   */\n      0x24\n        /* \"#utility.yul\":4723:4724   */\n      0x00\n        /* \"#utility.yul\":4716:4731   */\n      revert\n        /* \"#utility.yul\":4866:4983   */\n    tag_64:\n        /* \"#utility.yul\":4975:4976   */\n      0x00\n        /* \"#utility.yul\":4972:4973   */\n      dup1\n        /* \"#utility.yul\":4965:4977   */\n      revert\n        /* \"#utility.yul\":4989:5156   */\n    tag_80:\n        /* \"#utility.yul\":5129:5148   */\n      0x6e6f742020656e6f756768206574686572000000000000000000000000000000\n        /* \"#utility.yul\":5125:5126   */\n      0x00\n        /* \"#utility.yul\":5117:5123   */\n      dup3\n        /* \"#utility.yul\":5113:5127   */\n      add\n        /* \"#utility.yul\":5106:5149   */\n      mstore\n        /* \"#utility.yul\":4989:5156   */\n      pop\n      jump\t// out\n        /* \"#utility.yul\":5162:5284   */\n    tag_52:\n        /* \"#utility.yul\":5235:5259   */\n      tag_125\n        /* \"#utility.yul\":5253:5258   */\n      dup2\n        /* \"#utility.yul\":5235:5259   */\n      tag_106\n      jump\t// in\n    tag_125:\n        /* \"#utility.yul\":5228:5233   */\n      dup2\n        /* \"#utility.yul\":5225:5260   */\n      eq\n        /* \"#utility.yul\":5215:5278   */\n      tag_126\n      jumpi\n        /* \"#utility.yul\":5274:5275   */\n      0x00\n        /* \"#utility.yul\":5271:5272   */\n      dup1\n        /* \"#utility.yul\":5264:5276   */\n      revert\n        /* \"#utility.yul\":5215:5278   */\n    tag_126:\n        /* \"#utility.yul\":5162:5284   */\n      pop\n      jump\t// out\n        /* \"#utility.yul\":5290:5428   */\n    tag_56:\n        /* \"#utility.yul\":5371:5403   */\n      tag_128\n        /* \"#utility.yul\":5397:5402   */\n      dup2\n        /* \"#utility.yul\":5371:5403   */\n      tag_110\n      jump\t// in\n    tag_128:\n        /* \"#utility.yul\":5364:5369   */\n      dup2\n        /* \"#utility.yul\":5361:5404   */\n      eq\n        /* \"#utility.yul\":5351:5422   */\n      tag_129\n      jumpi\n        /* \"#utility.yul\":5418:5419   */\n      0x00\n        /* \"#utility.yul\":5415:5416   */\n      dup1\n        /* \"#utility.yul\":5408:5420   */\n      revert\n        /* \"#utility.yul\":5351:5422   */\n    tag_129:\n        /* \"#utility.yul\":5290:5428   */\n      pop\n      jump\t// out\n        /* \"#utility.yul\":5434:5556   */\n    tag_60:\n        /* \"#utility.yul\":5507:5531   */\n      tag_131\n        /* \"#utility.yul\":5525:5530   */\n      dup2\n        /* \"#utility.yul\":5507:5531   */\n      tag_84\n      jump\t// in\n    tag_131:\n        /* \"#utility.yul\":5500:5505   */\n      dup2\n        /* \"#utility.yul\":5497:5532   */\n      eq\n        /* \"#utility.yul\":5487:5550   */\n      tag_132\n      jumpi\n        /* \"#utility.yul\":5546:5547   */\n      0x00\n        /* \"#utility.yul\":5543:5544   */\n      dup1\n        /* \"#utility.yul\":5536:5548   */\n      revert\n        /* \"#utility.yul\":5487:5550   */\n    tag_132:\n        /* \"#utility.yul\":5434:5556   */\n      pop\n      jump\t// out\n\n    auxdata: 0xa2646970667358221220bad2a8ae316562fb6564288a134af76c070f8fca2ca00d1436906a952794fbd064736f6c63430008070033\n}\n",
				"bytecode": {
					"linkReferences": {},
					"object": "608060405234801561001057600080fd5b5061082e806100206000396000f3fe60806040526004361061004a5760003560e01c80630adec93c1461004f578063736fe56514610078578063cbedbf5a146100a1578063d18a42e1146100ab578063d321fe29146100e9575b600080fd5b34801561005b57600080fd5b5061007660048036038101906100719190610521565b610114565b005b34801561008457600080fd5b5061009f600480360381019061009a919061054e565b6101ec565b005b6100a9610313565b005b3480156100b757600080fd5b506100d260048036038101906100cd91906104f4565b610489565b6040516100e09291906105fb565b60405180910390f35b3480156100f557600080fd5b506100fe6104ad565b60405161010b91906105e0565b60405180910390f35b60008060003373ffffffffffffffffffffffffffffffffffffffff1673ffffffffffffffffffffffffffffffffffffffff16815260200190815260200160002060000154905060008060003373ffffffffffffffffffffffffffffffffffffffff1673ffffffffffffffffffffffffffffffffffffffff168152602001908152602001600020600001819055508173ffffffffffffffffffffffffffffffffffffffff166108fc829081150290604051600060405180830381858888f193505050501580156101e7573d6000803e3d6000fd5b505050565b806000803373ffffffffffffffffffffffffffffffffffffffff1673ffffffffffffffffffffffffffffffffffffffff168152602001908152602001600020600001541015610270576040517f08c379a0000000000000000000000000000000000000000000000000000000008152600401610267906105c0565b60405180910390fd5b806000803373ffffffffffffffffffffffffffffffffffffffff1673ffffffffffffffffffffffffffffffffffffffff16815260200190815260200160002060000160008282546102c1919061068b565b925050819055508173ffffffffffffffffffffffffffffffffffffffff166108fc829081150290604051600060405180830381858888f1935050505015801561030e573d6000803e3d6000fd5b505050565b346000803373ffffffffffffffffffffffffffffffffffffffff1673ffffffffffffffffffffffffffffffffffffffff16815260200190815260200160002060000160008282546103649190610635565b9250508190555060006040518060400160405280348152602001428152509050806000803373ffffffffffffffffffffffffffffffffffffffff1673ffffffffffffffffffffffffffffffffffffffff16815260200190815260200160002060020160008060003373ffffffffffffffffffffffffffffffffffffffff1673ffffffffffffffffffffffffffffffffffffffff16815260200190815260200160002060010154815260200190815260200160002060008201518160000155602082015181600101559050506000803373ffffffffffffffffffffffffffffffffffffffff1673ffffffffffffffffffffffffffffffffffffffff16815260200190815260200160002060010160008154809291906104819061070d565b919050555050565b60006020528060005260406000206000915090508060000154908060010154905082565b600047905090565b6000813590506104c4816107b3565b92915050565b6000813590506104d9816107ca565b92915050565b6000813590506104ee816107e1565b92915050565b60006020828403121561050a57610509610785565b5b6000610518848285016104b5565b91505092915050565b60006020828403121561053757610536610785565b5b6000610545848285016104ca565b91505092915050565b6000806040838503121561056557610564610785565b5b6000610573858286016104ca565b9250506020610584858286016104df565b9150509250929050565b600061059b601183610624565b91506105a68261078a565b602082019050919050565b6105ba81610703565b82525050565b600060208201905081810360008301526105d98161058e565b9050919050565b60006020820190506105f560008301846105b1565b92915050565b600060408201905061061060008301856105b1565b61061d60208301846105b1565b9392505050565b600082825260208201905092915050565b600061064082610703565b915061064b83610703565b9250827fffffffffffffffffffffffffffffffffffffffffffffffffffffffffffffffff038211156106805761067f610756565b5b828201905092915050565b600061069682610703565b91506106a183610703565b9250828210156106b4576106b3610756565b5b828203905092915050565b60006106ca826106e3565b9050919050565b60006106dc826106e3565b9050919050565b600073ffffffffffffffffffffffffffffffffffffffff82169050919050565b6000819050919050565b600061071882610703565b91507fffffffffffffffffffffffffffffffffffffffffffffffffffffffffffffffff82141561074b5761074a610756565b5b600182019050919050565b7f4e487b7100000000000000000000000000000000000000000000000000000000600052601160045260246000fd5b600080fd5b7f6e6f742020656e6f756768206574686572000000000000000000000000000000600082015250565b6107bc816106bf565b81146107c757600080fd5b50565b6107d3816106d1565b81146107de57600080fd5b50565b6107ea81610703565b81146107f557600080fd5b5056fea2646970667358221220bad2a8ae316562fb6564288a134af76c070f8fca2ca00d1436906a952794fbd064736f6c63430008070033",
					"opcodes": "PUSH1 0x80 PUSH1 0x40 MSTORE CALLVALUE DUP1 ISZERO PUSH2 0x10 JUMPI PUSH1 0x0 DUP1 REVERT JUMPDEST POP PUSH2 0x82E DUP1 PUSH2 0x20 PUSH1 0x0 CODECOPY PUSH1 0x0 RETURN INVALID PUSH1 0x80 PUSH1 0x40 MSTORE PUSH1 0x4 CALLDATASIZE LT PUSH2 0x4A JUMPI PUSH1 0x0 CALLDATALOAD PUSH1 0xE0 SHR DUP1 PUSH4 0xADEC93C EQ PUSH2 0x4F JUMPI DUP1 PUSH4 0x736FE565 EQ PUSH2 0x78 JUMPI DUP1 PUSH4 0xCBEDBF5A EQ PUSH2 0xA1 JUMPI DUP1 PUSH4 0xD18A42E1 EQ PUSH2 0xAB JUMPI DUP1 PUSH4 0xD321FE29 EQ PUSH2 0xE9 JUMPI JUMPDEST PUSH1 0x0 DUP1 REVERT JUMPDEST CALLVALUE DUP1 ISZERO PUSH2 0x5B JUMPI PUSH1 0x0 DUP1 REVERT JUMPDEST POP PUSH2 0x76 PUSH1 0x4 DUP1 CALLDATASIZE SUB DUP2 ADD SWAP1 PUSH2 0x71 SWAP2 SWAP1 PUSH2 0x521 JUMP JUMPDEST PUSH2 0x114 JUMP JUMPDEST STOP JUMPDEST CALLVALUE DUP1 ISZERO PUSH2 0x84 JUMPI PUSH1 0x0 DUP1 REVERT JUMPDEST POP PUSH2 0x9F PUSH1 0x4 DUP1 CALLDATASIZE SUB DUP2 ADD SWAP1 PUSH2 0x9A SWAP2 SWAP1 PUSH2 0x54E JUMP JUMPDEST PUSH2 0x1EC JUMP JUMPDEST STOP JUMPDEST PUSH2 0xA9 PUSH2 0x313 JUMP JUMPDEST STOP JUMPDEST CALLVALUE DUP1 ISZERO PUSH2 0xB7 JUMPI PUSH1 0x0 DUP1 REVERT JUMPDEST POP PUSH2 0xD2 PUSH1 0x4 DUP1 CALLDATASIZE SUB DUP2 ADD SWAP1 PUSH2 0xCD SWAP2 SWAP1 PUSH2 0x4F4 JUMP JUMPDEST PUSH2 0x489 JUMP JUMPDEST PUSH1 0x40 MLOAD PUSH2 0xE0 SWAP3 SWAP2 SWAP1 PUSH2 0x5FB JUMP JUMPDEST PUSH1 0x40 MLOAD DUP1 SWAP2 SUB SWAP1 RETURN JUMPDEST CALLVALUE DUP1 ISZERO PUSH2 0xF5 JUMPI PUSH1 0x0 DUP1 REVERT JUMPDEST POP PUSH2 0xFE PUSH2 0x4AD JUMP JUMPDEST PUSH1 0x40 MLOAD PUSH2 0x10B SWAP2 SWAP1 PUSH2 0x5E0 JUMP JUMPDEST PUSH1 0x40 MLOAD DUP1 SWAP2 SUB SWAP1 RETURN JUMPDEST PUSH1 0x0 DUP1 PUSH1 0x0 CALLER PUSH20 0xFFFFFFFFFFFFFFFFFFFFFFFFFFFFFFFFFFFFFFFF AND PUSH20 0xFFFFFFFFFFFFFFFFFFFFFFFFFFFFFFFFFFFFFFFF AND DUP2 MSTORE PUSH1 0x20 ADD SWAP1 DUP2 MSTORE PUSH1 0x20 ADD PUSH1 0x0 KECCAK256 PUSH1 0x0 ADD SLOAD SWAP1 POP PUSH1 0x0 DUP1 PUSH1 0x0 CALLER PUSH20 0xFFFFFFFFFFFFFFFFFFFFFFFFFFFFFFFFFFFFFFFF AND PUSH20 0xFFFFFFFFFFFFFFFFFFFFFFFFFFFFFFFFFFFFFFFF AND DUP2 MSTORE PUSH1 0x20 ADD SWAP1 DUP2 MSTORE PUSH1 0x20 ADD PUSH1 0x0 KECCAK256 PUSH1 0x0 ADD DUP2 SWAP1 SSTORE POP DUP2 PUSH20 0xFFFFFFFFFFFFFFFFFFFFFFFFFFFFFFFFFFFFFFFF AND PUSH2 0x8FC DUP3 SWAP1 DUP2 ISZERO MUL SWAP1 PUSH1 0x40 MLOAD PUSH1 0x0 PUSH1 0x40 MLOAD DUP1 DUP4 SUB DUP2 DUP6 DUP9 DUP9 CALL SWAP4 POP POP POP POP ISZERO DUP1 ISZERO PUSH2 0x1E7 JUMPI RETURNDATASIZE PUSH1 0x0 DUP1 RETURNDATACOPY RETURNDATASIZE PUSH1 0x0 REVERT JUMPDEST POP POP POP JUMP JUMPDEST DUP1 PUSH1 0x0 DUP1 CALLER PUSH20 0xFFFFFFFFFFFFFFFFFFFFFFFFFFFFFFFFFFFFFFFF AND PUSH20 0xFFFFFFFFFFFFFFFFFFFFFFFFFFFFFFFFFFFFFFFF AND DUP2 MSTORE PUSH1 0x20 ADD SWAP1 DUP2 MSTORE PUSH1 0x20 ADD PUSH1 0x0 KECCAK256 PUSH1 0x0 ADD SLOAD LT ISZERO PUSH2 0x270 JUMPI PUSH1 0x40 MLOAD PUSH32 0x8C379A000000000000000000000000000000000000000000000000000000000 DUP2 MSTORE PUSH1 0x4 ADD PUSH2 0x267 SWAP1 PUSH2 0x5C0 JUMP JUMPDEST PUSH1 0x40 MLOAD DUP1 SWAP2 SUB SWAP1 REVERT JUMPDEST DUP1 PUSH1 0x0 DUP1 CALLER PUSH20 0xFFFFFFFFFFFFFFFFFFFFFFFFFFFFFFFFFFFFFFFF AND PUSH20 0xFFFFFFFFFFFFFFFFFFFFFFFFFFFFFFFFFFFFFFFF AND DUP2 MSTORE PUSH1 0x20 ADD SWAP1 DUP2 MSTORE PUSH1 0x20 ADD PUSH1 0x0 KECCAK256 PUSH1 0x0 ADD PUSH1 0x0 DUP3 DUP3 SLOAD PUSH2 0x2C1 SWAP2 SWAP1 PUSH2 0x68B JUMP JUMPDEST SWAP3 POP POP DUP2 SWAP1 SSTORE POP DUP2 PUSH20 0xFFFFFFFFFFFFFFFFFFFFFFFFFFFFFFFFFFFFFFFF AND PUSH2 0x8FC DUP3 SWAP1 DUP2 ISZERO MUL SWAP1 PUSH1 0x40 MLOAD PUSH1 0x0 PUSH1 0x40 MLOAD DUP1 DUP4 SUB DUP2 DUP6 DUP9 DUP9 CALL SWAP4 POP POP POP POP ISZERO DUP1 ISZERO PUSH2 0x30E JUMPI RETURNDATASIZE PUSH1 0x0 DUP1 RETURNDATACOPY RETURNDATASIZE PUSH1 0x0 REVERT JUMPDEST POP POP POP JUMP JUMPDEST CALLVALUE PUSH1 0x0 DUP1 CALLER PUSH20 0xFFFFFFFFFFFFFFFFFFFFFFFFFFFFFFFFFFFFFFFF AND PUSH20 0xFFFFFFFFFFFFFFFFFFFFFFFFFFFFFFFFFFFFFFFF AND DUP2 MSTORE PUSH1 0x20 ADD SWAP1 DUP2 MSTORE PUSH1 0x20 ADD PUSH1 0x0 KECCAK256 PUSH1 0x0 ADD PUSH1 0x0 DUP3 DUP3 SLOAD PUSH2 0x364 SWAP2 SWAP1 PUSH2 0x635 JUMP JUMPDEST SWAP3 POP POP DUP2 SWAP1 SSTORE POP PUSH1 0x0 PUSH1 0x40 MLOAD DUP1 PUSH1 0x40 ADD PUSH1 0x40 MSTORE DUP1 CALLVALUE DUP2 MSTORE PUSH1 0x20 ADD TIMESTAMP DUP2 MSTORE POP SWAP1 POP DUP1 PUSH1 0x0 DUP1 CALLER PUSH20 0xFFFFFFFFFFFFFFFFFFFFFFFFFFFFFFFFFFFFFFFF AND PUSH20 0xFFFFFFFFFFFFFFFFFFFFFFFFFFFFFFFFFFFFFFFF AND DUP2 MSTORE PUSH1 0x20 ADD SWAP1 DUP2 MSTORE PUSH1 0x20 ADD PUSH1 0x0 KECCAK256 PUSH1 0x2 ADD PUSH1 0x0 DUP1 PUSH1 0x0 CALLER PUSH20 0xFFFFFFFFFFFFFFFFFFFFFFFFFFFFFFFFFFFFFFFF AND PUSH20 0xFFFFFFFFFFFFFFFFFFFFFFFFFFFFFFFFFFFFFFFF AND DUP2 MSTORE PUSH1 0x20 ADD SWAP1 DUP2 MSTORE PUSH1 0x20 ADD PUSH1 0x0 KECCAK256 PUSH1 0x1 ADD SLOAD DUP2 MSTORE PUSH1 0x20 ADD SWAP1 DUP2 MSTORE PUSH1 0x20 ADD PUSH1 0x0 KECCAK256 PUSH1 0x0 DUP3 ADD MLOAD DUP2 PUSH1 0x0 ADD SSTORE PUSH1 0x20 DUP3 ADD MLOAD DUP2 PUSH1 0x1 ADD SSTORE SWAP1 POP POP PUSH1 0x0 DUP1 CALLER PUSH20 0xFFFFFFFFFFFFFFFFFFFFFFFFFFFFFFFFFFFFFFFF AND PUSH20 0xFFFFFFFFFFFFFFFFFFFFFFFFFFFFFFFFFFFFFFFF AND DUP2 MSTORE PUSH1 0x20 ADD SWAP1 DUP2 MSTORE PUSH1 0x20 ADD PUSH1 0x0 KECCAK256 PUSH1 0x1 ADD PUSH1 0x0 DUP2 SLOAD DUP1 SWAP3 SWAP2 SWAP1 PUSH2 0x481 SWAP1 PUSH2 0x70D JUMP JUMPDEST SWAP2 SWAP1 POP SSTORE POP POP JUMP JUMPDEST PUSH1 0x0 PUSH1 0x20 MSTORE DUP1 PUSH1 0x0 MSTORE PUSH1 0x40 PUSH1 0x0 KECCAK256 PUSH1 0x0 SWAP2 POP SWAP1 POP DUP1 PUSH1 0x0 ADD SLOAD SWAP1 DUP1 PUSH1 0x1 ADD SLOAD SWAP1 POP DUP3 JUMP JUMPDEST PUSH1 0x0 SELFBALANCE SWAP1 POP SWAP1 JUMP JUMPDEST PUSH1 0x0 DUP2 CALLDATALOAD SWAP1 POP PUSH2 0x4C4 DUP2 PUSH2 0x7B3 JUMP JUMPDEST SWAP3 SWAP2 POP POP JUMP JUMPDEST PUSH1 0x0 DUP2 CALLDATALOAD SWAP1 POP PUSH2 0x4D9 DUP2 PUSH2 0x7CA JUMP JUMPDEST SWAP3 SWAP2 POP POP JUMP JUMPDEST PUSH1 0x0 DUP2 CALLDATALOAD SWAP1 POP PUSH2 0x4EE DUP2 PUSH2 0x7E1 JUMP JUMPDEST SWAP3 SWAP2 POP POP JUMP JUMPDEST PUSH1 0x0 PUSH1 0x20 DUP3 DUP5 SUB SLT ISZERO PUSH2 0x50A JUMPI PUSH2 0x509 PUSH2 0x785 JUMP JUMPDEST JUMPDEST PUSH1 0x0 PUSH2 0x518 DUP5 DUP3 DUP6 ADD PUSH2 0x4B5 JUMP JUMPDEST SWAP2 POP POP SWAP3 SWAP2 POP POP JUMP JUMPDEST PUSH1 0x0 PUSH1 0x20 DUP3 DUP5 SUB SLT ISZERO PUSH2 0x537 JUMPI PUSH2 0x536 PUSH2 0x785 JUMP JUMPDEST JUMPDEST PUSH1 0x0 PUSH2 0x545 DUP5 DUP3 DUP6 ADD PUSH2 0x4CA JUMP JUMPDEST SWAP2 POP POP SWAP3 SWAP2 POP POP JUMP JUMPDEST PUSH1 0x0 DUP1 PUSH1 0x40 DUP4 DUP6 SUB SLT ISZERO PUSH2 0x565 JUMPI PUSH2 0x564 PUSH2 0x785 JUMP JUMPDEST JUMPDEST PUSH1 0x0 PUSH2 0x573 DUP6 DUP3 DUP7 ADD PUSH2 0x4CA JUMP JUMPDEST SWAP3 POP POP PUSH1 0x20 PUSH2 0x584 DUP6 DUP3 DUP7 ADD PUSH2 0x4DF JUMP JUMPDEST SWAP2 POP POP SWAP3 POP SWAP3 SWAP1 POP JUMP JUMPDEST PUSH1 0x0 PUSH2 0x59B PUSH1 0x11 DUP4 PUSH2 0x624 JUMP JUMPDEST SWAP2 POP PUSH2 0x5A6 DUP3 PUSH2 0x78A JUMP JUMPDEST PUSH1 0x20 DUP3 ADD SWAP1 POP SWAP2 SWAP1 POP JUMP JUMPDEST PUSH2 0x5BA DUP2 PUSH2 0x703 JUMP JUMPDEST DUP3 MSTORE POP POP JUMP JUMPDEST PUSH1 0x0 PUSH1 0x20 DUP3 ADD SWAP1 POP DUP2 DUP2 SUB PUSH1 0x0 DUP4 ADD MSTORE PUSH2 0x5D9 DUP2 PUSH2 0x58E JUMP JUMPDEST SWAP1 POP SWAP2 SWAP1 POP JUMP JUMPDEST PUSH1 0x0 PUSH1 0x20 DUP3 ADD SWAP1 POP PUSH2 0x5F5 PUSH1 0x0 DUP4 ADD DUP5 PUSH2 0x5B1 JUMP JUMPDEST SWAP3 SWAP2 POP POP JUMP JUMPDEST PUSH1 0x0 PUSH1 0x40 DUP3 ADD SWAP1 POP PUSH2 0x610 PUSH1 0x0 DUP4 ADD DUP6 PUSH2 0x5B1 JUMP JUMPDEST PUSH2 0x61D PUSH1 0x20 DUP4 ADD DUP5 PUSH2 0x5B1 JUMP JUMPDEST SWAP4 SWAP3 POP POP POP JUMP JUMPDEST PUSH1 0x0 DUP3 DUP3 MSTORE PUSH1 0x20 DUP3 ADD SWAP1 POP SWAP3 SWAP2 POP POP JUMP JUMPDEST PUSH1 0x0 PUSH2 0x640 DUP3 PUSH2 0x703 JUMP JUMPDEST SWAP2 POP PUSH2 0x64B DUP4 PUSH2 0x703 JUMP JUMPDEST SWAP3 POP DUP3 PUSH32 0xFFFFFFFFFFFFFFFFFFFFFFFFFFFFFFFFFFFFFFFFFFFFFFFFFFFFFFFFFFFFFFFF SUB DUP3 GT ISZERO PUSH2 0x680 JUMPI PUSH2 0x67F PUSH2 0x756 JUMP JUMPDEST JUMPDEST DUP3 DUP3 ADD SWAP1 POP SWAP3 SWAP2 POP POP JUMP JUMPDEST PUSH1 0x0 PUSH2 0x696 DUP3 PUSH2 0x703 JUMP JUMPDEST SWAP2 POP PUSH2 0x6A1 DUP4 PUSH2 0x703 JUMP JUMPDEST SWAP3 POP DUP3 DUP3 LT ISZERO PUSH2 0x6B4 JUMPI PUSH2 0x6B3 PUSH2 0x756 JUMP JUMPDEST JUMPDEST DUP3 DUP3 SUB SWAP1 POP SWAP3 SWAP2 POP POP JUMP JUMPDEST PUSH1 0x0 PUSH2 0x6CA DUP3 PUSH2 0x6E3 JUMP JUMPDEST SWAP1 POP SWAP2 SWAP1 POP JUMP JUMPDEST PUSH1 0x0 PUSH2 0x6DC DUP3 PUSH2 0x6E3 JUMP JUMPDEST SWAP1 POP SWAP2 SWAP1 POP JUMP JUMPDEST PUSH1 0x0 PUSH20 0xFFFFFFFFFFFFFFFFFFFFFFFFFFFFFFFFFFFFFFFF DUP3 AND SWAP1 POP SWAP2 SWAP1 POP JUMP JUMPDEST PUSH1 0x0 DUP2 SWAP1 POP SWAP2 SWAP1 POP JUMP JUMPDEST PUSH1 0x0 PUSH2 0x718 DUP3 PUSH2 0x703 JUMP JUMPDEST SWAP2 POP PUSH32 0xFFFFFFFFFFFFFFFFFFFFFFFFFFFFFFFFFFFFFFFFFFFFFFFFFFFFFFFFFFFFFFFF DUP3 EQ ISZERO PUSH2 0x74B JUMPI PUSH2 0x74A PUSH2 0x756 JUMP JUMPDEST JUMPDEST PUSH1 0x1 DUP3 ADD SWAP1 POP SWAP2 SWAP1 POP JUMP JUMPDEST PUSH32 0x4E487B7100000000000000000000000000000000000000000000000000000000 PUSH1 0x0 MSTORE PUSH1 0x11 PUSH1 0x4 MSTORE PUSH1 0x24 PUSH1 0x0 REVERT JUMPDEST PUSH1 0x0 DUP1 REVERT JUMPDEST PUSH32 0x6E6F742020656E6F756768206574686572000000000000000000000000000000 PUSH1 0x0 DUP3 ADD MSTORE POP JUMP JUMPDEST PUSH2 0x7BC DUP2 PUSH2 0x6BF JUMP JUMPDEST DUP2 EQ PUSH2 0x7C7 JUMPI PUSH1 0x0 DUP1 REVERT JUMPDEST POP JUMP JUMPDEST PUSH2 0x7D3 DUP2 PUSH2 0x6D1 JUMP JUMPDEST DUP2 EQ PUSH2 0x7DE JUMPI PUSH1 0x0 DUP1 REVERT JUMPDEST POP JUMP JUMPDEST PUSH2 0x7EA DUP2 PUSH2 0x703 JUMP JUMPDEST DUP2 EQ PUSH2 0x7F5 JUMPI PUSH1 0x0 DUP1 REVERT JUMPDEST POP JUMP INVALID LOG2 PUSH5 0x6970667358 0x22 SLT KECCAK256 0xBA 0xD2 0xA8 0xAE BALANCE PUSH6 0x62FB6564288A SGT 0x4A 0xF7 PUSH13 0x70F8FCA2CA00D1436906A9527 SWAP5 0xFB 0xD0 PUSH5 0x736F6C6343 STOP ADDMOD SMOD STOP CALLER "
				},
				"gasEstimates": {
					"creation": {
						"codeDepositCost": "418800",
						"executionCost": "455",
						"totalCost": "419255"
					},
					"external": {
						"balanceReceived(address)": "infinite",
						"getAmount()": "405",
						"sendMoney()": "infinite",
						"withdrawAllMoney(address)": "infinite",
						"withdrawAmount(address,uint256)": "infinite"
					}
				},
				"methodIdentifiers": {
					"balanceReceived(address)": "d18a42e1",
					"getAmount()": "d321fe29",
					"sendMoney()": "cbedbf5a",
					"withdrawAllMoney(address)": "0adec93c",
					"withdrawAmount(address,uint256)": "736fe565"
				}
			},
			"userdoc": {
				"kind": "user",
				"methods": {},
				"version": 1
			}
		}
	}
}