{
	"contract/ExceptionExample.sol": {
		"ExceptionExample": {
			"abi": [
				{
					"inputs": [],
					"name": "getMoney",
					"outputs": [],
					"stateMutability": "payable",
					"type": "function"
				},
				{
					"inputs": [
						{
							"internalType": "address payable",
							"name": "_to",
							"type": "address"
						},
						{
							"internalType": "uint64",
							"name": "_amount",
							"type": "uint64"
						}
					],
					"name": "setMoney",
					"outputs": [],
					"stateMutability": "nonpayable",
					"type": "function"
				}
			],
			"devdoc": {
				"kind": "dev",
				"methods": {},
				"version": 1
			},
			"evm": {
				"assembly": "    /* \"contract/ExceptionExample.sol\":60:638  contract ExceptionExample {\r... */\n  mstore(0x40, 0x80)\n  callvalue\n  dup1\n  iszero\n  tag_1\n  jumpi\n  0x00\n  dup1\n  revert\ntag_1:\n  pop\n  dataSize(sub_0)\n  dup1\n  dataOffset(sub_0)\n  0x00\n  codecopy\n  0x00\n  return\nstop\n\nsub_0: assembly {\n        /* \"contract/ExceptionExample.sol\":60:638  contract ExceptionExample {\r... */\n      mstore(0x40, 0x80)\n      jumpi(tag_1, lt(calldatasize, 0x04))\n      shr(0xe0, calldataload(0x00))\n      dup1\n      0x55a188d0\n      eq\n      tag_2\n      jumpi\n      dup1\n      0x98e1b410\n      eq\n      tag_3\n      jumpi\n    tag_1:\n      0x00\n      dup1\n      revert\n        /* \"contract/ExceptionExample.sol\":351:635  function setMoney(address payable _to, uint64 _amount) public {\r... */\n    tag_2:\n      callvalue\n      dup1\n      iszero\n      tag_4\n      jumpi\n      0x00\n      dup1\n      revert\n    tag_4:\n      pop\n      tag_5\n      0x04\n      dup1\n      calldatasize\n      sub\n      dup2\n      add\n      swap1\n      tag_6\n      swap2\n      swap1\n      tag_7\n      jump\t// in\n    tag_6:\n      tag_8\n      jump\t// in\n    tag_5:\n      stop\n        /* \"contract/ExceptionExample.sol\":144:343  function getMoney() public payable {\r... */\n    tag_3:\n      tag_9\n      tag_10\n      jump\t// in\n    tag_9:\n      stop\n        /* \"contract/ExceptionExample.sol\":351:635  function setMoney(address payable _to, uint64 _amount) public {\r... */\n    tag_8:\n        /* \"contract/ExceptionExample.sol\":486:501  balanceReceived */\n      0x00\n        /* \"contract/ExceptionExample.sol\":486:513  balanceReceived[msg.sender] */\n      dup1\n        /* \"contract/ExceptionExample.sol\":502:512  msg.sender */\n      caller\n        /* \"contract/ExceptionExample.sol\":486:513  balanceReceived[msg.sender] */\n      0xffffffffffffffffffffffffffffffffffffffff\n      and\n      0xffffffffffffffffffffffffffffffffffffffff\n      and\n      dup2\n      mstore\n      0x20\n      add\n      swap1\n      dup2\n      mstore\n      0x20\n      add\n      0x00\n      keccak256\n      0x00\n      swap1\n      sload\n      swap1\n      0x0100\n      exp\n      swap1\n      div\n      0xffffffffffffffff\n      and\n        /* \"contract/ExceptionExample.sol\":476:513  _amount<= balanceReceived[msg.sender] */\n      0xffffffffffffffff\n      and\n        /* \"contract/ExceptionExample.sol\":476:483  _amount */\n      dup2\n        /* \"contract/ExceptionExample.sol\":476:513  _amount<= balanceReceived[msg.sender] */\n      0xffffffffffffffff\n      and\n      gt\n      iszero\n        /* \"contract/ExceptionExample.sol\":468:546  require(_amount<= balanceReceived[msg.sender],\"You don't have enough ether!.\") */\n      tag_12\n      jumpi\n      mload(0x40)\n      0x08c379a000000000000000000000000000000000000000000000000000000000\n      dup2\n      mstore\n      0x04\n      add\n      tag_13\n      swap1\n      tag_14\n      jump\t// in\n    tag_13:\n      mload(0x40)\n      dup1\n      swap2\n      sub\n      swap1\n      revert\n    tag_12:\n        /* \"contract/ExceptionExample.sol\":588:595  _amount */\n      dup1\n        /* \"contract/ExceptionExample.sol\":557:572  balanceReceived */\n      0x00\n        /* \"contract/ExceptionExample.sol\":557:584  balanceReceived[msg.sender] */\n      dup1\n        /* \"contract/ExceptionExample.sol\":573:583  msg.sender */\n      caller\n        /* \"contract/ExceptionExample.sol\":557:584  balanceReceived[msg.sender] */\n      0xffffffffffffffffffffffffffffffffffffffff\n      and\n      0xffffffffffffffffffffffffffffffffffffffff\n      and\n      dup2\n      mstore\n      0x20\n      add\n      swap1\n      dup2\n      mstore\n      0x20\n      add\n      0x00\n      keccak256\n      0x00\n        /* \"contract/ExceptionExample.sol\":557:595  balanceReceived[msg.sender] -= _amount */\n      dup3\n      dup3\n      dup3\n      swap1\n      sload\n      swap1\n      0x0100\n      exp\n      swap1\n      div\n      0xffffffffffffffff\n      and\n      tag_15\n      swap2\n      swap1\n      tag_16\n      jump\t// in\n    tag_15:\n      swap3\n      pop\n      0x0100\n      exp\n      dup2\n      sload\n      dup2\n      0xffffffffffffffff\n      mul\n      not\n      and\n      swap1\n      dup4\n      0xffffffffffffffff\n      and\n      mul\n      or\n      swap1\n      sstore\n      pop\n        /* \"contract/ExceptionExample.sol\":606:609  _to */\n      dup2\n        /* \"contract/ExceptionExample.sol\":606:618  _to.transfer */\n      0xffffffffffffffffffffffffffffffffffffffff\n      and\n        /* \"contract/ExceptionExample.sol\":606:627  _to.transfer(_amount) */\n      0x08fc\n        /* \"contract/ExceptionExample.sol\":619:626  _amount */\n      dup3\n        /* \"contract/ExceptionExample.sol\":606:627  _to.transfer(_amount) */\n      0xffffffffffffffff\n      and\n      swap1\n      dup2\n      iszero\n      mul\n      swap1\n      mload(0x40)\n      0x00\n      mload(0x40)\n      dup1\n      dup4\n      sub\n      dup2\n      dup6\n      dup9\n      dup9\n      call\n      swap4\n      pop\n      pop\n      pop\n      pop\n      iszero\n      dup1\n      iszero\n      tag_18\n      jumpi\n      returndatasize\n      0x00\n      dup1\n      returndatacopy\n      revert(0x00, returndatasize)\n    tag_18:\n      pop\n        /* \"contract/ExceptionExample.sol\":351:635  function setMoney(address payable _to, uint64 _amount) public {\r... */\n      pop\n      pop\n      jump\t// out\n        /* \"contract/ExceptionExample.sol\":144:343  function getMoney() public payable {\r... */\n    tag_10:\n        /* \"contract/ExceptionExample.sol\":248:263  balanceReceived */\n      0x00\n        /* \"contract/ExceptionExample.sol\":248:275  balanceReceived[msg.sender] */\n      dup1\n        /* \"contract/ExceptionExample.sol\":264:274  msg.sender */\n      caller\n        /* \"contract/ExceptionExample.sol\":248:275  balanceReceived[msg.sender] */\n      0xffffffffffffffffffffffffffffffffffffffff\n      and\n      0xffffffffffffffffffffffffffffffffffffffff\n      and\n      dup2\n      mstore\n      0x20\n      add\n      swap1\n      dup2\n      mstore\n      0x20\n      add\n      0x00\n      keccak256\n      0x00\n      swap1\n      sload\n      swap1\n      0x0100\n      exp\n      swap1\n      div\n      0xffffffffffffffff\n      and\n        /* \"contract/ExceptionExample.sol\":197:275  balanceReceived[msg.sender] + uint64(msg.value) >= balanceReceived[msg.sender] */\n      0xffffffffffffffff\n      and\n        /* \"contract/ExceptionExample.sol\":234:243  msg.value */\n      callvalue\n        /* \"contract/ExceptionExample.sol\":197:212  balanceReceived */\n      0x00\n        /* \"contract/ExceptionExample.sol\":197:224  balanceReceived[msg.sender] */\n      dup1\n        /* \"contract/ExceptionExample.sol\":213:223  msg.sender */\n      caller\n        /* \"contract/ExceptionExample.sol\":197:224  balanceReceived[msg.sender] */\n      0xffffffffffffffffffffffffffffffffffffffff\n      and\n      0xffffffffffffffffffffffffffffffffffffffff\n      and\n      dup2\n      mstore\n      0x20\n      add\n      swap1\n      dup2\n      mstore\n      0x20\n      add\n      0x00\n      keccak256\n      0x00\n      swap1\n      sload\n      swap1\n      0x0100\n      exp\n      swap1\n      div\n      0xffffffffffffffff\n      and\n        /* \"contract/ExceptionExample.sol\":197:244  balanceReceived[msg.sender] + uint64(msg.value) */\n      tag_20\n      swap2\n      swap1\n      tag_21\n      jump\t// in\n    tag_20:\n        /* \"contract/ExceptionExample.sol\":197:275  balanceReceived[msg.sender] + uint64(msg.value) >= balanceReceived[msg.sender] */\n      0xffffffffffffffff\n      and\n      lt\n      iszero\n        /* \"contract/ExceptionExample.sol\":190:276  assert(balanceReceived[msg.sender] + uint64(msg.value) >= balanceReceived[msg.sender]) */\n      tag_22\n      jumpi\n      tag_23\n      tag_24\n      jump\t// in\n    tag_23:\n    tag_22:\n        /* \"contract/ExceptionExample.sol\":325:334  msg.value */\n      callvalue\n        /* \"contract/ExceptionExample.sol\":287:302  balanceReceived */\n      0x00\n        /* \"contract/ExceptionExample.sol\":287:314  balanceReceived[msg.sender] */\n      dup1\n        /* \"contract/ExceptionExample.sol\":303:313  msg.sender */\n      caller\n        /* \"contract/ExceptionExample.sol\":287:314  balanceReceived[msg.sender] */\n      0xffffffffffffffffffffffffffffffffffffffff\n      and\n      0xffffffffffffffffffffffffffffffffffffffff\n      and\n      dup2\n      mstore\n      0x20\n      add\n      swap1\n      dup2\n      mstore\n      0x20\n      add\n      0x00\n      keccak256\n      0x00\n        /* \"contract/ExceptionExample.sol\":287:335  balanceReceived[msg.sender] += uint64(msg.value) */\n      dup3\n      dup3\n      dup3\n      swap1\n      sload\n      swap1\n      0x0100\n      exp\n      swap1\n      div\n      0xffffffffffffffff\n      and\n      tag_25\n      swap2\n      swap1\n      tag_21\n      jump\t// in\n    tag_25:\n      swap3\n      pop\n      0x0100\n      exp\n      dup2\n      sload\n      dup2\n      0xffffffffffffffff\n      mul\n      not\n      and\n      swap1\n      dup4\n      0xffffffffffffffff\n      and\n      mul\n      or\n      swap1\n      sstore\n      pop\n        /* \"contract/ExceptionExample.sol\":144:343  function getMoney() public payable {\r... */\n      jump\t// out\n        /* \"#utility.yul\":7:162   */\n    tag_27:\n        /* \"#utility.yul\":61:66   */\n      0x00\n        /* \"#utility.yul\":99:105   */\n      dup2\n        /* \"#utility.yul\":86:106   */\n      calldataload\n        /* \"#utility.yul\":77:106   */\n      swap1\n      pop\n        /* \"#utility.yul\":115:156   */\n      tag_29\n        /* \"#utility.yul\":150:155   */\n      dup2\n        /* \"#utility.yul\":115:156   */\n      tag_30\n      jump\t// in\n    tag_29:\n        /* \"#utility.yul\":7:162   */\n      swap3\n      swap2\n      pop\n      pop\n      jump\t// out\n        /* \"#utility.yul\":168:305   */\n    tag_31:\n        /* \"#utility.yul\":213:218   */\n      0x00\n        /* \"#utility.yul\":251:257   */\n      dup2\n        /* \"#utility.yul\":238:258   */\n      calldataload\n        /* \"#utility.yul\":229:258   */\n      swap1\n      pop\n        /* \"#utility.yul\":267:299   */\n      tag_33\n        /* \"#utility.yul\":293:298   */\n      dup2\n        /* \"#utility.yul\":267:299   */\n      tag_34\n      jump\t// in\n    tag_33:\n        /* \"#utility.yul\":168:305   */\n      swap3\n      swap2\n      pop\n      pop\n      jump\t// out\n        /* \"#utility.yul\":311:799   */\n    tag_7:\n        /* \"#utility.yul\":386:392   */\n      0x00\n        /* \"#utility.yul\":394:400   */\n      dup1\n        /* \"#utility.yul\":443:445   */\n      0x40\n        /* \"#utility.yul\":431:440   */\n      dup4\n        /* \"#utility.yul\":422:429   */\n      dup6\n        /* \"#utility.yul\":418:441   */\n      sub\n        /* \"#utility.yul\":414:446   */\n      slt\n        /* \"#utility.yul\":411:530   */\n      iszero\n      tag_36\n      jumpi\n        /* \"#utility.yul\":449:528   */\n      tag_37\n      tag_38\n      jump\t// in\n    tag_37:\n        /* \"#utility.yul\":411:530   */\n    tag_36:\n        /* \"#utility.yul\":569:570   */\n      0x00\n        /* \"#utility.yul\":594:655   */\n      tag_39\n        /* \"#utility.yul\":647:654   */\n      dup6\n        /* \"#utility.yul\":638:644   */\n      dup3\n        /* \"#utility.yul\":627:636   */\n      dup7\n        /* \"#utility.yul\":623:645   */\n      add\n        /* \"#utility.yul\":594:655   */\n      tag_27\n      jump\t// in\n    tag_39:\n        /* \"#utility.yul\":584:655   */\n      swap3\n      pop\n        /* \"#utility.yul\":540:665   */\n      pop\n        /* \"#utility.yul\":704:706   */\n      0x20\n        /* \"#utility.yul\":730:782   */\n      tag_40\n        /* \"#utility.yul\":774:781   */\n      dup6\n        /* \"#utility.yul\":765:771   */\n      dup3\n        /* \"#utility.yul\":754:763   */\n      dup7\n        /* \"#utility.yul\":750:772   */\n      add\n        /* \"#utility.yul\":730:782   */\n      tag_31\n      jump\t// in\n    tag_40:\n        /* \"#utility.yul\":720:782   */\n      swap2\n      pop\n        /* \"#utility.yul\":675:792   */\n      pop\n        /* \"#utility.yul\":311:799   */\n      swap3\n      pop\n      swap3\n      swap1\n      pop\n      jump\t// out\n        /* \"#utility.yul\":805:1171   */\n    tag_41:\n        /* \"#utility.yul\":947:950   */\n      0x00\n        /* \"#utility.yul\":968:1035   */\n      tag_43\n        /* \"#utility.yul\":1032:1034   */\n      0x1d\n        /* \"#utility.yul\":1027:1030   */\n      dup4\n        /* \"#utility.yul\":968:1035   */\n      tag_44\n      jump\t// in\n    tag_43:\n        /* \"#utility.yul\":961:1035   */\n      swap2\n      pop\n        /* \"#utility.yul\":1044:1137   */\n      tag_45\n        /* \"#utility.yul\":1133:1136   */\n      dup3\n        /* \"#utility.yul\":1044:1137   */\n      tag_46\n      jump\t// in\n    tag_45:\n        /* \"#utility.yul\":1162:1164   */\n      0x20\n        /* \"#utility.yul\":1157:1160   */\n      dup3\n        /* \"#utility.yul\":1153:1165   */\n      add\n        /* \"#utility.yul\":1146:1165   */\n      swap1\n      pop\n        /* \"#utility.yul\":805:1171   */\n      swap2\n      swap1\n      pop\n      jump\t// out\n        /* \"#utility.yul\":1177:1596   */\n    tag_14:\n        /* \"#utility.yul\":1343:1347   */\n      0x00\n        /* \"#utility.yul\":1381:1383   */\n      0x20\n        /* \"#utility.yul\":1370:1379   */\n      dup3\n        /* \"#utility.yul\":1366:1384   */\n      add\n        /* \"#utility.yul\":1358:1384   */\n      swap1\n      pop\n        /* \"#utility.yul\":1430:1439   */\n      dup2\n        /* \"#utility.yul\":1424:1428   */\n      dup2\n        /* \"#utility.yul\":1420:1440   */\n      sub\n        /* \"#utility.yul\":1416:1417   */\n      0x00\n        /* \"#utility.yul\":1405:1414   */\n      dup4\n        /* \"#utility.yul\":1401:1418   */\n      add\n        /* \"#utility.yul\":1394:1441   */\n      mstore\n        /* \"#utility.yul\":1458:1589   */\n      tag_48\n        /* \"#utility.yul\":1584:1588   */\n      dup2\n        /* \"#utility.yul\":1458:1589   */\n      tag_41\n      jump\t// in\n    tag_48:\n        /* \"#utility.yul\":1450:1589   */\n      swap1\n      pop\n        /* \"#utility.yul\":1177:1596   */\n      swap2\n      swap1\n      pop\n      jump\t// out\n        /* \"#utility.yul\":1683:1852   */\n    tag_44:\n        /* \"#utility.yul\":1767:1778   */\n      0x00\n        /* \"#utility.yul\":1801:1807   */\n      dup3\n        /* \"#utility.yul\":1796:1799   */\n      dup3\n        /* \"#utility.yul\":1789:1808   */\n      mstore\n        /* \"#utility.yul\":1841:1845   */\n      0x20\n        /* \"#utility.yul\":1836:1839   */\n      dup3\n        /* \"#utility.yul\":1832:1846   */\n      add\n        /* \"#utility.yul\":1817:1846   */\n      swap1\n      pop\n        /* \"#utility.yul\":1683:1852   */\n      swap3\n      swap2\n      pop\n      pop\n      jump\t// out\n        /* \"#utility.yul\":1858:2112   */\n    tag_21:\n        /* \"#utility.yul\":1897:1900   */\n      0x00\n        /* \"#utility.yul\":1916:1935   */\n      tag_53\n        /* \"#utility.yul\":1933:1934   */\n      dup3\n        /* \"#utility.yul\":1916:1935   */\n      tag_54\n      jump\t// in\n    tag_53:\n        /* \"#utility.yul\":1911:1935   */\n      swap2\n      pop\n        /* \"#utility.yul\":1949:1968   */\n      tag_55\n        /* \"#utility.yul\":1966:1967   */\n      dup4\n        /* \"#utility.yul\":1949:1968   */\n      tag_54\n      jump\t// in\n    tag_55:\n        /* \"#utility.yul\":1944:1968   */\n      swap3\n      pop\n        /* \"#utility.yul\":2054:2055   */\n      dup3\n        /* \"#utility.yul\":2034:2052   */\n      0xffffffffffffffff\n        /* \"#utility.yul\":2030:2056   */\n      sub\n        /* \"#utility.yul\":2027:2028   */\n      dup3\n        /* \"#utility.yul\":2024:2057   */\n      gt\n        /* \"#utility.yul\":2021:2080   */\n      iszero\n      tag_56\n      jumpi\n        /* \"#utility.yul\":2060:2078   */\n      tag_57\n      tag_58\n      jump\t// in\n    tag_57:\n        /* \"#utility.yul\":2021:2080   */\n    tag_56:\n        /* \"#utility.yul\":2104:2105   */\n      dup3\n        /* \"#utility.yul\":2101:2102   */\n      dup3\n        /* \"#utility.yul\":2097:2106   */\n      add\n        /* \"#utility.yul\":2090:2106   */\n      swap1\n      pop\n        /* \"#utility.yul\":1858:2112   */\n      swap3\n      swap2\n      pop\n      pop\n      jump\t// out\n        /* \"#utility.yul\":2118:2306   */\n    tag_16:\n        /* \"#utility.yul\":2157:2161   */\n      0x00\n        /* \"#utility.yul\":2177:2196   */\n      tag_60\n        /* \"#utility.yul\":2194:2195   */\n      dup3\n        /* \"#utility.yul\":2177:2196   */\n      tag_54\n      jump\t// in\n    tag_60:\n        /* \"#utility.yul\":2172:2196   */\n      swap2\n      pop\n        /* \"#utility.yul\":2210:2229   */\n      tag_61\n        /* \"#utility.yul\":2227:2228   */\n      dup4\n        /* \"#utility.yul\":2210:2229   */\n      tag_54\n      jump\t// in\n    tag_61:\n        /* \"#utility.yul\":2205:2229   */\n      swap3\n      pop\n        /* \"#utility.yul\":2248:2249   */\n      dup3\n        /* \"#utility.yul\":2245:2246   */\n      dup3\n        /* \"#utility.yul\":2242:2250   */\n      lt\n        /* \"#utility.yul\":2239:2273   */\n      iszero\n      tag_62\n      jumpi\n        /* \"#utility.yul\":2253:2271   */\n      tag_63\n      tag_58\n      jump\t// in\n    tag_63:\n        /* \"#utility.yul\":2239:2273   */\n    tag_62:\n        /* \"#utility.yul\":2298:2299   */\n      dup3\n        /* \"#utility.yul\":2295:2296   */\n      dup3\n        /* \"#utility.yul\":2291:2300   */\n      sub\n        /* \"#utility.yul\":2283:2300   */\n      swap1\n      pop\n        /* \"#utility.yul\":2118:2306   */\n      swap3\n      swap2\n      pop\n      pop\n      jump\t// out\n        /* \"#utility.yul\":2312:2416   */\n    tag_64:\n        /* \"#utility.yul\":2357:2364   */\n      0x00\n        /* \"#utility.yul\":2386:2410   */\n      tag_66\n        /* \"#utility.yul\":2404:2409   */\n      dup3\n        /* \"#utility.yul\":2386:2410   */\n      tag_67\n      jump\t// in\n    tag_66:\n        /* \"#utility.yul\":2375:2410   */\n      swap1\n      pop\n        /* \"#utility.yul\":2312:2416   */\n      swap2\n      swap1\n      pop\n      jump\t// out\n        /* \"#utility.yul\":2422:2548   */\n    tag_67:\n        /* \"#utility.yul\":2459:2466   */\n      0x00\n        /* \"#utility.yul\":2499:2541   */\n      0xffffffffffffffffffffffffffffffffffffffff\n        /* \"#utility.yul\":2492:2497   */\n      dup3\n        /* \"#utility.yul\":2488:2542   */\n      and\n        /* \"#utility.yul\":2477:2542   */\n      swap1\n      pop\n        /* \"#utility.yul\":2422:2548   */\n      swap2\n      swap1\n      pop\n      jump\t// out\n        /* \"#utility.yul\":2554:2655   */\n    tag_54:\n        /* \"#utility.yul\":2590:2597   */\n      0x00\n        /* \"#utility.yul\":2630:2648   */\n      0xffffffffffffffff\n        /* \"#utility.yul\":2623:2628   */\n      dup3\n        /* \"#utility.yul\":2619:2649   */\n      and\n        /* \"#utility.yul\":2608:2649   */\n      swap1\n      pop\n        /* \"#utility.yul\":2554:2655   */\n      swap2\n      swap1\n      pop\n      jump\t// out\n        /* \"#utility.yul\":2661:2841   */\n    tag_24:\n        /* \"#utility.yul\":2709:2786   */\n      0x4e487b7100000000000000000000000000000000000000000000000000000000\n        /* \"#utility.yul\":2706:2707   */\n      0x00\n        /* \"#utility.yul\":2699:2787   */\n      mstore\n        /* \"#utility.yul\":2806:2810   */\n      0x01\n        /* \"#utility.yul\":2803:2804   */\n      0x04\n        /* \"#utility.yul\":2796:2811   */\n      mstore\n        /* \"#utility.yul\":2830:2834   */\n      0x24\n        /* \"#utility.yul\":2827:2828   */\n      0x00\n        /* \"#utility.yul\":2820:2835   */\n      revert\n        /* \"#utility.yul\":2847:3027   */\n    tag_58:\n        /* \"#utility.yul\":2895:2972   */\n      0x4e487b7100000000000000000000000000000000000000000000000000000000\n        /* \"#utility.yul\":2892:2893   */\n      0x00\n        /* \"#utility.yul\":2885:2973   */\n      mstore\n        /* \"#utility.yul\":2992:2996   */\n      0x11\n        /* \"#utility.yul\":2989:2990   */\n      0x04\n        /* \"#utility.yul\":2982:2997   */\n      mstore\n        /* \"#utility.yul\":3016:3020   */\n      0x24\n        /* \"#utility.yul\":3013:3014   */\n      0x00\n        /* \"#utility.yul\":3006:3021   */\n      revert\n        /* \"#utility.yul\":3156:3273   */\n    tag_38:\n        /* \"#utility.yul\":3265:3266   */\n      0x00\n        /* \"#utility.yul\":3262:3263   */\n      dup1\n        /* \"#utility.yul\":3255:3267   */\n      revert\n        /* \"#utility.yul\":3279:3458   */\n    tag_46:\n        /* \"#utility.yul\":3419:3450   */\n      0x596f7520646f6e2774206861766520656e6f756768206574686572212e000000\n        /* \"#utility.yul\":3415:3416   */\n      0x00\n        /* \"#utility.yul\":3407:3413   */\n      dup3\n        /* \"#utility.yul\":3403:3417   */\n      add\n        /* \"#utility.yul\":3396:3451   */\n      mstore\n        /* \"#utility.yul\":3279:3458   */\n      pop\n      jump\t// out\n        /* \"#utility.yul\":3464:3602   */\n    tag_30:\n        /* \"#utility.yul\":3545:3577   */\n      tag_77\n        /* \"#utility.yul\":3571:3576   */\n      dup2\n        /* \"#utility.yul\":3545:3577   */\n      tag_64\n      jump\t// in\n    tag_77:\n        /* \"#utility.yul\":3538:3543   */\n      dup2\n        /* \"#utility.yul\":3535:3578   */\n      eq\n        /* \"#utility.yul\":3525:3596   */\n      tag_78\n      jumpi\n        /* \"#utility.yul\":3592:3593   */\n      0x00\n        /* \"#utility.yul\":3589:3590   */\n      dup1\n        /* \"#utility.yul\":3582:3594   */\n      revert\n        /* \"#utility.yul\":3525:3596   */\n    tag_78:\n        /* \"#utility.yul\":3464:3602   */\n      pop\n      jump\t// out\n        /* \"#utility.yul\":3608:3728   */\n    tag_34:\n        /* \"#utility.yul\":3680:3703   */\n      tag_80\n        /* \"#utility.yul\":3697:3702   */\n      dup2\n        /* \"#utility.yul\":3680:3703   */\n      tag_54\n      jump\t// in\n    tag_80:\n        /* \"#utility.yul\":3673:3678   */\n      dup2\n        /* \"#utility.yul\":3670:3704   */\n      eq\n        /* \"#utility.yul\":3660:3722   */\n      tag_81\n      jumpi\n        /* \"#utility.yul\":3718:3719   */\n      0x00\n        /* \"#utility.yul\":3715:3716   */\n      dup1\n        /* \"#utility.yul\":3708:3720   */\n      revert\n        /* \"#utility.yul\":3660:3722   */\n    tag_81:\n        /* \"#utility.yul\":3608:3728   */\n      pop\n      jump\t// out\n\n    auxdata: 0xa2646970667358221220c0ccaf306c0dcb55b1b0ce76ec86efbc82f6cb67e08808d461a51e4acbdd8b2a64736f6c63430008070033\n}\n",
				"bytecode": {
					"linkReferences": {},
					"object": "608060405234801561001057600080fd5b506105a9806100206000396000f3fe6080604052600436106100295760003560e01c806355a188d01461002e57806398e1b41014610057575b600080fd5b34801561003a57600080fd5b506100556004803603810190610050919061036d565b610061565b005b61005f6101e6565b005b6000803373ffffffffffffffffffffffffffffffffffffffff1673ffffffffffffffffffffffffffffffffffffffff16815260200190815260200160002060009054906101000a900467ffffffffffffffff1667ffffffffffffffff168167ffffffffffffffff16111561010a576040517f08c379a0000000000000000000000000000000000000000000000000000000008152600401610101906103d0565b60405180910390fd5b806000803373ffffffffffffffffffffffffffffffffffffffff1673ffffffffffffffffffffffffffffffffffffffff16815260200190815260200160002060008282829054906101000a900467ffffffffffffffff1661016b919061043f565b92506101000a81548167ffffffffffffffff021916908367ffffffffffffffff1602179055508173ffffffffffffffffffffffffffffffffffffffff166108fc8267ffffffffffffffff169081150290604051600060405180830381858888f193505050501580156101e1573d6000803e3d6000fd5b505050565b6000803373ffffffffffffffffffffffffffffffffffffffff1673ffffffffffffffffffffffffffffffffffffffff16815260200190815260200160002060009054906101000a900467ffffffffffffffff1667ffffffffffffffff16346000803373ffffffffffffffffffffffffffffffffffffffff1673ffffffffffffffffffffffffffffffffffffffff16815260200190815260200160002060009054906101000a900467ffffffffffffffff166102a19190610401565b67ffffffffffffffff1610156102ba576102b96104b9565b5b346000803373ffffffffffffffffffffffffffffffffffffffff1673ffffffffffffffffffffffffffffffffffffffff16815260200190815260200160002060008282829054906101000a900467ffffffffffffffff1661031b9190610401565b92506101000a81548167ffffffffffffffff021916908367ffffffffffffffff160217905550565b60008135905061035281610545565b92915050565b6000813590506103678161055c565b92915050565b6000806040838503121561038457610383610517565b5b600061039285828601610343565b92505060206103a385828601610358565b9150509250929050565b60006103ba601d836103f0565b91506103c58261051c565b602082019050919050565b600060208201905081810360008301526103e9816103ad565b9050919050565b600082825260208201905092915050565b600061040c826104a5565b9150610417836104a5565b92508267ffffffffffffffff03821115610434576104336104e8565b5b828201905092915050565b600061044a826104a5565b9150610455836104a5565b925082821015610468576104676104e8565b5b828203905092915050565b600061047e82610485565b9050919050565b600073ffffffffffffffffffffffffffffffffffffffff82169050919050565b600067ffffffffffffffff82169050919050565b7f4e487b7100000000000000000000000000000000000000000000000000000000600052600160045260246000fd5b7f4e487b7100000000000000000000000000000000000000000000000000000000600052601160045260246000fd5b600080fd5b7f596f7520646f6e2774206861766520656e6f756768206574686572212e000000600082015250565b61054e81610473565b811461055957600080fd5b50565b610565816104a5565b811461057057600080fd5b5056fea2646970667358221220c0ccaf306c0dcb55b1b0ce76ec86efbc82f6cb67e08808d461a51e4acbdd8b2a64736f6c63430008070033",
					"opcodes": "PUSH1 0x80 PUSH1 0x40 MSTORE CALLVALUE DUP1 ISZERO PUSH2 0x10 JUMPI PUSH1 0x0 DUP1 REVERT JUMPDEST POP PUSH2 0x5A9 DUP1 PUSH2 0x20 PUSH1 0x0 CODECOPY PUSH1 0x0 RETURN INVALID PUSH1 0x80 PUSH1 0x40 MSTORE PUSH1 0x4 CALLDATASIZE LT PUSH2 0x29 JUMPI PUSH1 0x0 CALLDATALOAD PUSH1 0xE0 SHR DUP1 PUSH4 0x55A188D0 EQ PUSH2 0x2E JUMPI DUP1 PUSH4 0x98E1B410 EQ PUSH2 0x57 JUMPI JUMPDEST PUSH1 0x0 DUP1 REVERT JUMPDEST CALLVALUE DUP1 ISZERO PUSH2 0x3A JUMPI PUSH1 0x0 DUP1 REVERT JUMPDEST POP PUSH2 0x55 PUSH1 0x4 DUP1 CALLDATASIZE SUB DUP2 ADD SWAP1 PUSH2 0x50 SWAP2 SWAP1 PUSH2 0x36D JUMP JUMPDEST PUSH2 0x61 JUMP JUMPDEST STOP JUMPDEST PUSH2 0x5F PUSH2 0x1E6 JUMP JUMPDEST STOP JUMPDEST PUSH1 0x0 DUP1 CALLER PUSH20 0xFFFFFFFFFFFFFFFFFFFFFFFFFFFFFFFFFFFFFFFF AND PUSH20 0xFFFFFFFFFFFFFFFFFFFFFFFFFFFFFFFFFFFFFFFF AND DUP2 MSTORE PUSH1 0x20 ADD SWAP1 DUP2 MSTORE PUSH1 0x20 ADD PUSH1 0x0 KECCAK256 PUSH1 0x0 SWAP1 SLOAD SWAP1 PUSH2 0x100 EXP SWAP1 DIV PUSH8 0xFFFFFFFFFFFFFFFF AND PUSH8 0xFFFFFFFFFFFFFFFF AND DUP2 PUSH8 0xFFFFFFFFFFFFFFFF AND GT ISZERO PUSH2 0x10A JUMPI PUSH1 0x40 MLOAD PUSH32 0x8C379A000000000000000000000000000000000000000000000000000000000 DUP2 MSTORE PUSH1 0x4 ADD PUSH2 0x101 SWAP1 PUSH2 0x3D0 JUMP JUMPDEST PUSH1 0x40 MLOAD DUP1 SWAP2 SUB SWAP1 REVERT JUMPDEST DUP1 PUSH1 0x0 DUP1 CALLER PUSH20 0xFFFFFFFFFFFFFFFFFFFFFFFFFFFFFFFFFFFFFFFF AND PUSH20 0xFFFFFFFFFFFFFFFFFFFFFFFFFFFFFFFFFFFFFFFF AND DUP2 MSTORE PUSH1 0x20 ADD SWAP1 DUP2 MSTORE PUSH1 0x20 ADD PUSH1 0x0 KECCAK256 PUSH1 0x0 DUP3 DUP3 DUP3 SWAP1 SLOAD SWAP1 PUSH2 0x100 EXP SWAP1 DIV PUSH8 0xFFFFFFFFFFFFFFFF AND PUSH2 0x16B SWAP2 SWAP1 PUSH2 0x43F JUMP JUMPDEST SWAP3 POP PUSH2 0x100 EXP DUP2 SLOAD DUP2 PUSH8 0xFFFFFFFFFFFFFFFF MUL NOT AND SWAP1 DUP4 PUSH8 0xFFFFFFFFFFFFFFFF AND MUL OR SWAP1 SSTORE POP DUP2 PUSH20 0xFFFFFFFFFFFFFFFFFFFFFFFFFFFFFFFFFFFFFFFF AND PUSH2 0x8FC DUP3 PUSH8 0xFFFFFFFFFFFFFFFF AND SWAP1 DUP2 ISZERO MUL SWAP1 PUSH1 0x40 MLOAD PUSH1 0x0 PUSH1 0x40 MLOAD DUP1 DUP4 SUB DUP2 DUP6 DUP9 DUP9 CALL SWAP4 POP POP POP POP ISZERO DUP1 ISZERO PUSH2 0x1E1 JUMPI RETURNDATASIZE PUSH1 0x0 DUP1 RETURNDATACOPY RETURNDATASIZE PUSH1 0x0 REVERT JUMPDEST POP POP POP JUMP JUMPDEST PUSH1 0x0 DUP1 CALLER PUSH20 0xFFFFFFFFFFFFFFFFFFFFFFFFFFFFFFFFFFFFFFFF AND PUSH20 0xFFFFFFFFFFFFFFFFFFFFFFFFFFFFFFFFFFFFFFFF AND DUP2 MSTORE PUSH1 0x20 ADD SWAP1 DUP2 MSTORE PUSH1 0x20 ADD PUSH1 0x0 KECCAK256 PUSH1 0x0 SWAP1 SLOAD SWAP1 PUSH2 0x100 EXP SWAP1 DIV PUSH8 0xFFFFFFFFFFFFFFFF AND PUSH8 0xFFFFFFFFFFFFFFFF AND CALLVALUE PUSH1 0x0 DUP1 CALLER PUSH20 0xFFFFFFFFFFFFFFFFFFFFFFFFFFFFFFFFFFFFFFFF AND PUSH20 0xFFFFFFFFFFFFFFFFFFFFFFFFFFFFFFFFFFFFFFFF AND DUP2 MSTORE PUSH1 0x20 ADD SWAP1 DUP2 MSTORE PUSH1 0x20 ADD PUSH1 0x0 KECCAK256 PUSH1 0x0 SWAP1 SLOAD SWAP1 PUSH2 0x100 EXP SWAP1 DIV PUSH8 0xFFFFFFFFFFFFFFFF AND PUSH2 0x2A1 SWAP2 SWAP1 PUSH2 0x401 JUMP JUMPDEST PUSH8 0xFFFFFFFFFFFFFFFF AND LT ISZERO PUSH2 0x2BA JUMPI PUSH2 0x2B9 PUSH2 0x4B9 JUMP JUMPDEST JUMPDEST CALLVALUE PUSH1 0x0 DUP1 CALLER PUSH20 0xFFFFFFFFFFFFFFFFFFFFFFFFFFFFFFFFFFFFFFFF AND PUSH20 0xFFFFFFFFFFFFFFFFFFFFFFFFFFFFFFFFFFFFFFFF AND DUP2 MSTORE PUSH1 0x20 ADD SWAP1 DUP2 MSTORE PUSH1 0x20 ADD PUSH1 0x0 KECCAK256 PUSH1 0x0 DUP3 DUP3 DUP3 SWAP1 SLOAD SWAP1 PUSH2 0x100 EXP SWAP1 DIV PUSH8 0xFFFFFFFFFFFFFFFF AND PUSH2 0x31B SWAP2 SWAP1 PUSH2 0x401 JUMP JUMPDEST SWAP3 POP PUSH2 0x100 EXP DUP2 SLOAD DUP2 PUSH8 0xFFFFFFFFFFFFFFFF MUL NOT AND SWAP1 DUP4 PUSH8 0xFFFFFFFFFFFFFFFF AND MUL OR SWAP1 SSTORE POP JUMP JUMPDEST PUSH1 0x0 DUP2 CALLDATALOAD SWAP1 POP PUSH2 0x352 DUP2 PUSH2 0x545 JUMP JUMPDEST SWAP3 SWAP2 POP POP JUMP JUMPDEST PUSH1 0x0 DUP2 CALLDATALOAD SWAP1 POP PUSH2 0x367 DUP2 PUSH2 0x55C JUMP JUMPDEST SWAP3 SWAP2 POP POP JUMP JUMPDEST PUSH1 0x0 DUP1 PUSH1 0x40 DUP4 DUP6 SUB SLT ISZERO PUSH2 0x384 JUMPI PUSH2 0x383 PUSH2 0x517 JUMP JUMPDEST JUMPDEST PUSH1 0x0 PUSH2 0x392 DUP6 DUP3 DUP7 ADD PUSH2 0x343 JUMP JUMPDEST SWAP3 POP POP PUSH1 0x20 PUSH2 0x3A3 DUP6 DUP3 DUP7 ADD PUSH2 0x358 JUMP JUMPDEST SWAP2 POP POP SWAP3 POP SWAP3 SWAP1 POP JUMP JUMPDEST PUSH1 0x0 PUSH2 0x3BA PUSH1 0x1D DUP4 PUSH2 0x3F0 JUMP JUMPDEST SWAP2 POP PUSH2 0x3C5 DUP3 PUSH2 0x51C JUMP JUMPDEST PUSH1 0x20 DUP3 ADD SWAP1 POP SWAP2 SWAP1 POP JUMP JUMPDEST PUSH1 0x0 PUSH1 0x20 DUP3 ADD SWAP1 POP DUP2 DUP2 SUB PUSH1 0x0 DUP4 ADD MSTORE PUSH2 0x3E9 DUP2 PUSH2 0x3AD JUMP JUMPDEST SWAP1 POP SWAP2 SWAP1 POP JUMP JUMPDEST PUSH1 0x0 DUP3 DUP3 MSTORE PUSH1 0x20 DUP3 ADD SWAP1 POP SWAP3 SWAP2 POP POP JUMP JUMPDEST PUSH1 0x0 PUSH2 0x40C DUP3 PUSH2 0x4A5 JUMP JUMPDEST SWAP2 POP PUSH2 0x417 DUP4 PUSH2 0x4A5 JUMP JUMPDEST SWAP3 POP DUP3 PUSH8 0xFFFFFFFFFFFFFFFF SUB DUP3 GT ISZERO PUSH2 0x434 JUMPI PUSH2 0x433 PUSH2 0x4E8 JUMP JUMPDEST JUMPDEST DUP3 DUP3 ADD SWAP1 POP SWAP3 SWAP2 POP POP JUMP JUMPDEST PUSH1 0x0 PUSH2 0x44A DUP3 PUSH2 0x4A5 JUMP JUMPDEST SWAP2 POP PUSH2 0x455 DUP4 PUSH2 0x4A5 JUMP JUMPDEST SWAP3 POP DUP3 DUP3 LT ISZERO PUSH2 0x468 JUMPI PUSH2 0x467 PUSH2 0x4E8 JUMP JUMPDEST JUMPDEST DUP3 DUP3 SUB SWAP1 POP SWAP3 SWAP2 POP POP JUMP JUMPDEST PUSH1 0x0 PUSH2 0x47E DUP3 PUSH2 0x485 JUMP JUMPDEST SWAP1 POP SWAP2 SWAP1 POP JUMP JUMPDEST PUSH1 0x0 PUSH20 0xFFFFFFFFFFFFFFFFFFFFFFFFFFFFFFFFFFFFFFFF DUP3 AND SWAP1 POP SWAP2 SWAP1 POP JUMP JUMPDEST PUSH1 0x0 PUSH8 0xFFFFFFFFFFFFFFFF DUP3 AND SWAP1 POP SWAP2 SWAP1 POP JUMP JUMPDEST PUSH32 0x4E487B7100000000000000000000000000000000000000000000000000000000 PUSH1 0x0 MSTORE PUSH1 0x1 PUSH1 0x4 MSTORE PUSH1 0x24 PUSH1 0x0 REVERT JUMPDEST PUSH32 0x4E487B7100000000000000000000000000000000000000000000000000000000 PUSH1 0x0 MSTORE PUSH1 0x11 PUSH1 0x4 MSTORE PUSH1 0x24 PUSH1 0x0 REVERT JUMPDEST PUSH1 0x0 DUP1 REVERT JUMPDEST PUSH32 0x596F7520646F6E2774206861766520656E6F756768206574686572212E000000 PUSH1 0x0 DUP3 ADD MSTORE POP JUMP JUMPDEST PUSH2 0x54E DUP2 PUSH2 0x473 JUMP JUMPDEST DUP2 EQ PUSH2 0x559 JUMPI PUSH1 0x0 DUP1 REVERT JUMPDEST POP JUMP JUMPDEST PUSH2 0x565 DUP2 PUSH2 0x4A5 JUMP JUMPDEST DUP2 EQ PUSH2 0x570 JUMPI PUSH1 0x0 DUP1 REVERT JUMPDEST POP JUMP INVALID LOG2 PUSH5 0x6970667358 0x22 SLT KECCAK256 0xC0 0xCC 0xAF ADDRESS PUSH13 0xDCB55B1B0CE76EC86EFBC82F6 0xCB PUSH8 0xE08808D461A51E4A 0xCB 0xDD DUP12 0x2A PUSH5 0x736F6C6343 STOP ADDMOD SMOD STOP CALLER "
				},
				"gasEstimates": {
					"creation": {
						"codeDepositCost": "289800",
						"executionCost": "331",
						"totalCost": "290131"
					},
					"external": {
						"getMoney()": "infinite",
						"setMoney(address,uint64)": "infinite"
					}
				},
				"methodIdentifiers": {
					"getMoney()": "98e1b410",
					"setMoney(address,uint64)": "55a188d0"
				}
			},
			"userdoc": {
				"kind": "user",
				"methods": {},
				"version": 1
			}
		}
	}
}