{
	"contract/FirstProject.sol": {
		"FirstProject": {
			"abi": [
				{
					"inputs": [],
					"stateMutability": "nonpayable",
					"type": "constructor"
				},
				{
					"inputs": [],
					"name": "owner",
					"outputs": [
						{
							"internalType": "address",
							"name": "",
							"type": "address"
						}
					],
					"stateMutability": "view",
					"type": "function"
				},
				{
					"inputs": [
						{
							"internalType": "address payable",
							"name": "_to",
							"type": "address"
						},
						{
							"internalType": "uint256",
							"name": "_amount",
							"type": "uint256"
						}
					],
					"name": "withdrawMoney",
					"outputs": [],
					"stateMutability": "nonpayable",
					"type": "function"
				}
			],
			"devdoc": {
				"kind": "dev",
				"methods": {},
				"version": 1
			},
			"evm": {
				"assembly": "    /* \"contract/FirstProject.sol\":65:411  contract FirstProject {\r... */\n  mstore(0x40, 0x80)\n    /* \"contract/FirstProject.sol\":123:174  constructor() {\r... */\n  callvalue\n  dup1\n  iszero\n  tag_1\n  jumpi\n  0x00\n  dup1\n  revert\ntag_1:\n  pop\n    /* \"contract/FirstProject.sol\":156:166  msg.sender */\n  caller\n    /* \"contract/FirstProject.sol\":148:153  owner */\n  0x00\n  dup1\n    /* \"contract/FirstProject.sol\":148:166  owner = msg.sender */\n  0x0100\n  exp\n  dup2\n  sload\n  dup2\n  0xffffffffffffffffffffffffffffffffffffffff\n  mul\n  not\n  and\n  swap1\n  dup4\n  0xffffffffffffffffffffffffffffffffffffffff\n  and\n  mul\n  or\n  swap1\n  sstore\n  pop\n    /* \"contract/FirstProject.sol\":65:411  contract FirstProject {\r... */\n  dataSize(sub_0)\n  dup1\n  dataOffset(sub_0)\n  0x00\n  codecopy\n  0x00\n  return\nstop\n\nsub_0: assembly {\n        /* \"contract/FirstProject.sol\":65:411  contract FirstProject {\r... */\n      mstore(0x40, 0x80)\n      callvalue\n      dup1\n      iszero\n      tag_1\n      jumpi\n      0x00\n      dup1\n      revert\n    tag_1:\n      pop\n      jumpi(tag_2, lt(calldatasize, 0x04))\n      shr(0xe0, calldataload(0x00))\n      dup1\n      0x8da5cb5b\n      eq\n      tag_3\n      jumpi\n      dup1\n      0xf274c897\n      eq\n      tag_4\n      jumpi\n    tag_2:\n      0x00\n      dup1\n      revert\n        /* \"contract/FirstProject.sol\":94:114  address public owner */\n    tag_3:\n      tag_5\n      tag_6\n      jump\t// in\n    tag_5:\n      mload(0x40)\n      tag_7\n      swap2\n      swap1\n      tag_8\n      jump\t// in\n    tag_7:\n      mload(0x40)\n      dup1\n      swap2\n      sub\n      swap1\n      return\n        /* \"contract/FirstProject.sol\":293:408  function withdrawMoney(address payable _to, uint _amount) public onlyOwner {\r... */\n    tag_4:\n      tag_9\n      0x04\n      dup1\n      calldatasize\n      sub\n      dup2\n      add\n      swap1\n      tag_10\n      swap2\n      swap1\n      tag_11\n      jump\t// in\n    tag_10:\n      tag_12\n      jump\t// in\n    tag_9:\n      stop\n        /* \"contract/FirstProject.sol\":94:114  address public owner */\n    tag_6:\n      0x00\n      dup1\n      sload\n      swap1\n      0x0100\n      exp\n      swap1\n      div\n      0xffffffffffffffffffffffffffffffffffffffff\n      and\n      dup2\n      jump\t// out\n        /* \"contract/FirstProject.sol\":293:408  function withdrawMoney(address payable _to, uint _amount) public onlyOwner {\r... */\n    tag_12:\n        /* \"contract/FirstProject.sol\":229:239  msg.sender */\n      caller\n        /* \"contract/FirstProject.sol\":220:239  owner == msg.sender */\n      0xffffffffffffffffffffffffffffffffffffffff\n      and\n        /* \"contract/FirstProject.sol\":220:225  owner */\n      0x00\n      dup1\n      sload\n      swap1\n      0x0100\n      exp\n      swap1\n      div\n      0xffffffffffffffffffffffffffffffffffffffff\n      and\n        /* \"contract/FirstProject.sol\":220:239  owner == msg.sender */\n      0xffffffffffffffffffffffffffffffffffffffff\n      and\n      eq\n        /* \"contract/FirstProject.sol\":212:265  require(owner == msg.sender, \"You are not the owner\") */\n      tag_14\n      jumpi\n      mload(0x40)\n      0x08c379a000000000000000000000000000000000000000000000000000000000\n      dup2\n      mstore\n      0x04\n      add\n      tag_15\n      swap1\n      tag_16\n      jump\t// in\n    tag_15:\n      mload(0x40)\n      dup1\n      swap2\n      sub\n      swap1\n      revert\n    tag_14:\n        /* \"contract/FirstProject.sol\":379:382  _to */\n      dup2\n        /* \"contract/FirstProject.sol\":379:391  _to.transfer */\n      0xffffffffffffffffffffffffffffffffffffffff\n      and\n        /* \"contract/FirstProject.sol\":379:400  _to.transfer(_amount) */\n      0x08fc\n        /* \"contract/FirstProject.sol\":392:399  _amount */\n      dup3\n        /* \"contract/FirstProject.sol\":379:400  _to.transfer(_amount) */\n      swap1\n      dup2\n      iszero\n      mul\n      swap1\n      mload(0x40)\n      0x00\n      mload(0x40)\n      dup1\n      dup4\n      sub\n      dup2\n      dup6\n      dup9\n      dup9\n      call\n      swap4\n      pop\n      pop\n      pop\n      pop\n      iszero\n      dup1\n      iszero\n      tag_19\n      jumpi\n      returndatasize\n      0x00\n      dup1\n      returndatacopy\n      revert(0x00, returndatasize)\n    tag_19:\n      pop\n        /* \"contract/FirstProject.sol\":293:408  function withdrawMoney(address payable _to, uint _amount) public onlyOwner {\r... */\n      pop\n      pop\n      jump\t// out\n        /* \"#utility.yul\":7:162   */\n    tag_21:\n        /* \"#utility.yul\":61:66   */\n      0x00\n        /* \"#utility.yul\":99:105   */\n      dup2\n        /* \"#utility.yul\":86:106   */\n      calldataload\n        /* \"#utility.yul\":77:106   */\n      swap1\n      pop\n        /* \"#utility.yul\":115:156   */\n      tag_23\n        /* \"#utility.yul\":150:155   */\n      dup2\n        /* \"#utility.yul\":115:156   */\n      tag_24\n      jump\t// in\n    tag_23:\n        /* \"#utility.yul\":7:162   */\n      swap3\n      swap2\n      pop\n      pop\n      jump\t// out\n        /* \"#utility.yul\":168:307   */\n    tag_25:\n        /* \"#utility.yul\":214:219   */\n      0x00\n        /* \"#utility.yul\":252:258   */\n      dup2\n        /* \"#utility.yul\":239:259   */\n      calldataload\n        /* \"#utility.yul\":230:259   */\n      swap1\n      pop\n        /* \"#utility.yul\":268:301   */\n      tag_27\n        /* \"#utility.yul\":295:300   */\n      dup2\n        /* \"#utility.yul\":268:301   */\n      tag_28\n      jump\t// in\n    tag_27:\n        /* \"#utility.yul\":168:307   */\n      swap3\n      swap2\n      pop\n      pop\n      jump\t// out\n        /* \"#utility.yul\":313:803   */\n    tag_11:\n        /* \"#utility.yul\":389:395   */\n      0x00\n        /* \"#utility.yul\":397:403   */\n      dup1\n        /* \"#utility.yul\":446:448   */\n      0x40\n        /* \"#utility.yul\":434:443   */\n      dup4\n        /* \"#utility.yul\":425:432   */\n      dup6\n        /* \"#utility.yul\":421:444   */\n      sub\n        /* \"#utility.yul\":417:449   */\n      slt\n        /* \"#utility.yul\":414:533   */\n      iszero\n      tag_30\n      jumpi\n        /* \"#utility.yul\":452:531   */\n      tag_31\n      tag_32\n      jump\t// in\n    tag_31:\n        /* \"#utility.yul\":414:533   */\n    tag_30:\n        /* \"#utility.yul\":572:573   */\n      0x00\n        /* \"#utility.yul\":597:658   */\n      tag_33\n        /* \"#utility.yul\":650:657   */\n      dup6\n        /* \"#utility.yul\":641:647   */\n      dup3\n        /* \"#utility.yul\":630:639   */\n      dup7\n        /* \"#utility.yul\":626:648   */\n      add\n        /* \"#utility.yul\":597:658   */\n      tag_21\n      jump\t// in\n    tag_33:\n        /* \"#utility.yul\":587:658   */\n      swap3\n      pop\n        /* \"#utility.yul\":543:668   */\n      pop\n        /* \"#utility.yul\":707:709   */\n      0x20\n        /* \"#utility.yul\":733:786   */\n      tag_34\n        /* \"#utility.yul\":778:785   */\n      dup6\n        /* \"#utility.yul\":769:775   */\n      dup3\n        /* \"#utility.yul\":758:767   */\n      dup7\n        /* \"#utility.yul\":754:776   */\n      add\n        /* \"#utility.yul\":733:786   */\n      tag_25\n      jump\t// in\n    tag_34:\n        /* \"#utility.yul\":723:786   */\n      swap2\n      pop\n        /* \"#utility.yul\":678:796   */\n      pop\n        /* \"#utility.yul\":313:803   */\n      swap3\n      pop\n      swap3\n      swap1\n      pop\n      jump\t// out\n        /* \"#utility.yul\":809:927   */\n    tag_35:\n        /* \"#utility.yul\":896:920   */\n      tag_37\n        /* \"#utility.yul\":914:919   */\n      dup2\n        /* \"#utility.yul\":896:920   */\n      tag_38\n      jump\t// in\n    tag_37:\n        /* \"#utility.yul\":891:894   */\n      dup3\n        /* \"#utility.yul\":884:921   */\n      mstore\n        /* \"#utility.yul\":809:927   */\n      pop\n      pop\n      jump\t// out\n        /* \"#utility.yul\":933:1299   */\n    tag_39:\n        /* \"#utility.yul\":1075:1078   */\n      0x00\n        /* \"#utility.yul\":1096:1163   */\n      tag_41\n        /* \"#utility.yul\":1160:1162   */\n      0x15\n        /* \"#utility.yul\":1155:1158   */\n      dup4\n        /* \"#utility.yul\":1096:1163   */\n      tag_42\n      jump\t// in\n    tag_41:\n        /* \"#utility.yul\":1089:1163   */\n      swap2\n      pop\n        /* \"#utility.yul\":1172:1265   */\n      tag_43\n        /* \"#utility.yul\":1261:1264   */\n      dup3\n        /* \"#utility.yul\":1172:1265   */\n      tag_44\n      jump\t// in\n    tag_43:\n        /* \"#utility.yul\":1290:1292   */\n      0x20\n        /* \"#utility.yul\":1285:1288   */\n      dup3\n        /* \"#utility.yul\":1281:1293   */\n      add\n        /* \"#utility.yul\":1274:1293   */\n      swap1\n      pop\n        /* \"#utility.yul\":933:1299   */\n      swap2\n      swap1\n      pop\n      jump\t// out\n        /* \"#utility.yul\":1305:1527   */\n    tag_8:\n        /* \"#utility.yul\":1398:1402   */\n      0x00\n        /* \"#utility.yul\":1436:1438   */\n      0x20\n        /* \"#utility.yul\":1425:1434   */\n      dup3\n        /* \"#utility.yul\":1421:1439   */\n      add\n        /* \"#utility.yul\":1413:1439   */\n      swap1\n      pop\n        /* \"#utility.yul\":1449:1520   */\n      tag_46\n        /* \"#utility.yul\":1517:1518   */\n      0x00\n        /* \"#utility.yul\":1506:1515   */\n      dup4\n        /* \"#utility.yul\":1502:1519   */\n      add\n        /* \"#utility.yul\":1493:1499   */\n      dup5\n        /* \"#utility.yul\":1449:1520   */\n      tag_35\n      jump\t// in\n    tag_46:\n        /* \"#utility.yul\":1305:1527   */\n      swap3\n      swap2\n      pop\n      pop\n      jump\t// out\n        /* \"#utility.yul\":1533:1952   */\n    tag_16:\n        /* \"#utility.yul\":1699:1703   */\n      0x00\n        /* \"#utility.yul\":1737:1739   */\n      0x20\n        /* \"#utility.yul\":1726:1735   */\n      dup3\n        /* \"#utility.yul\":1722:1740   */\n      add\n        /* \"#utility.yul\":1714:1740   */\n      swap1\n      pop\n        /* \"#utility.yul\":1786:1795   */\n      dup2\n        /* \"#utility.yul\":1780:1784   */\n      dup2\n        /* \"#utility.yul\":1776:1796   */\n      sub\n        /* \"#utility.yul\":1772:1773   */\n      0x00\n        /* \"#utility.yul\":1761:1770   */\n      dup4\n        /* \"#utility.yul\":1757:1774   */\n      add\n        /* \"#utility.yul\":1750:1797   */\n      mstore\n        /* \"#utility.yul\":1814:1945   */\n      tag_48\n        /* \"#utility.yul\":1940:1944   */\n      dup2\n        /* \"#utility.yul\":1814:1945   */\n      tag_39\n      jump\t// in\n    tag_48:\n        /* \"#utility.yul\":1806:1945   */\n      swap1\n      pop\n        /* \"#utility.yul\":1533:1952   */\n      swap2\n      swap1\n      pop\n      jump\t// out\n        /* \"#utility.yul\":2039:2208   */\n    tag_42:\n        /* \"#utility.yul\":2123:2134   */\n      0x00\n        /* \"#utility.yul\":2157:2163   */\n      dup3\n        /* \"#utility.yul\":2152:2155   */\n      dup3\n        /* \"#utility.yul\":2145:2164   */\n      mstore\n        /* \"#utility.yul\":2197:2201   */\n      0x20\n        /* \"#utility.yul\":2192:2195   */\n      dup3\n        /* \"#utility.yul\":2188:2202   */\n      add\n        /* \"#utility.yul\":2173:2202   */\n      swap1\n      pop\n        /* \"#utility.yul\":2039:2208   */\n      swap3\n      swap2\n      pop\n      pop\n      jump\t// out\n        /* \"#utility.yul\":2214:2310   */\n    tag_38:\n        /* \"#utility.yul\":2251:2258   */\n      0x00\n        /* \"#utility.yul\":2280:2304   */\n      tag_53\n        /* \"#utility.yul\":2298:2303   */\n      dup3\n        /* \"#utility.yul\":2280:2304   */\n      tag_54\n      jump\t// in\n    tag_53:\n        /* \"#utility.yul\":2269:2304   */\n      swap1\n      pop\n        /* \"#utility.yul\":2214:2310   */\n      swap2\n      swap1\n      pop\n      jump\t// out\n        /* \"#utility.yul\":2316:2420   */\n    tag_55:\n        /* \"#utility.yul\":2361:2368   */\n      0x00\n        /* \"#utility.yul\":2390:2414   */\n      tag_57\n        /* \"#utility.yul\":2408:2413   */\n      dup3\n        /* \"#utility.yul\":2390:2414   */\n      tag_54\n      jump\t// in\n    tag_57:\n        /* \"#utility.yul\":2379:2414   */\n      swap1\n      pop\n        /* \"#utility.yul\":2316:2420   */\n      swap2\n      swap1\n      pop\n      jump\t// out\n        /* \"#utility.yul\":2426:2552   */\n    tag_54:\n        /* \"#utility.yul\":2463:2470   */\n      0x00\n        /* \"#utility.yul\":2503:2545   */\n      0xffffffffffffffffffffffffffffffffffffffff\n        /* \"#utility.yul\":2496:2501   */\n      dup3\n        /* \"#utility.yul\":2492:2546   */\n      and\n        /* \"#utility.yul\":2481:2546   */\n      swap1\n      pop\n        /* \"#utility.yul\":2426:2552   */\n      swap2\n      swap1\n      pop\n      jump\t// out\n        /* \"#utility.yul\":2558:2635   */\n    tag_59:\n        /* \"#utility.yul\":2595:2602   */\n      0x00\n        /* \"#utility.yul\":2624:2629   */\n      dup2\n        /* \"#utility.yul\":2613:2629   */\n      swap1\n      pop\n        /* \"#utility.yul\":2558:2635   */\n      swap2\n      swap1\n      pop\n      jump\t// out\n        /* \"#utility.yul\":2764:2881   */\n    tag_32:\n        /* \"#utility.yul\":2873:2874   */\n      0x00\n        /* \"#utility.yul\":2870:2871   */\n      dup1\n        /* \"#utility.yul\":2863:2875   */\n      revert\n        /* \"#utility.yul\":2887:3058   */\n    tag_44:\n        /* \"#utility.yul\":3027:3050   */\n      0x596f7520617265206e6f7420746865206f776e65720000000000000000000000\n        /* \"#utility.yul\":3023:3024   */\n      0x00\n        /* \"#utility.yul\":3015:3021   */\n      dup3\n        /* \"#utility.yul\":3011:3025   */\n      add\n        /* \"#utility.yul\":3004:3051   */\n      mstore\n        /* \"#utility.yul\":2887:3058   */\n      pop\n      jump\t// out\n        /* \"#utility.yul\":3064:3202   */\n    tag_24:\n        /* \"#utility.yul\":3145:3177   */\n      tag_66\n        /* \"#utility.yul\":3171:3176   */\n      dup2\n        /* \"#utility.yul\":3145:3177   */\n      tag_55\n      jump\t// in\n    tag_66:\n        /* \"#utility.yul\":3138:3143   */\n      dup2\n        /* \"#utility.yul\":3135:3178   */\n      eq\n        /* \"#utility.yul\":3125:3196   */\n      tag_67\n      jumpi\n        /* \"#utility.yul\":3192:3193   */\n      0x00\n        /* \"#utility.yul\":3189:3190   */\n      dup1\n        /* \"#utility.yul\":3182:3194   */\n      revert\n        /* \"#utility.yul\":3125:3196   */\n    tag_67:\n        /* \"#utility.yul\":3064:3202   */\n      pop\n      jump\t// out\n        /* \"#utility.yul\":3208:3330   */\n    tag_28:\n        /* \"#utility.yul\":3281:3305   */\n      tag_69\n        /* \"#utility.yul\":3299:3304   */\n      dup2\n        /* \"#utility.yul\":3281:3305   */\n      tag_59\n      jump\t// in\n    tag_69:\n        /* \"#utility.yul\":3274:3279   */\n      dup2\n        /* \"#utility.yul\":3271:3306   */\n      eq\n        /* \"#utility.yul\":3261:3324   */\n      tag_70\n      jumpi\n        /* \"#utility.yul\":3320:3321   */\n      0x00\n        /* \"#utility.yul\":3317:3318   */\n      dup1\n        /* \"#utility.yul\":3310:3322   */\n      revert\n        /* \"#utility.yul\":3261:3324   */\n    tag_70:\n        /* \"#utility.yul\":3208:3330   */\n      pop\n      jump\t// out\n\n    auxdata: 0xa2646970667358221220c74897eb73a131ac6517661a7eb9774ec8609db9c40a09bcacc01486a6c0f41a64736f6c63430008070033\n}\n",
				"bytecode": {
					"linkReferences": {},
					"object": "608060405234801561001057600080fd5b50336000806101000a81548173ffffffffffffffffffffffffffffffffffffffff021916908373ffffffffffffffffffffffffffffffffffffffff16021790555061033a806100606000396000f3fe608060405234801561001057600080fd5b50600436106100365760003560e01c80638da5cb5b1461003b578063f274c89714610059575b600080fd5b610043610075565b604051610050919061020e565b60405180910390f35b610073600480360381019061006e919061019c565b610099565b005b60008054906101000a900473ffffffffffffffffffffffffffffffffffffffff1681565b3373ffffffffffffffffffffffffffffffffffffffff1660008054906101000a900473ffffffffffffffffffffffffffffffffffffffff1673ffffffffffffffffffffffffffffffffffffffff1614610127576040517f08c379a000000000000000000000000000000000000000000000000000000000815260040161011e90610229565b60405180910390fd5b8173ffffffffffffffffffffffffffffffffffffffff166108fc829081150290604051600060405180830381858888f1935050505015801561016d573d6000803e3d6000fd5b505050565b600081359050610181816102d6565b92915050565b600081359050610196816102ed565b92915050565b600080604083850312156101b3576101b26102a8565b5b60006101c185828601610172565b92505060206101d285828601610187565b9150509250929050565b6101e58161025a565b82525050565b60006101f8601583610249565b9150610203826102ad565b602082019050919050565b600060208201905061022360008301846101dc565b92915050565b60006020820190508181036000830152610242816101eb565b9050919050565b600082825260208201905092915050565b60006102658261027e565b9050919050565b60006102778261027e565b9050919050565b600073ffffffffffffffffffffffffffffffffffffffff82169050919050565b6000819050919050565b600080fd5b7f596f7520617265206e6f7420746865206f776e65720000000000000000000000600082015250565b6102df8161026c565b81146102ea57600080fd5b50565b6102f68161029e565b811461030157600080fd5b5056fea2646970667358221220c74897eb73a131ac6517661a7eb9774ec8609db9c40a09bcacc01486a6c0f41a64736f6c63430008070033",
					"opcodes": "PUSH1 0x80 PUSH1 0x40 MSTORE CALLVALUE DUP1 ISZERO PUSH2 0x10 JUMPI PUSH1 0x0 DUP1 REVERT JUMPDEST POP CALLER PUSH1 0x0 DUP1 PUSH2 0x100 EXP DUP2 SLOAD DUP2 PUSH20 0xFFFFFFFFFFFFFFFFFFFFFFFFFFFFFFFFFFFFFFFF MUL NOT AND SWAP1 DUP4 PUSH20 0xFFFFFFFFFFFFFFFFFFFFFFFFFFFFFFFFFFFFFFFF AND MUL OR SWAP1 SSTORE POP PUSH2 0x33A DUP1 PUSH2 0x60 PUSH1 0x0 CODECOPY PUSH1 0x0 RETURN INVALID PUSH1 0x80 PUSH1 0x40 MSTORE CALLVALUE DUP1 ISZERO PUSH2 0x10 JUMPI PUSH1 0x0 DUP1 REVERT JUMPDEST POP PUSH1 0x4 CALLDATASIZE LT PUSH2 0x36 JUMPI PUSH1 0x0 CALLDATALOAD PUSH1 0xE0 SHR DUP1 PUSH4 0x8DA5CB5B EQ PUSH2 0x3B JUMPI DUP1 PUSH4 0xF274C897 EQ PUSH2 0x59 JUMPI JUMPDEST PUSH1 0x0 DUP1 REVERT JUMPDEST PUSH2 0x43 PUSH2 0x75 JUMP JUMPDEST PUSH1 0x40 MLOAD PUSH2 0x50 SWAP2 SWAP1 PUSH2 0x20E JUMP JUMPDEST PUSH1 0x40 MLOAD DUP1 SWAP2 SUB SWAP1 RETURN JUMPDEST PUSH2 0x73 PUSH1 0x4 DUP1 CALLDATASIZE SUB DUP2 ADD SWAP1 PUSH2 0x6E SWAP2 SWAP1 PUSH2 0x19C JUMP JUMPDEST PUSH2 0x99 JUMP JUMPDEST STOP JUMPDEST PUSH1 0x0 DUP1 SLOAD SWAP1 PUSH2 0x100 EXP SWAP1 DIV PUSH20 0xFFFFFFFFFFFFFFFFFFFFFFFFFFFFFFFFFFFFFFFF AND DUP2 JUMP JUMPDEST CALLER PUSH20 0xFFFFFFFFFFFFFFFFFFFFFFFFFFFFFFFFFFFFFFFF AND PUSH1 0x0 DUP1 SLOAD SWAP1 PUSH2 0x100 EXP SWAP1 DIV PUSH20 0xFFFFFFFFFFFFFFFFFFFFFFFFFFFFFFFFFFFFFFFF AND PUSH20 0xFFFFFFFFFFFFFFFFFFFFFFFFFFFFFFFFFFFFFFFF AND EQ PUSH2 0x127 JUMPI PUSH1 0x40 MLOAD PUSH32 0x8C379A000000000000000000000000000000000000000000000000000000000 DUP2 MSTORE PUSH1 0x4 ADD PUSH2 0x11E SWAP1 PUSH2 0x229 JUMP JUMPDEST PUSH1 0x40 MLOAD DUP1 SWAP2 SUB SWAP1 REVERT JUMPDEST DUP2 PUSH20 0xFFFFFFFFFFFFFFFFFFFFFFFFFFFFFFFFFFFFFFFF AND PUSH2 0x8FC DUP3 SWAP1 DUP2 ISZERO MUL SWAP1 PUSH1 0x40 MLOAD PUSH1 0x0 PUSH1 0x40 MLOAD DUP1 DUP4 SUB DUP2 DUP6 DUP9 DUP9 CALL SWAP4 POP POP POP POP ISZERO DUP1 ISZERO PUSH2 0x16D JUMPI RETURNDATASIZE PUSH1 0x0 DUP1 RETURNDATACOPY RETURNDATASIZE PUSH1 0x0 REVERT JUMPDEST POP POP POP JUMP JUMPDEST PUSH1 0x0 DUP2 CALLDATALOAD SWAP1 POP PUSH2 0x181 DUP2 PUSH2 0x2D6 JUMP JUMPDEST SWAP3 SWAP2 POP POP JUMP JUMPDEST PUSH1 0x0 DUP2 CALLDATALOAD SWAP1 POP PUSH2 0x196 DUP2 PUSH2 0x2ED JUMP JUMPDEST SWAP3 SWAP2 POP POP JUMP JUMPDEST PUSH1 0x0 DUP1 PUSH1 0x40 DUP4 DUP6 SUB SLT ISZERO PUSH2 0x1B3 JUMPI PUSH2 0x1B2 PUSH2 0x2A8 JUMP JUMPDEST JUMPDEST PUSH1 0x0 PUSH2 0x1C1 DUP6 DUP3 DUP7 ADD PUSH2 0x172 JUMP JUMPDEST SWAP3 POP POP PUSH1 0x20 PUSH2 0x1D2 DUP6 DUP3 DUP7 ADD PUSH2 0x187 JUMP JUMPDEST SWAP2 POP POP SWAP3 POP SWAP3 SWAP1 POP JUMP JUMPDEST PUSH2 0x1E5 DUP2 PUSH2 0x25A JUMP JUMPDEST DUP3 MSTORE POP POP JUMP JUMPDEST PUSH1 0x0 PUSH2 0x1F8 PUSH1 0x15 DUP4 PUSH2 0x249 JUMP JUMPDEST SWAP2 POP PUSH2 0x203 DUP3 PUSH2 0x2AD JUMP JUMPDEST PUSH1 0x20 DUP3 ADD SWAP1 POP SWAP2 SWAP1 POP JUMP JUMPDEST PUSH1 0x0 PUSH1 0x20 DUP3 ADD SWAP1 POP PUSH2 0x223 PUSH1 0x0 DUP4 ADD DUP5 PUSH2 0x1DC JUMP JUMPDEST SWAP3 SWAP2 POP POP JUMP JUMPDEST PUSH1 0x0 PUSH1 0x20 DUP3 ADD SWAP1 POP DUP2 DUP2 SUB PUSH1 0x0 DUP4 ADD MSTORE PUSH2 0x242 DUP2 PUSH2 0x1EB JUMP JUMPDEST SWAP1 POP SWAP2 SWAP1 POP JUMP JUMPDEST PUSH1 0x0 DUP3 DUP3 MSTORE PUSH1 0x20 DUP3 ADD SWAP1 POP SWAP3 SWAP2 POP POP JUMP JUMPDEST PUSH1 0x0 PUSH2 0x265 DUP3 PUSH2 0x27E JUMP JUMPDEST SWAP1 POP SWAP2 SWAP1 POP JUMP JUMPDEST PUSH1 0x0 PUSH2 0x277 DUP3 PUSH2 0x27E JUMP JUMPDEST SWAP1 POP SWAP2 SWAP1 POP JUMP JUMPDEST PUSH1 0x0 PUSH20 0xFFFFFFFFFFFFFFFFFFFFFFFFFFFFFFFFFFFFFFFF DUP3 AND SWAP1 POP SWAP2 SWAP1 POP JUMP JUMPDEST PUSH1 0x0 DUP2 SWAP1 POP SWAP2 SWAP1 POP JUMP JUMPDEST PUSH1 0x0 DUP1 REVERT JUMPDEST PUSH32 0x596F7520617265206E6F7420746865206F776E65720000000000000000000000 PUSH1 0x0 DUP3 ADD MSTORE POP JUMP JUMPDEST PUSH2 0x2DF DUP2 PUSH2 0x26C JUMP JUMPDEST DUP2 EQ PUSH2 0x2EA JUMPI PUSH1 0x0 DUP1 REVERT JUMPDEST POP JUMP JUMPDEST PUSH2 0x2F6 DUP2 PUSH2 0x29E JUMP JUMPDEST DUP2 EQ PUSH2 0x301 JUMPI PUSH1 0x0 DUP1 REVERT JUMPDEST POP JUMP INVALID LOG2 PUSH5 0x6970667358 0x22 SLT KECCAK256 0xC7 BASEFEE SWAP8 0xEB PUSH20 0xA131AC6517661A7EB9774EC8609DB9C40A09BCAC 0xC0 EQ DUP7 0xA6 0xC0 DELEGATECALL BYTE PUSH5 0x736F6C6343 STOP ADDMOD SMOD STOP CALLER "
				},
				"gasEstimates": {
					"creation": {
						"codeDepositCost": "165200",
						"executionCost": "24474",
						"totalCost": "189674"
					},
					"external": {
						"owner()": "2489",
						"withdrawMoney(address,uint256)": "infinite"
					}
				},
				"methodIdentifiers": {
					"owner()": "8da5cb5b",
					"withdrawMoney(address,uint256)": "f274c897"
				}
			},
			"userdoc": {
				"kind": "user",
				"methods": {},
				"version": 1
			}
		}
	}
}